{
	"src/CharityRaffle.sol": {
		"CharityRaffle": {
			"abi": [
				{
					"inputs": [],
					"name": "InsufficientFunds",
					"type": "error"
				},
				{
					"inputs": [],
					"name": "InsufficientValue",
					"type": "error"
				},
				{
					"inputs": [],
					"name": "InvalidInitialization",
					"type": "error"
				},
				{
					"inputs": [],
					"name": "InvalidProof",
					"type": "error"
				},
				{
					"inputs": [],
					"name": "InvalidRandomWords",
					"type": "error"
				},
				{
					"inputs": [],
					"name": "InvalidRequest",
					"type": "error"
				},
				{
					"inputs": [],
					"name": "NotAWinner",
					"type": "error"
				},
				{
					"inputs": [],
					"name": "NotInitializing",
					"type": "error"
				},
				{
					"inputs": [
						{
							"internalType": "address",
							"name": "have",
							"type": "address"
						},
						{
							"internalType": "address",
							"name": "want",
							"type": "address"
						}
					],
					"name": "OnlyCoordinatorCanFulfill",
					"type": "error"
				},
				{
					"inputs": [
						{
							"internalType": "address",
							"name": "have",
							"type": "address"
						},
						{
							"internalType": "address",
							"name": "owner",
							"type": "address"
						},
						{
							"internalType": "address",
							"name": "coordinator",
							"type": "address"
						}
					],
					"name": "OnlyOwnerOrCoordinator",
					"type": "error"
				},
				{
					"inputs": [
						{
							"internalType": "address",
							"name": "owner",
							"type": "address"
						}
					],
					"name": "OwnableInvalidOwner",
					"type": "error"
				},
				{
					"inputs": [
						{
							"internalType": "address",
							"name": "account",
							"type": "address"
						}
					],
					"name": "OwnableUnauthorizedAccount",
					"type": "error"
				},
				{
					"inputs": [],
					"name": "TransferFailed",
					"type": "error"
				},
				{
					"inputs": [],
					"name": "VRFRequestAlreadyMade",
					"type": "error"
				},
				{
					"inputs": [],
					"name": "WinnersNotSelected",
					"type": "error"
				},
				{
					"inputs": [],
					"name": "ZeroAddress",
					"type": "error"
				},
				{
					"anonymous": false,
					"inputs": [
						{
							"indexed": false,
							"internalType": "uint256",
							"name": "amount",
							"type": "uint256"
						}
					],
					"name": "CharityWithdrawal",
					"type": "event"
				},
				{
					"anonymous": false,
					"inputs": [
						{
							"indexed": false,
							"internalType": "address",
							"name": "vrfCoordinator",
							"type": "address"
						}
					],
					"name": "CoordinatorSet",
					"type": "event"
				},
				{
					"anonymous": false,
					"inputs": [
						{
							"indexed": false,
							"internalType": "uint64",
							"name": "version",
							"type": "uint64"
						}
					],
					"name": "Initialized",
					"type": "event"
				},
				{
					"anonymous": false,
					"inputs": [
						{
							"indexed": true,
							"internalType": "address",
							"name": "previousOwner",
							"type": "address"
						},
						{
							"indexed": true,
							"internalType": "address",
							"name": "newOwner",
							"type": "address"
						}
					],
					"name": "OwnershipTransferred",
					"type": "event"
				},
				{
					"anonymous": false,
					"inputs": [
						{
							"indexed": true,
							"internalType": "address",
							"name": "winner",
							"type": "address"
						}
					],
					"name": "PrizeClaimed",
					"type": "event"
				},
				{
					"anonymous": false,
					"inputs": [
						{
							"indexed": false,
							"internalType": "uint256",
							"name": "requestId",
							"type": "uint256"
						}
					],
					"name": "RandomnessRequested",
					"type": "event"
				},
				{
					"anonymous": false,
					"inputs": [
						{
							"indexed": true,
							"internalType": "address",
							"name": "buyer",
							"type": "address"
						},
						{
							"indexed": false,
							"internalType": "uint256",
							"name": "qty",
							"type": "uint256"
						}
					],
					"name": "TicketPurchased",
					"type": "event"
				},
				{
					"anonymous": false,
					"inputs": [
						{
							"indexed": false,
							"internalType": "address[]",
							"name": "winners",
							"type": "address[]"
						}
					],
					"name": "WinnersSelected",
					"type": "event"
				},
				{
					"inputs": [],
					"name": "DENOMINATOR",
					"outputs": [
						{
							"internalType": "uint256",
							"name": "",
							"type": "uint256"
						}
					],
					"stateMutability": "view",
					"type": "function"
				},
				{
					"inputs": [
						{
							"internalType": "uint256",
							"name": "_qty",
							"type": "uint256"
						},
						{
							"internalType": "bytes32[]",
							"name": "_proof",
							"type": "bytes32[]"
						}
					],
					"name": "buyTicket",
					"outputs": [],
					"stateMutability": "payable",
					"type": "function"
				},
				{
					"inputs": [],
					"name": "charityFunds",
					"outputs": [
						{
							"internalType": "uint256",
							"name": "",
							"type": "uint256"
						}
					],
					"stateMutability": "view",
					"type": "function"
				},
				{
					"inputs": [],
					"name": "charityWallet",
					"outputs": [
						{
							"internalType": "address",
							"name": "",
							"type": "address"
						}
					],
					"stateMutability": "view",
					"type": "function"
				},
				{
					"inputs": [],
					"name": "claimCharityFunds",
					"outputs": [],
					"stateMutability": "nonpayable",
					"type": "function"
				},
				{
					"inputs": [],
					"name": "claimPrize",
					"outputs": [],
					"stateMutability": "nonpayable",
					"type": "function"
				},
				{
					"inputs": [
						{
							"internalType": "address",
							"name": "_owner",
							"type": "address"
						},
						{
							"internalType": "address",
							"name": "_charityWallet",
							"type": "address"
						},
						{
							"internalType": "uint256",
							"name": "_vrfSubscriptionId",
							"type": "uint256"
						},
						{
							"internalType": "bytes32",
							"name": "_keyHash",
							"type": "bytes32"
						},
						{
							"internalType": "bytes32",
							"name": "_merkleRoot",
							"type": "bytes32"
						}
					],
					"name": "initialize",
					"outputs": [],
					"stateMutability": "nonpayable",
					"type": "function"
				},
				{
					"inputs": [],
					"name": "merkleRoot",
					"outputs": [
						{
							"internalType": "bytes32",
							"name": "",
							"type": "bytes32"
						}
					],
					"stateMutability": "view",
					"type": "function"
				},
				{
					"inputs": [],
					"name": "numOfWinners",
					"outputs": [
						{
							"internalType": "uint256",
							"name": "",
							"type": "uint256"
						}
					],
					"stateMutability": "view",
					"type": "function"
				},
				{
					"inputs": [],
					"name": "owner",
					"outputs": [
						{
							"internalType": "address",
							"name": "",
							"type": "address"
						}
					],
					"stateMutability": "view",
					"type": "function"
				},
				{
					"inputs": [
						{
							"internalType": "uint256",
							"name": "",
							"type": "uint256"
						}
					],
					"name": "participants",
					"outputs": [
						{
							"internalType": "address",
							"name": "",
							"type": "address"
						}
					],
					"stateMutability": "view",
					"type": "function"
				},
				{
					"inputs": [],
					"name": "prizePercentageBPS",
					"outputs": [
						{
							"internalType": "uint256",
							"name": "",
							"type": "uint256"
						}
					],
					"stateMutability": "view",
					"type": "function"
				},
				{
					"inputs": [
						{
							"internalType": "uint256",
							"name": "requestId",
							"type": "uint256"
						},
						{
							"internalType": "uint256[]",
							"name": "randomWords",
							"type": "uint256[]"
						}
					],
					"name": "rawFulfillRandomWords",
					"outputs": [],
					"stateMutability": "nonpayable",
					"type": "function"
				},
				{
					"inputs": [],
					"name": "renounceOwnership",
					"outputs": [],
					"stateMutability": "nonpayable",
					"type": "function"
				},
				{
					"inputs": [],
					"name": "requestRandomWinners",
					"outputs": [],
					"stateMutability": "nonpayable",
					"type": "function"
				},
				{
					"inputs": [],
					"name": "s_vrfCoordinator",
					"outputs": [
						{
							"internalType": "contract IVRFCoordinatorV2Plus",
							"name": "",
							"type": "address"
						}
					],
					"stateMutability": "view",
					"type": "function"
				},
				{
					"inputs": [
						{
							"internalType": "address",
							"name": "_vrfCoordinator",
							"type": "address"
						}
					],
					"name": "setCoordinator",
					"outputs": [],
					"stateMutability": "nonpayable",
					"type": "function"
				},
				{
					"inputs": [],
					"name": "ticketPrice",
					"outputs": [
						{
							"internalType": "uint256",
							"name": "",
							"type": "uint256"
						}
					],
					"stateMutability": "view",
					"type": "function"
				},
				{
					"inputs": [
						{
							"internalType": "address",
							"name": "newOwner",
							"type": "address"
						}
					],
					"name": "transferOwnership",
					"outputs": [],
					"stateMutability": "nonpayable",
					"type": "function"
				},
				{
					"inputs": [],
					"name": "vrfKeyHash",
					"outputs": [
						{
							"internalType": "bytes32",
							"name": "",
							"type": "bytes32"
						}
					],
					"stateMutability": "view",
					"type": "function"
				},
				{
					"inputs": [],
					"name": "vrfRequestID",
					"outputs": [
						{
							"internalType": "uint256",
							"name": "",
							"type": "uint256"
						}
					],
					"stateMutability": "view",
					"type": "function"
				},
				{
					"inputs": [],
					"name": "vrfSubscriptionId",
					"outputs": [
						{
							"internalType": "uint256",
							"name": "",
							"type": "uint256"
						}
					],
					"stateMutability": "view",
					"type": "function"
				},
				{
					"inputs": [],
					"name": "winnerReward",
					"outputs": [
						{
							"internalType": "uint256",
							"name": "",
							"type": "uint256"
						}
					],
					"stateMutability": "view",
					"type": "function"
				},
				{
					"inputs": [
						{
							"internalType": "address",
							"name": "",
							"type": "address"
						}
					],
					"name": "winners",
					"outputs": [
						{
							"internalType": "bool",
							"name": "",
							"type": "bool"
						}
					],
					"stateMutability": "view",
					"type": "function"
				},
				{
					"inputs": [],
					"name": "winnersSelected",
					"outputs": [
						{
							"internalType": "bool",
							"name": "",
							"type": "bool"
						}
					],
					"stateMutability": "view",
					"type": "function"
				}
			],
			"devdoc": {
				"errors": {
					"InvalidInitialization()": [
						{
							"details": "The contract is already initialized."
						}
					],
					"NotInitializing()": [
						{
							"details": "The contract is not initializing."
						}
					],
					"OwnableInvalidOwner(address)": [
						{
							"details": "The owner is not a valid owner account. (eg. `address(0)`)"
						}
					],
					"OwnableUnauthorizedAccount(address)": [
						{
							"details": "The caller account is not authorized to perform an operation."
						}
					]
				},
				"events": {
					"Initialized(uint64)": {
						"details": "Triggered when the contract has been initialized or reinitialized."
					}
				},
				"kind": "dev",
				"methods": {
					"renounceOwnership()": {
						"details": "Leaves the contract without owner. It will not be possible to call `onlyOwner` functions. Can only be called by the current owner. NOTE: Renouncing ownership will leave the contract without an owner, thereby disabling any functionality that is only available to the owner."
					},
					"transferOwnership(address)": {
						"details": "Transfers ownership of the contract to a new account (`newOwner`). Can only be called by the current owner."
					}
				},
				"version": 1
			},
			"evm": {
				"assembly": "    /* \"src/CharityRaffle.sol\":740:5331  contract CharityRaffle is OwnableUpgradeable, VRFConsumerBaseV2PlusCustom {... */\n  mstore(0x40, 0x80)\n  callvalue\n  dup1\n  iszero\n  tag_1\n  jumpi\n  revert(0x00, 0x00)\ntag_1:\n  pop\n  dataSize(sub_0)\n  dup1\n  dataOffset(sub_0)\n  0x00\n  codecopy\n  0x00\n  return\nstop\n\nsub_0: assembly {\n        /* \"src/CharityRaffle.sol\":740:5331  contract CharityRaffle is OwnableUpgradeable, VRFConsumerBaseV2PlusCustom {... */\n      mstore(0x40, 0x80)\n      jumpi(tag_1, lt(calldatasize, 0x04))\n      shr(0xe0, calldataload(0x00))\n      dup1\n      0x8da5cb5b\n      gt\n      tag_27\n      jumpi\n      dup1\n      0xb9705a03\n      gt\n      tag_28\n      jumpi\n      dup1\n      0xe17901d8\n      gt\n      tag_29\n      jumpi\n      dup1\n      0xe17901d8\n      eq\n      tag_23\n      jumpi\n      dup1\n      0xed647d21\n      eq\n      tag_24\n      jumpi\n      dup1\n      0xf2fde38b\n      eq\n      tag_25\n      jumpi\n      dup1\n      0xf9f23186\n      eq\n      tag_26\n      jumpi\n      jump(tag_1)\n    tag_29:\n      dup1\n      0xb9705a03\n      eq\n      tag_20\n      jumpi\n      dup1\n      0xc7383be8\n      eq\n      tag_21\n      jumpi\n      dup1\n      0xc8af64f8\n      eq\n      tag_22\n      jumpi\n      jump(tag_1)\n    tag_28:\n      dup1\n      0x8da5cb5b\n      eq\n      tag_14\n      jumpi\n      dup1\n      0x8ea98117\n      eq\n      tag_15\n      jumpi\n      dup1\n      0x918f8674\n      eq\n      tag_16\n      jumpi\n      dup1\n      0x98afca73\n      eq\n      tag_17\n      jumpi\n      dup1\n      0x9eccacf6\n      eq\n      tag_18\n      jumpi\n      dup1\n      0xad8ccb84\n      eq\n      tag_19\n      jumpi\n      jump(tag_1)\n    tag_27:\n      dup1\n      0x70740ac9\n      gt\n      tag_30\n      jumpi\n      dup1\n      0x70740ac9\n      eq\n      tag_8\n      jumpi\n      dup1\n      0x715018a6\n      eq\n      tag_9\n      jumpi\n      dup1\n      0x74552552\n      eq\n      tag_10\n      jumpi\n      dup1\n      0x7b208769\n      eq\n      tag_11\n      jumpi\n      dup1\n      0x8a89c8c9\n      eq\n      tag_12\n      jumpi\n      dup1\n      0x8bc53285\n      eq\n      tag_13\n      jumpi\n      jump(tag_1)\n    tag_30:\n      dup1\n      0x041d443e\n      eq\n      tag_2\n      jumpi\n      dup1\n      0x1209b1f6\n      eq\n      tag_3\n      jumpi\n      dup1\n      0x1fe543e3\n      eq\n      tag_4\n      jumpi\n      dup1\n      0x2eb4a7ab\n      eq\n      tag_5\n      jumpi\n      dup1\n      0x35c1d349\n      eq\n      tag_6\n      jumpi\n      dup1\n      0x6bd5450a\n      eq\n      tag_7\n      jumpi\n    tag_1:\n      revert(0x00, 0x00)\n        /* \"src/CharityRaffle.sol\":1046:1071  bytes32 public vrfKeyHash */\n    tag_2:\n      callvalue\n      dup1\n      iszero\n      tag_31\n      jumpi\n      revert(0x00, 0x00)\n    tag_31:\n      pop\n      tag_32\n      tag_33\n      jump\t// in\n    tag_32:\n      mload(0x40)\n      tag_34\n      swap2\n      swap1\n      tag_35\n      jump\t// in\n    tag_34:\n      mload(0x40)\n      dup1\n      swap2\n      sub\n      swap1\n      return\n        /* \"src/CharityRaffle.sol\":870:896  uint256 public ticketPrice */\n    tag_3:\n      callvalue\n      dup1\n      iszero\n      tag_36\n      jumpi\n      revert(0x00, 0x00)\n    tag_36:\n      pop\n      tag_37\n      tag_38\n      jump\t// in\n    tag_37:\n      mload(0x40)\n      tag_39\n      swap2\n      swap1\n      tag_40\n      jump\t// in\n    tag_39:\n      mload(0x40)\n      dup1\n      swap2\n      sub\n      swap1\n      return\n        /* \"src/VRFConsumerBaseV2PlusCustom.sol\":7298:7666  function rawFulfillRandomWords(... */\n    tag_4:\n      callvalue\n      dup1\n      iszero\n      tag_41\n      jumpi\n      revert(0x00, 0x00)\n    tag_41:\n      pop\n      tag_42\n      0x04\n      dup1\n      calldatasize\n      sub\n      dup2\n      add\n      swap1\n      tag_43\n      swap2\n      swap1\n      tag_44\n      jump\t// in\n    tag_43:\n      tag_45\n      jump\t// in\n    tag_42:\n      stop\n        /* \"src/CharityRaffle.sol\":1110:1135  bytes32 public merkleRoot */\n    tag_5:\n      callvalue\n      dup1\n      iszero\n      tag_46\n      jumpi\n      revert(0x00, 0x00)\n    tag_46:\n      pop\n      tag_47\n      tag_48\n      jump\t// in\n    tag_47:\n      mload(0x40)\n      tag_49\n      swap2\n      swap1\n      tag_35\n      jump\t// in\n    tag_49:\n      mload(0x40)\n      dup1\n      swap2\n      sub\n      swap1\n      return\n        /* \"src/CharityRaffle.sol\":1242:1271  address[] public participants */\n    tag_6:\n      callvalue\n      dup1\n      iszero\n      tag_50\n      jumpi\n      revert(0x00, 0x00)\n    tag_50:\n      pop\n      tag_51\n      0x04\n      dup1\n      calldatasize\n      sub\n      dup2\n      add\n      swap1\n      tag_52\n      swap2\n      swap1\n      tag_53\n      jump\t// in\n    tag_52:\n      tag_54\n      jump\t// in\n    tag_51:\n      mload(0x40)\n      tag_55\n      swap2\n      swap1\n      tag_56\n      jump\t// in\n    tag_55:\n      mload(0x40)\n      dup1\n      swap2\n      sub\n      swap1\n      return\n        /* \"src/CharityRaffle.sol\":1277:1316  mapping(address => bool) public winners */\n    tag_7:\n      callvalue\n      dup1\n      iszero\n      tag_57\n      jumpi\n      revert(0x00, 0x00)\n    tag_57:\n      pop\n      tag_58\n      0x04\n      dup1\n      calldatasize\n      sub\n      dup2\n      add\n      swap1\n      tag_59\n      swap2\n      swap1\n      tag_60\n      jump\t// in\n    tag_59:\n      tag_61\n      jump\t// in\n    tag_58:\n      mload(0x40)\n      tag_62\n      swap2\n      swap1\n      tag_63\n      jump\t// in\n    tag_62:\n      mload(0x40)\n      dup1\n      swap2\n      sub\n      swap1\n      return\n        /* \"src/CharityRaffle.sol\":4556:4836  function claimPrize() external {... */\n    tag_8:\n      callvalue\n      dup1\n      iszero\n      tag_64\n      jumpi\n      revert(0x00, 0x00)\n    tag_64:\n      pop\n      tag_65\n      tag_66\n      jump\t// in\n    tag_65:\n      stop\n        /* \"lib/openzeppelin-contracts-upgradeable/contracts/access/OwnableUpgradeable.sol\":3155:3256  function renounceOwnership() public virtual onlyOwner {... */\n    tag_9:\n      callvalue\n      dup1\n      iszero\n      tag_67\n      jumpi\n      revert(0x00, 0x00)\n    tag_67:\n      pop\n      tag_68\n      tag_69\n      jump\t// in\n    tag_68:\n      stop\n        /* \"src/CharityRaffle.sol\":4842:5168  function claimCharityFunds() external onlyOwner {... */\n    tag_10:\n      callvalue\n      dup1\n      iszero\n      tag_70\n      jumpi\n      revert(0x00, 0x00)\n    tag_70:\n      pop\n      tag_71\n      tag_72\n      jump\t// in\n    tag_71:\n      stop\n        /* \"src/CharityRaffle.sol\":974:1002  address public charityWallet */\n    tag_11:\n      callvalue\n      dup1\n      iszero\n      tag_73\n      jumpi\n      revert(0x00, 0x00)\n    tag_73:\n      pop\n      tag_74\n      tag_75\n      jump\t// in\n    tag_74:\n      mload(0x40)\n      tag_76\n      swap2\n      swap1\n      tag_56\n      jump\t// in\n    tag_76:\n      mload(0x40)\n      dup1\n      swap2\n      sub\n      swap1\n      return\n        /* \"src/CharityRaffle.sol\":2189:2709  function buyTicket(uint256 _qty, bytes32[] memory _proof) external payable {... */\n    tag_12:\n      tag_77\n      0x04\n      dup1\n      calldatasize\n      sub\n      dup2\n      add\n      swap1\n      tag_78\n      swap2\n      swap1\n      tag_79\n      jump\t// in\n    tag_78:\n      tag_80\n      jump\t// in\n    tag_77:\n      stop\n        /* \"src/CharityRaffle.sol\":1208:1235  bool public winnersSelected */\n    tag_13:\n      callvalue\n      dup1\n      iszero\n      tag_81\n      jumpi\n      revert(0x00, 0x00)\n    tag_81:\n      pop\n      tag_82\n      tag_83\n      jump\t// in\n    tag_82:\n      mload(0x40)\n      tag_84\n      swap2\n      swap1\n      tag_63\n      jump\t// in\n    tag_84:\n      mload(0x40)\n      dup1\n      swap2\n      sub\n      swap1\n      return\n        /* \"src/CharityRaffle.sol\":5174:5329  function owner() public view override(OwnableUpgradeable, VRFConsumerBaseV2PlusCustom) returns (address) {... */\n    tag_14:\n      callvalue\n      dup1\n      iszero\n      tag_85\n      jumpi\n      revert(0x00, 0x00)\n    tag_85:\n      pop\n      tag_86\n      tag_87\n      jump\t// in\n    tag_86:\n      mload(0x40)\n      tag_88\n      swap2\n      swap1\n      tag_56\n      jump\t// in\n    tag_88:\n      mload(0x40)\n      dup1\n      swap2\n      sub\n      swap1\n      return\n        /* \"src/VRFConsumerBaseV2PlusCustom.sol\":7736:8050  function setCoordinator(... */\n    tag_15:\n      callvalue\n      dup1\n      iszero\n      tag_89\n      jumpi\n      revert(0x00, 0x00)\n    tag_89:\n      pop\n      tag_90\n      0x04\n      dup1\n      calldatasize\n      sub\n      dup2\n      add\n      swap1\n      tag_91\n      swap2\n      swap1\n      tag_60\n      jump\t// in\n    tag_91:\n      tag_92\n      jump\t// in\n    tag_90:\n      stop\n        /* \"src/CharityRaffle.sol\":820:863  uint256 public constant DENOMINATOR = 10000 */\n    tag_16:\n      callvalue\n      dup1\n      iszero\n      tag_93\n      jumpi\n      revert(0x00, 0x00)\n    tag_93:\n      pop\n      tag_94\n      tag_95\n      jump\t// in\n    tag_94:\n      mload(0x40)\n      tag_96\n      swap2\n      swap1\n      tag_40\n      jump\t// in\n    tag_96:\n      mload(0x40)\n      dup1\n      swap2\n      sub\n      swap1\n      return\n        /* \"src/CharityRaffle.sol\":2715:3712  function requestRandomWinners() external onlyOwner {... */\n    tag_17:\n      callvalue\n      dup1\n      iszero\n      tag_97\n      jumpi\n      revert(0x00, 0x00)\n    tag_97:\n      pop\n      tag_98\n      tag_99\n      jump\t// in\n    tag_98:\n      stop\n        /* \"src/VRFConsumerBaseV2PlusCustom.sol\":6110:6155  IVRFCoordinatorV2Plus public s_vrfCoordinator */\n    tag_18:\n      callvalue\n      dup1\n      iszero\n      tag_100\n      jumpi\n      revert(0x00, 0x00)\n    tag_100:\n      pop\n      tag_101\n      tag_102\n      jump\t// in\n    tag_101:\n      mload(0x40)\n      tag_103\n      swap2\n      swap1\n      tag_104\n      jump\t// in\n    tag_103:\n      mload(0x40)\n      dup1\n      swap2\n      sub\n      swap1\n      return\n        /* \"src/CharityRaffle.sol\":1077:1104  uint256 public vrfRequestID */\n    tag_19:\n      callvalue\n      dup1\n      iszero\n      tag_105\n      jumpi\n      revert(0x00, 0x00)\n    tag_105:\n      pop\n      tag_106\n      tag_107\n      jump\t// in\n    tag_106:\n      mload(0x40)\n      tag_108\n      swap2\n      swap1\n      tag_40\n      jump\t// in\n    tag_108:\n      mload(0x40)\n      dup1\n      swap2\n      sub\n      swap1\n      return\n        /* \"src/CharityRaffle.sol\":1142:1169  uint256 public winnerReward */\n    tag_20:\n      callvalue\n      dup1\n      iszero\n      tag_109\n      jumpi\n      revert(0x00, 0x00)\n    tag_109:\n      pop\n      tag_110\n      tag_111\n      jump\t// in\n    tag_110:\n      mload(0x40)\n      tag_112\n      swap2\n      swap1\n      tag_40\n      jump\t// in\n    tag_112:\n      mload(0x40)\n      dup1\n      swap2\n      sub\n      swap1\n      return\n        /* \"src/CharityRaffle.sol\":902:929  uint256 public numOfWinners */\n    tag_21:\n      callvalue\n      dup1\n      iszero\n      tag_113\n      jumpi\n      revert(0x00, 0x00)\n    tag_113:\n      pop\n      tag_114\n      tag_115\n      jump\t// in\n    tag_114:\n      mload(0x40)\n      tag_116\n      swap2\n      swap1\n      tag_40\n      jump\t// in\n    tag_116:\n      mload(0x40)\n      dup1\n      swap2\n      sub\n      swap1\n      return\n        /* \"src/CharityRaffle.sol\":935:968  uint256 public prizePercentageBPS */\n    tag_22:\n      callvalue\n      dup1\n      iszero\n      tag_117\n      jumpi\n      revert(0x00, 0x00)\n    tag_117:\n      pop\n      tag_118\n      tag_119\n      jump\t// in\n    tag_118:\n      mload(0x40)\n      tag_120\n      swap2\n      swap1\n      tag_40\n      jump\t// in\n    tag_120:\n      mload(0x40)\n      dup1\n      swap2\n      sub\n      swap1\n      return\n        /* \"src/CharityRaffle.sol\":1175:1202  uint256 public charityFunds */\n    tag_23:\n      callvalue\n      dup1\n      iszero\n      tag_121\n      jumpi\n      revert(0x00, 0x00)\n    tag_121:\n      pop\n      tag_122\n      tag_123\n      jump\t// in\n    tag_122:\n      mload(0x40)\n      tag_124\n      swap2\n      swap1\n      tag_40\n      jump\t// in\n    tag_124:\n      mload(0x40)\n      dup1\n      swap2\n      sub\n      swap1\n      return\n        /* \"src/CharityRaffle.sol\":1008:1040  uint256 public vrfSubscriptionId */\n    tag_24:\n      callvalue\n      dup1\n      iszero\n      tag_125\n      jumpi\n      revert(0x00, 0x00)\n    tag_125:\n      pop\n      tag_126\n      tag_127\n      jump\t// in\n    tag_126:\n      mload(0x40)\n      tag_128\n      swap2\n      swap1\n      tag_40\n      jump\t// in\n    tag_128:\n      mload(0x40)\n      dup1\n      swap2\n      sub\n      swap1\n      return\n        /* \"lib/openzeppelin-contracts-upgradeable/contracts/access/OwnableUpgradeable.sol\":3405:3620  function transferOwnership(address newOwner) public virtual onlyOwner {... */\n    tag_25:\n      callvalue\n      dup1\n      iszero\n      tag_129\n      jumpi\n      revert(0x00, 0x00)\n    tag_129:\n      pop\n      tag_130\n      0x04\n      dup1\n      calldatasize\n      sub\n      dup2\n      add\n      swap1\n      tag_131\n      swap2\n      swap1\n      tag_60\n      jump\t// in\n    tag_131:\n      tag_132\n      jump\t// in\n    tag_130:\n      stop\n        /* \"src/CharityRaffle.sol\":1576:2183  function initialize(... */\n    tag_26:\n      callvalue\n      dup1\n      iszero\n      tag_133\n      jumpi\n      revert(0x00, 0x00)\n    tag_133:\n      pop\n      tag_134\n      0x04\n      dup1\n      calldatasize\n      sub\n      dup2\n      add\n      swap1\n      tag_135\n      swap2\n      swap1\n      tag_136\n      jump\t// in\n    tag_135:\n      tag_137\n      jump\t// in\n    tag_134:\n      stop\n        /* \"src/CharityRaffle.sol\":1046:1071  bytes32 public vrfKeyHash */\n    tag_33:\n      sload(0x06)\n      dup2\n      jump\t// out\n        /* \"src/CharityRaffle.sol\":870:896  uint256 public ticketPrice */\n    tag_38:\n      sload(0x01)\n      dup2\n      jump\t// out\n        /* \"src/VRFConsumerBaseV2PlusCustom.sol\":7298:7666  function rawFulfillRandomWords(... */\n    tag_45:\n        /* \"src/VRFConsumerBaseV2PlusCustom.sol\":7447:7463  s_vrfCoordinator */\n      0x00\n      0x00\n      swap1\n      sload\n      swap1\n      0x0100\n      exp\n      swap1\n      div\n      0xffffffffffffffffffffffffffffffffffffffff\n      and\n        /* \"src/VRFConsumerBaseV2PlusCustom.sol\":7425:7464  msg.sender != address(s_vrfCoordinator) */\n      0xffffffffffffffffffffffffffffffffffffffff\n      and\n        /* \"src/VRFConsumerBaseV2PlusCustom.sol\":7425:7435  msg.sender */\n      caller\n        /* \"src/VRFConsumerBaseV2PlusCustom.sol\":7425:7464  msg.sender != address(s_vrfCoordinator) */\n      0xffffffffffffffffffffffffffffffffffffffff\n      and\n      eq\n        /* \"src/VRFConsumerBaseV2PlusCustom.sol\":7421:7608  if (msg.sender != address(s_vrfCoordinator)) {... */\n      tag_139\n      jumpi\n        /* \"src/VRFConsumerBaseV2PlusCustom.sol\":7530:7540  msg.sender */\n      caller\n        /* \"src/VRFConsumerBaseV2PlusCustom.sol\":7566:7582  s_vrfCoordinator */\n      0x00\n      0x00\n      swap1\n      sload\n      swap1\n      0x0100\n      exp\n      swap1\n      div\n      0xffffffffffffffffffffffffffffffffffffffff\n      and\n        /* \"src/VRFConsumerBaseV2PlusCustom.sol\":7487:7597  OnlyCoordinatorCanFulfill(... */\n      mload(0x40)\n      0x1cf993f400000000000000000000000000000000000000000000000000000000\n      dup2\n      mstore\n      0x04\n      add\n      tag_140\n      swap3\n      swap2\n      swap1\n      tag_141\n      jump\t// in\n    tag_140:\n      mload(0x40)\n      dup1\n      swap2\n      sub\n      swap1\n      revert\n        /* \"src/VRFConsumerBaseV2PlusCustom.sol\":7421:7608  if (msg.sender != address(s_vrfCoordinator)) {... */\n    tag_139:\n        /* \"src/VRFConsumerBaseV2PlusCustom.sol\":7617:7659  fulfillRandomWords(requestId, randomWords) */\n      tag_142\n        /* \"src/VRFConsumerBaseV2PlusCustom.sol\":7636:7645  requestId */\n      dup4\n        /* \"src/VRFConsumerBaseV2PlusCustom.sol\":7647:7658  randomWords */\n      dup4\n      dup4\n        /* \"src/VRFConsumerBaseV2PlusCustom.sol\":7617:7635  fulfillRandomWords */\n      tag_143\n        /* \"src/VRFConsumerBaseV2PlusCustom.sol\":7617:7659  fulfillRandomWords(requestId, randomWords) */\n      jump\t// in\n    tag_142:\n        /* \"src/VRFConsumerBaseV2PlusCustom.sol\":7298:7666  function rawFulfillRandomWords(... */\n      pop\n      pop\n      pop\n      jump\t// out\n        /* \"src/CharityRaffle.sol\":1110:1135  bytes32 public merkleRoot */\n    tag_48:\n      sload(0x08)\n      dup2\n      jump\t// out\n        /* \"src/CharityRaffle.sol\":1242:1271  address[] public participants */\n    tag_54:\n      0x0c\n      dup2\n      dup2\n      sload\n      dup2\n      lt\n      tag_144\n      jumpi\n      0x00\n      dup1\n      revert\n    tag_144:\n      swap1\n      0x00\n      mstore\n      keccak256(0x00, 0x20)\n      add\n      0x00\n      swap2\n      pop\n      sload\n      swap1\n      0x0100\n      exp\n      swap1\n      div\n      0xffffffffffffffffffffffffffffffffffffffff\n      and\n      dup2\n      jump\t// out\n        /* \"src/CharityRaffle.sol\":1277:1316  mapping(address => bool) public winners */\n    tag_61:\n      mstore(0x20, 0x0d)\n      dup1\n      0x00\n      mstore\n      keccak256(0x00, 0x40)\n      0x00\n      swap2\n      pop\n      sload\n      swap1\n      0x0100\n      exp\n      swap1\n      div\n      0xff\n      and\n      dup2\n      jump\t// out\n        /* \"src/CharityRaffle.sol\":4556:4836  function claimPrize() external {... */\n    tag_66:\n        /* \"src/CharityRaffle.sol\":4605:4612  winners */\n      0x0d\n        /* \"src/CharityRaffle.sol\":4605:4624  winners[msg.sender] */\n      0x00\n        /* \"src/CharityRaffle.sol\":4613:4623  msg.sender */\n      caller\n        /* \"src/CharityRaffle.sol\":4605:4624  winners[msg.sender] */\n      0xffffffffffffffffffffffffffffffffffffffff\n      and\n      0xffffffffffffffffffffffffffffffffffffffff\n      and\n      dup2\n      mstore\n      0x20\n      add\n      swap1\n      dup2\n      mstore\n      0x20\n      add\n      0x00\n      keccak256\n      0x00\n      swap1\n      sload\n      swap1\n      0x0100\n      exp\n      swap1\n      div\n      0xff\n      and\n        /* \"src/CharityRaffle.sol\":4597:4639  require(winners[msg.sender], NotAWinner()) */\n      tag_147\n      jumpi\n      mload(0x40)\n      0xb19a9f8200000000000000000000000000000000000000000000000000000000\n      dup2\n      mstore\n      0x04\n      add\n      mload(0x40)\n      dup1\n      swap2\n      sub\n      swap1\n      revert\n    tag_147:\n        /* \"src/CharityRaffle.sol\":4672:4677  false */\n      0x00\n        /* \"src/CharityRaffle.sol\":4650:4657  winners */\n      0x0d\n        /* \"src/CharityRaffle.sol\":4650:4669  winners[msg.sender] */\n      0x00\n        /* \"src/CharityRaffle.sol\":4658:4668  msg.sender */\n      caller\n        /* \"src/CharityRaffle.sol\":4650:4669  winners[msg.sender] */\n      0xffffffffffffffffffffffffffffffffffffffff\n      and\n      0xffffffffffffffffffffffffffffffffffffffff\n      and\n      dup2\n      mstore\n      0x20\n      add\n      swap1\n      dup2\n      mstore\n      0x20\n      add\n      0x00\n      keccak256\n      0x00\n        /* \"src/CharityRaffle.sol\":4650:4677  winners[msg.sender] = false */\n      0x0100\n      exp\n      dup2\n      sload\n      dup2\n      0xff\n      mul\n      not\n      and\n      swap1\n      dup4\n      iszero\n      iszero\n      mul\n      or\n      swap1\n      sstore\n      pop\n        /* \"src/CharityRaffle.sol\":4689:4696  bool ok */\n      0x00\n        /* \"src/CharityRaffle.sol\":4709:4719  msg.sender */\n      caller\n        /* \"src/CharityRaffle.sol\":4701:4725  payable(msg.sender).call */\n      0xffffffffffffffffffffffffffffffffffffffff\n      and\n        /* \"src/CharityRaffle.sol\":4733:4745  winnerReward */\n      sload(0x09)\n        /* \"src/CharityRaffle.sol\":4701:4750  payable(msg.sender).call{value: winnerReward}(\"\") */\n      mload(0x40)\n      tag_148\n      swap1\n      tag_149\n      jump\t// in\n    tag_148:\n      0x00\n      mload(0x40)\n      dup1\n      dup4\n      sub\n      dup2\n      dup6\n      dup8\n      gas\n      call\n      swap3\n      pop\n      pop\n      pop\n      returndatasize\n      dup1\n      0x00\n      dup2\n      eq\n      tag_152\n      jumpi\n      mload(0x40)\n      swap2\n      pop\n      and(add(returndatasize, 0x3f), not(0x1f))\n      dup3\n      add\n      0x40\n      mstore\n      returndatasize\n      dup3\n      mstore\n      returndatasize\n      0x00\n      0x20\n      dup5\n      add\n      returndatacopy\n      jump(tag_151)\n    tag_152:\n      0x60\n      swap2\n      pop\n    tag_151:\n      pop\n        /* \"src/CharityRaffle.sol\":4688:4750  (bool ok,) = payable(msg.sender).call{value: winnerReward}(\"\") */\n      pop\n      swap1\n      pop\n        /* \"src/CharityRaffle.sol\":4768:4770  ok */\n      dup1\n        /* \"src/CharityRaffle.sol\":4760:4789  require(ok, TransferFailed()) */\n      tag_153\n      jumpi\n      mload(0x40)\n      0x90b8ec1800000000000000000000000000000000000000000000000000000000\n      dup2\n      mstore\n      0x04\n      add\n      mload(0x40)\n      dup1\n      swap2\n      sub\n      swap1\n      revert\n    tag_153:\n        /* \"src/CharityRaffle.sol\":4818:4828  msg.sender */\n      caller\n        /* \"src/CharityRaffle.sol\":4805:4829  PrizeClaimed(msg.sender) */\n      0xffffffffffffffffffffffffffffffffffffffff\n      and\n      0x09f058359c5a4d11027ce8027f5f0f4df210cb3ebac92f2c584170ed78624dd8\n      mload(0x40)\n      mload(0x40)\n      dup1\n      swap2\n      sub\n      swap1\n      log2\n        /* \"src/CharityRaffle.sol\":4587:4836  {... */\n      pop\n        /* \"src/CharityRaffle.sol\":4556:4836  function claimPrize() external {... */\n      jump\t// out\n        /* \"lib/openzeppelin-contracts-upgradeable/contracts/access/OwnableUpgradeable.sol\":3155:3256  function renounceOwnership() public virtual onlyOwner {... */\n    tag_69:\n        /* \"lib/openzeppelin-contracts-upgradeable/contracts/access/OwnableUpgradeable.sol\":2334:2347  _checkOwner() */\n      tag_155\n        /* \"lib/openzeppelin-contracts-upgradeable/contracts/access/OwnableUpgradeable.sol\":2334:2345  _checkOwner */\n      tag_156\n        /* \"lib/openzeppelin-contracts-upgradeable/contracts/access/OwnableUpgradeable.sol\":2334:2347  _checkOwner() */\n      jump\t// in\n    tag_155:\n        /* \"lib/openzeppelin-contracts-upgradeable/contracts/access/OwnableUpgradeable.sol\":3219:3249  _transferOwnership(address(0)) */\n      tag_158\n        /* \"lib/openzeppelin-contracts-upgradeable/contracts/access/OwnableUpgradeable.sol\":3246:3247  0 */\n      0x00\n        /* \"lib/openzeppelin-contracts-upgradeable/contracts/access/OwnableUpgradeable.sol\":3219:3237  _transferOwnership */\n      tag_159\n        /* \"lib/openzeppelin-contracts-upgradeable/contracts/access/OwnableUpgradeable.sol\":3219:3249  _transferOwnership(address(0)) */\n      jump\t// in\n    tag_158:\n        /* \"lib/openzeppelin-contracts-upgradeable/contracts/access/OwnableUpgradeable.sol\":3155:3256  function renounceOwnership() public virtual onlyOwner {... */\n      jump\t// out\n        /* \"src/CharityRaffle.sol\":4842:5168  function claimCharityFunds() external onlyOwner {... */\n    tag_72:\n        /* \"lib/openzeppelin-contracts-upgradeable/contracts/access/OwnableUpgradeable.sol\":2334:2347  _checkOwner() */\n      tag_161\n        /* \"lib/openzeppelin-contracts-upgradeable/contracts/access/OwnableUpgradeable.sol\":2334:2345  _checkOwner */\n      tag_156\n        /* \"lib/openzeppelin-contracts-upgradeable/contracts/access/OwnableUpgradeable.sol\":2334:2347  _checkOwner() */\n      jump\t// in\n    tag_161:\n        /* \"src/CharityRaffle.sol\":4923:4924  0 */\n      0x00\n        /* \"src/CharityRaffle.sol\":4908:4920  charityFunds */\n      sload(0x0a)\n        /* \"src/CharityRaffle.sol\":4908:4924  charityFunds > 0 */\n      gt\n        /* \"src/CharityRaffle.sol\":4900:4946  require(charityFunds > 0, InsufficientFunds()) */\n      tag_163\n      jumpi\n      mload(0x40)\n      0x356680b700000000000000000000000000000000000000000000000000000000\n      dup2\n      mstore\n      0x04\n      add\n      mload(0x40)\n      dup1\n      swap2\n      sub\n      swap1\n      revert\n    tag_163:\n        /* \"src/CharityRaffle.sol\":4964:4979  winnersSelected */\n      0x0b\n      0x00\n      swap1\n      sload\n      swap1\n      0x0100\n      exp\n      swap1\n      div\n      0xff\n      and\n        /* \"src/CharityRaffle.sol\":4956:5002  require(winnersSelected, WinnersNotSelected()) */\n      tag_164\n      jumpi\n      mload(0x40)\n      0xc35d1fe400000000000000000000000000000000000000000000000000000000\n      dup2\n      mstore\n      0x04\n      add\n      mload(0x40)\n      dup1\n      swap2\n      sub\n      swap1\n      revert\n    tag_164:\n        /* \"src/CharityRaffle.sol\":5014:5021  bool ok */\n      0x00\n        /* \"src/CharityRaffle.sol\":5034:5044  msg.sender */\n      caller\n        /* \"src/CharityRaffle.sol\":5026:5050  payable(msg.sender).call */\n      0xffffffffffffffffffffffffffffffffffffffff\n      and\n        /* \"src/CharityRaffle.sol\":5058:5070  charityFunds */\n      sload(0x0a)\n        /* \"src/CharityRaffle.sol\":5026:5075  payable(msg.sender).call{value: charityFunds}(\"\") */\n      mload(0x40)\n      tag_165\n      swap1\n      tag_149\n      jump\t// in\n    tag_165:\n      0x00\n      mload(0x40)\n      dup1\n      dup4\n      sub\n      dup2\n      dup6\n      dup8\n      gas\n      call\n      swap3\n      pop\n      pop\n      pop\n      returndatasize\n      dup1\n      0x00\n      dup2\n      eq\n      tag_168\n      jumpi\n      mload(0x40)\n      swap2\n      pop\n      and(add(returndatasize, 0x3f), not(0x1f))\n      dup3\n      add\n      0x40\n      mstore\n      returndatasize\n      dup3\n      mstore\n      returndatasize\n      0x00\n      0x20\n      dup5\n      add\n      returndatacopy\n      jump(tag_167)\n    tag_168:\n      0x60\n      swap2\n      pop\n    tag_167:\n      pop\n        /* \"src/CharityRaffle.sol\":5013:5075  (bool ok,) = payable(msg.sender).call{value: charityFunds}(\"\") */\n      pop\n      swap1\n      pop\n        /* \"src/CharityRaffle.sol\":5093:5095  ok */\n      dup1\n        /* \"src/CharityRaffle.sol\":5085:5114  require(ok, TransferFailed()) */\n      tag_169\n      jumpi\n      mload(0x40)\n      0x90b8ec1800000000000000000000000000000000000000000000000000000000\n      dup2\n      mstore\n      0x04\n      add\n      mload(0x40)\n      dup1\n      swap2\n      sub\n      swap1\n      revert\n    tag_169:\n        /* \"src/CharityRaffle.sol\":5130:5161  CharityWithdrawal(charityFunds) */\n      0x5689f9ef5be164071958e27dca7a9df000791288fb23c621501d67b6a808848b\n        /* \"src/CharityRaffle.sol\":5148:5160  charityFunds */\n      sload(0x0a)\n        /* \"src/CharityRaffle.sol\":5130:5161  CharityWithdrawal(charityFunds) */\n      mload(0x40)\n      tag_170\n      swap2\n      swap1\n      tag_40\n      jump\t// in\n    tag_170:\n      mload(0x40)\n      dup1\n      swap2\n      sub\n      swap1\n      log1\n        /* \"src/CharityRaffle.sol\":4890:5168  {... */\n      pop\n        /* \"src/CharityRaffle.sol\":4842:5168  function claimCharityFunds() external onlyOwner {... */\n      jump\t// out\n        /* \"src/CharityRaffle.sol\":974:1002  address public charityWallet */\n    tag_75:\n      0x04\n      0x00\n      swap1\n      sload\n      swap1\n      0x0100\n      exp\n      swap1\n      div\n      0xffffffffffffffffffffffffffffffffffffffff\n      and\n      dup2\n      jump\t// out\n        /* \"src/CharityRaffle.sol\":2189:2709  function buyTicket(uint256 _qty, bytes32[] memory _proof) external payable {... */\n    tag_80:\n        /* \"src/CharityRaffle.sol\":2309:2313  _qty */\n      dup2\n        /* \"src/CharityRaffle.sol\":2295:2306  ticketPrice */\n      sload(0x01)\n        /* \"src/CharityRaffle.sol\":2295:2313  ticketPrice * _qty */\n      tag_172\n      swap2\n      swap1\n      tag_173\n      jump\t// in\n    tag_172:\n        /* \"src/CharityRaffle.sol\":2282:2291  msg.value */\n      callvalue\n        /* \"src/CharityRaffle.sol\":2282:2313  msg.value == ticketPrice * _qty */\n      eq\n        /* \"src/CharityRaffle.sol\":2274:2335  require(msg.value == ticketPrice * _qty, InsufficientValue()) */\n      tag_174\n      jumpi\n      mload(0x40)\n      0x1101129400000000000000000000000000000000000000000000000000000000\n      dup2\n      mstore\n      0x04\n      add\n      mload(0x40)\n      dup1\n      swap2\n      sub\n      swap1\n      revert\n    tag_174:\n        /* \"src/CharityRaffle.sol\":2346:2358  bytes32 leaf */\n      0x00\n        /* \"src/CharityRaffle.sol\":2382:2392  msg.sender */\n      caller\n        /* \"src/CharityRaffle.sol\":2371:2393  abi.encode(msg.sender) */\n      add(0x20, mload(0x40))\n      tag_175\n      swap2\n      swap1\n      tag_56\n      jump\t// in\n    tag_175:\n      mload(0x40)\n      0x20\n      dup2\n      dup4\n      sub\n      sub\n      dup2\n      mstore\n      swap1\n      0x40\n      mstore\n        /* \"src/CharityRaffle.sol\":2361:2394  keccak256(abi.encode(msg.sender)) */\n      dup1\n      mload\n      swap1\n      0x20\n      add\n      keccak256\n        /* \"src/CharityRaffle.sol\":2346:2394  bytes32 leaf = keccak256(abi.encode(msg.sender)) */\n      swap1\n      pop\n        /* \"src/CharityRaffle.sol\":2464:2537  MerkleProof.verify(_proof, merkleRoot, keccak256(abi.encodePacked(leaf))) */\n      tag_176\n        /* \"src/CharityRaffle.sol\":2483:2489  _proof */\n      dup3\n        /* \"src/CharityRaffle.sol\":2491:2501  merkleRoot */\n      sload(0x08)\n        /* \"src/CharityRaffle.sol\":2530:2534  leaf */\n      dup4\n        /* \"src/CharityRaffle.sol\":2513:2535  abi.encodePacked(leaf) */\n      add(0x20, mload(0x40))\n      tag_177\n      swap2\n      swap1\n      tag_178\n      jump\t// in\n    tag_177:\n      mload(0x40)\n      0x20\n      dup2\n      dup4\n      sub\n      sub\n      dup2\n      mstore\n      swap1\n      0x40\n      mstore\n        /* \"src/CharityRaffle.sol\":2503:2536  keccak256(abi.encodePacked(leaf)) */\n      dup1\n      mload\n      swap1\n      0x20\n      add\n      keccak256\n        /* \"src/CharityRaffle.sol\":2464:2482  MerkleProof.verify */\n      tag_179\n        /* \"src/CharityRaffle.sol\":2464:2537  MerkleProof.verify(_proof, merkleRoot, keccak256(abi.encodePacked(leaf))) */\n      jump\t// in\n    tag_176:\n        /* \"src/CharityRaffle.sol\":2456:2554  require(MerkleProof.verify(_proof, merkleRoot, keccak256(abi.encodePacked(leaf))), InvalidProof()) */\n      tag_180\n      jumpi\n      mload(0x40)\n      0x09bde33900000000000000000000000000000000000000000000000000000000\n      dup2\n      mstore\n      0x04\n      add\n      mload(0x40)\n      dup1\n      swap2\n      sub\n      swap1\n      revert\n    tag_180:\n        /* \"src/CharityRaffle.sol\":2570:2579  uint256 i */\n      0x00\n        /* \"src/CharityRaffle.sol\":2582:2583  0 */\n      0x00\n        /* \"src/CharityRaffle.sol\":2570:2583  uint256 i = 0 */\n      swap1\n      pop\n        /* \"src/CharityRaffle.sol\":2565:2654  for (uint256 i = 0; i < _qty; i++) {... */\n    tag_181:\n        /* \"src/CharityRaffle.sol\":2589:2593  _qty */\n      dup4\n        /* \"src/CharityRaffle.sol\":2585:2586  i */\n      dup2\n        /* \"src/CharityRaffle.sol\":2585:2593  i < _qty */\n      lt\n        /* \"src/CharityRaffle.sol\":2565:2654  for (uint256 i = 0; i < _qty; i++) {... */\n      iszero\n      tag_182\n      jumpi\n        /* \"src/CharityRaffle.sol\":2614:2626  participants */\n      0x0c\n        /* \"src/CharityRaffle.sol\":2632:2642  msg.sender */\n      caller\n        /* \"src/CharityRaffle.sol\":2614:2643  participants.push(msg.sender) */\n      swap1\n      dup1\n      0x01\n      dup2\n      sload\n      add\n      dup1\n      dup3\n      sstore\n      dup1\n      swap2\n      pop\n      pop\n      0x01\n      swap1\n      sub\n      swap1\n      0x00\n      mstore\n      keccak256(0x00, 0x20)\n      add\n      0x00\n      swap1\n      swap2\n      swap1\n      swap2\n      swap1\n      swap2\n      0x0100\n      exp\n      dup2\n      sload\n      dup2\n      0xffffffffffffffffffffffffffffffffffffffff\n      mul\n      not\n      and\n      swap1\n      dup4\n      0xffffffffffffffffffffffffffffffffffffffff\n      and\n      mul\n      or\n      swap1\n      sstore\n      pop\n        /* \"src/CharityRaffle.sol\":2595:2598  i++ */\n      dup1\n      dup1\n      0x01\n      add\n      swap2\n      pop\n      pop\n        /* \"src/CharityRaffle.sol\":2565:2654  for (uint256 i = 0; i < _qty; i++) {... */\n      jump(tag_181)\n    tag_182:\n      pop\n        /* \"src/CharityRaffle.sol\":2685:2695  msg.sender */\n      caller\n        /* \"src/CharityRaffle.sol\":2669:2702  TicketPurchased(msg.sender, _qty) */\n      0xffffffffffffffffffffffffffffffffffffffff\n      and\n      0x0668f5b446eb814fe35b3206f43f14bd8567ba04ddaf7a3ee56516929ab22ccb\n        /* \"src/CharityRaffle.sol\":2697:2701  _qty */\n      dup5\n        /* \"src/CharityRaffle.sol\":2669:2702  TicketPurchased(msg.sender, _qty) */\n      mload(0x40)\n      tag_185\n      swap2\n      swap1\n      tag_40\n      jump\t// in\n    tag_185:\n      mload(0x40)\n      dup1\n      swap2\n      sub\n      swap1\n      log2\n        /* \"src/CharityRaffle.sol\":2264:2709  {... */\n      pop\n        /* \"src/CharityRaffle.sol\":2189:2709  function buyTicket(uint256 _qty, bytes32[] memory _proof) external payable {... */\n      pop\n      pop\n      jump\t// out\n        /* \"src/CharityRaffle.sol\":1208:1235  bool public winnersSelected */\n    tag_83:\n      0x0b\n      0x00\n      swap1\n      sload\n      swap1\n      0x0100\n      exp\n      swap1\n      div\n      0xff\n      and\n      dup2\n      jump\t// out\n        /* \"src/CharityRaffle.sol\":5174:5329  function owner() public view override(OwnableUpgradeable, VRFConsumerBaseV2PlusCustom) returns (address) {... */\n    tag_87:\n        /* \"src/CharityRaffle.sol\":5270:5277  address */\n      0x00\n        /* \"src/CharityRaffle.sol\":5296:5322  OwnableUpgradeable.owner() */\n      tag_187\n        /* \"src/CharityRaffle.sol\":5296:5320  OwnableUpgradeable.owner */\n      tag_188\n        /* \"src/CharityRaffle.sol\":5296:5322  OwnableUpgradeable.owner() */\n      jump\t// in\n    tag_187:\n        /* \"src/CharityRaffle.sol\":5289:5322  return OwnableUpgradeable.owner() */\n      swap1\n      pop\n        /* \"src/CharityRaffle.sol\":5174:5329  function owner() public view override(OwnableUpgradeable, VRFConsumerBaseV2PlusCustom) returns (address) {... */\n      swap1\n      jump\t// out\n        /* \"src/VRFConsumerBaseV2PlusCustom.sol\":7736:8050  function setCoordinator(... */\n    tag_92:\n        /* \"src/VRFConsumerBaseV2PlusCustom.sol\":8118:8125  owner() */\n      tag_190\n        /* \"src/VRFConsumerBaseV2PlusCustom.sol\":8118:8123  owner */\n      tag_87\n        /* \"src/VRFConsumerBaseV2PlusCustom.sol\":8118:8125  owner() */\n      jump\t// in\n    tag_190:\n        /* \"src/VRFConsumerBaseV2PlusCustom.sol\":8104:8125  msg.sender != owner() */\n      0xffffffffffffffffffffffffffffffffffffffff\n      and\n        /* \"src/VRFConsumerBaseV2PlusCustom.sol\":8104:8114  msg.sender */\n      caller\n        /* \"src/VRFConsumerBaseV2PlusCustom.sol\":8104:8125  msg.sender != owner() */\n      0xffffffffffffffffffffffffffffffffffffffff\n      and\n      eq\n      iszero\n        /* \"src/VRFConsumerBaseV2PlusCustom.sol\":8104:8168  msg.sender != owner() && msg.sender != address(s_vrfCoordinator) */\n      dup1\n      iszero\n      tag_191\n      jumpi\n      pop\n        /* \"src/VRFConsumerBaseV2PlusCustom.sol\":8151:8167  s_vrfCoordinator */\n      0x00\n      0x00\n      swap1\n      sload\n      swap1\n      0x0100\n      exp\n      swap1\n      div\n      0xffffffffffffffffffffffffffffffffffffffff\n      and\n        /* \"src/VRFConsumerBaseV2PlusCustom.sol\":8129:8168  msg.sender != address(s_vrfCoordinator) */\n      0xffffffffffffffffffffffffffffffffffffffff\n      and\n        /* \"src/VRFConsumerBaseV2PlusCustom.sol\":8129:8139  msg.sender */\n      caller\n        /* \"src/VRFConsumerBaseV2PlusCustom.sol\":8129:8168  msg.sender != address(s_vrfCoordinator) */\n      0xffffffffffffffffffffffffffffffffffffffff\n      and\n      eq\n      iszero\n        /* \"src/VRFConsumerBaseV2PlusCustom.sol\":8104:8168  msg.sender != owner() && msg.sender != address(s_vrfCoordinator) */\n    tag_191:\n        /* \"src/VRFConsumerBaseV2PlusCustom.sol\":8100:8334  if (msg.sender != owner() && msg.sender != address(s_vrfCoordinator)) {... */\n      iszero\n      tag_192\n      jumpi\n        /* \"src/VRFConsumerBaseV2PlusCustom.sol\":8231:8241  msg.sender */\n      caller\n        /* \"src/VRFConsumerBaseV2PlusCustom.sol\":8259:8266  owner() */\n      tag_193\n        /* \"src/VRFConsumerBaseV2PlusCustom.sol\":8259:8264  owner */\n      tag_87\n        /* \"src/VRFConsumerBaseV2PlusCustom.sol\":8259:8266  owner() */\n      jump\t// in\n    tag_193:\n        /* \"src/VRFConsumerBaseV2PlusCustom.sol\":8292:8308  s_vrfCoordinator */\n      0x00\n      0x00\n      swap1\n      sload\n      swap1\n      0x0100\n      exp\n      swap1\n      div\n      0xffffffffffffffffffffffffffffffffffffffff\n      and\n        /* \"src/VRFConsumerBaseV2PlusCustom.sol\":8191:8323  OnlyOwnerOrCoordinator(... */\n      mload(0x40)\n      0x061db9c100000000000000000000000000000000000000000000000000000000\n      dup2\n      mstore\n      0x04\n      add\n      tag_194\n      swap4\n      swap3\n      swap2\n      swap1\n      tag_195\n      jump\t// in\n    tag_194:\n      mload(0x40)\n      dup1\n      swap2\n      sub\n      swap1\n      revert\n        /* \"src/VRFConsumerBaseV2PlusCustom.sol\":8100:8334  if (msg.sender != owner() && msg.sender != address(s_vrfCoordinator)) {... */\n    tag_192:\n        /* \"src/VRFConsumerBaseV2PlusCustom.sol\":7881:7882  0 */\n      0x00\n        /* \"src/VRFConsumerBaseV2PlusCustom.sol\":7854:7883  _vrfCoordinator == address(0) */\n      0xffffffffffffffffffffffffffffffffffffffff\n      and\n        /* \"src/VRFConsumerBaseV2PlusCustom.sol\":7854:7869  _vrfCoordinator */\n      dup2\n        /* \"src/VRFConsumerBaseV2PlusCustom.sol\":7854:7883  _vrfCoordinator == address(0) */\n      0xffffffffffffffffffffffffffffffffffffffff\n      and\n      sub\n        /* \"src/VRFConsumerBaseV2PlusCustom.sol\":7850:7930  if (_vrfCoordinator == address(0)) {... */\n      tag_197\n      jumpi\n        /* \"src/VRFConsumerBaseV2PlusCustom.sol\":7906:7919  ZeroAddress() */\n      mload(0x40)\n      0xd92e233d00000000000000000000000000000000000000000000000000000000\n      dup2\n      mstore\n      0x04\n      add\n      mload(0x40)\n      dup1\n      swap2\n      sub\n      swap1\n      revert\n        /* \"src/VRFConsumerBaseV2PlusCustom.sol\":7850:7930  if (_vrfCoordinator == address(0)) {... */\n    tag_197:\n        /* \"src/VRFConsumerBaseV2PlusCustom.sol\":7980:7995  _vrfCoordinator */\n      dup1\n        /* \"src/VRFConsumerBaseV2PlusCustom.sol\":7939:7955  s_vrfCoordinator */\n      0x00\n      0x00\n        /* \"src/VRFConsumerBaseV2PlusCustom.sol\":7939:7996  s_vrfCoordinator = IVRFCoordinatorV2Plus(_vrfCoordinator) */\n      0x0100\n      exp\n      dup2\n      sload\n      dup2\n      0xffffffffffffffffffffffffffffffffffffffff\n      mul\n      not\n      and\n      swap1\n      dup4\n      0xffffffffffffffffffffffffffffffffffffffff\n      and\n      mul\n      or\n      swap1\n      sstore\n      pop\n        /* \"src/VRFConsumerBaseV2PlusCustom.sol\":8012:8043  CoordinatorSet(_vrfCoordinator) */\n      0xd1a6a14209a385a964d036e404cb5cfb71f4000cdb03c9366292430787261be6\n        /* \"src/VRFConsumerBaseV2PlusCustom.sol\":8027:8042  _vrfCoordinator */\n      dup2\n        /* \"src/VRFConsumerBaseV2PlusCustom.sol\":8012:8043  CoordinatorSet(_vrfCoordinator) */\n      mload(0x40)\n      tag_198\n      swap2\n      swap1\n      tag_56\n      jump\t// in\n    tag_198:\n      mload(0x40)\n      dup1\n      swap2\n      sub\n      swap1\n      log1\n        /* \"src/VRFConsumerBaseV2PlusCustom.sol\":7736:8050  function setCoordinator(... */\n      pop\n      jump\t// out\n        /* \"src/CharityRaffle.sol\":820:863  uint256 public constant DENOMINATOR = 10000 */\n    tag_95:\n        /* \"src/CharityRaffle.sol\":858:863  10000 */\n      0x2710\n        /* \"src/CharityRaffle.sol\":820:863  uint256 public constant DENOMINATOR = 10000 */\n      dup2\n      jump\t// out\n        /* \"src/CharityRaffle.sol\":2715:3712  function requestRandomWinners() external onlyOwner {... */\n    tag_99:\n        /* \"lib/openzeppelin-contracts-upgradeable/contracts/access/OwnableUpgradeable.sol\":2334:2347  _checkOwner() */\n      tag_200\n        /* \"lib/openzeppelin-contracts-upgradeable/contracts/access/OwnableUpgradeable.sol\":2334:2345  _checkOwner */\n      tag_156\n        /* \"lib/openzeppelin-contracts-upgradeable/contracts/access/OwnableUpgradeable.sol\":2334:2347  _checkOwner() */\n      jump\t// in\n    tag_200:\n        /* \"src/CharityRaffle.sol\":2800:2801  0 */\n      0x00\n        /* \"src/CharityRaffle.sol\":2784:2796  vrfRequestID */\n      sload(0x07)\n        /* \"src/CharityRaffle.sol\":2784:2801  vrfRequestID == 0 */\n      eq\n        /* \"src/CharityRaffle.sol\":2776:2827  require(vrfRequestID == 0, VRFRequestAlreadyMade()) */\n      tag_202\n      jumpi\n      mload(0x40)\n      0x0d5bae9500000000000000000000000000000000000000000000000000000000\n      dup2\n      mstore\n      0x04\n      add\n      mload(0x40)\n      dup1\n      swap2\n      sub\n      swap1\n      revert\n    tag_202:\n        /* \"src/CharityRaffle.sol\":2853:2869  s_vrfCoordinator */\n      0x00\n      0x00\n      swap1\n      sload\n      swap1\n      0x0100\n      exp\n      swap1\n      div\n      0xffffffffffffffffffffffffffffffffffffffff\n      and\n        /* \"src/CharityRaffle.sol\":2853:2888  s_vrfCoordinator.requestRandomWords */\n      0xffffffffffffffffffffffffffffffffffffffff\n      and\n      0x9b1c385e\n        /* \"src/CharityRaffle.sol\":2902:3416  VRFV2PlusClient.RandomWordsRequest({... */\n      mload(0x40)\n      dup1\n      0xc0\n      add\n      0x40\n      mstore\n      dup1\n        /* \"src/CharityRaffle.sol\":2964:2974  vrfKeyHash */\n      sload(0x06)\n        /* \"src/CharityRaffle.sol\":2902:3416  VRFV2PlusClient.RandomWordsRequest({... */\n      dup2\n      mstore\n      0x20\n      add\n        /* \"src/CharityRaffle.sol\":2999:3016  vrfSubscriptionId */\n      sload(0x05)\n        /* \"src/CharityRaffle.sol\":2902:3416  VRFV2PlusClient.RandomWordsRequest({... */\n      dup2\n      mstore\n      0x20\n      add\n        /* \"src/CharityRaffle.sol\":3056:3057  3 */\n      0x03\n        /* \"src/CharityRaffle.sol\":2902:3416  VRFV2PlusClient.RandomWordsRequest({... */\n      0xffff\n      and\n      dup2\n      mstore\n      0x20\n      add\n        /* \"src/CharityRaffle.sol\":3093:3100  1000000 */\n      0x0f4240\n        /* \"src/CharityRaffle.sol\":2902:3416  VRFV2PlusClient.RandomWordsRequest({... */\n      0xffffffff\n      and\n      dup2\n      mstore\n      0x20\n      add\n        /* \"src/CharityRaffle.sol\":3135:3147  numOfWinners */\n      sload(0x02)\n        /* \"src/CharityRaffle.sol\":2902:3416  VRFV2PlusClient.RandomWordsRequest({... */\n      0xffffffff\n      and\n      dup2\n      mstore\n      0x20\n      add\n        /* \"src/CharityRaffle.sol\":3177:3401  VRFV2PlusClient._argsToBytes(... */\n      tag_203\n        /* \"src/CharityRaffle.sol\":3333:3383  VRFV2PlusClient.ExtraArgsV1({nativePayment: true}) */\n      mload(0x40)\n      dup1\n      0x20\n      add\n      0x40\n      mstore\n      dup1\n        /* \"src/CharityRaffle.sol\":3377:3381  true */\n      0x01\n        /* \"src/CharityRaffle.sol\":3333:3383  VRFV2PlusClient.ExtraArgsV1({nativePayment: true}) */\n      iszero\n      iszero\n      dup2\n      mstore\n      pop\n        /* \"src/CharityRaffle.sol\":3177:3205  VRFV2PlusClient._argsToBytes */\n      tag_204\n        /* \"src/CharityRaffle.sol\":3177:3401  VRFV2PlusClient._argsToBytes(... */\n      jump\t// in\n    tag_203:\n        /* \"src/CharityRaffle.sol\":2902:3416  VRFV2PlusClient.RandomWordsRequest({... */\n      dup2\n      mstore\n      pop\n        /* \"src/CharityRaffle.sol\":2853:3426  s_vrfCoordinator.requestRandomWords(... */\n      mload(0x40)\n      dup3\n      0xffffffff\n      and\n      0xe0\n      shl\n      dup2\n      mstore\n      0x04\n      add\n      tag_205\n      swap2\n      swap1\n      tag_206\n      jump\t// in\n    tag_205:\n      0x20\n      mload(0x40)\n      dup1\n      dup4\n      sub\n      dup2\n      0x00\n      dup8\n      gas\n      call\n      iszero\n      dup1\n      iszero\n      tag_208\n      jumpi\n      returndatacopy(0x00, 0x00, returndatasize)\n      revert(0x00, returndatasize)\n    tag_208:\n      pop\n      pop\n      pop\n      pop\n      mload(0x40)\n      returndatasize\n      not(0x1f)\n      0x1f\n      dup3\n      add\n      and\n      dup3\n      add\n      dup1\n      0x40\n      mstore\n      pop\n      dup2\n      add\n      swap1\n      tag_209\n      swap2\n      swap1\n      tag_210\n      jump\t// in\n    tag_209:\n        /* \"src/CharityRaffle.sol\":2838:2850  vrfRequestID */\n      0x07\n        /* \"src/CharityRaffle.sol\":2838:3426  vrfRequestID = s_vrfCoordinator.requestRandomWords(... */\n      dup2\n      swap1\n      sstore\n      pop\n        /* \"src/CharityRaffle.sol\":3436:3458  uint256 fundsCollected */\n      0x00\n        /* \"src/CharityRaffle.sol\":3483:3494  ticketPrice */\n      sload(0x01)\n        /* \"src/CharityRaffle.sol\":3461:3473  participants */\n      0x0c\n        /* \"src/CharityRaffle.sol\":3461:3480  participants.length */\n      dup1\n      sload\n      swap1\n      pop\n        /* \"src/CharityRaffle.sol\":3461:3494  participants.length * ticketPrice */\n      tag_211\n      swap2\n      swap1\n      tag_173\n      jump\t// in\n    tag_211:\n        /* \"src/CharityRaffle.sol\":3436:3494  uint256 fundsCollected = participants.length * ticketPrice */\n      swap1\n      pop\n        /* \"src/CharityRaffle.sol\":3575:3587  numOfWinners */\n      sload(0x02)\n        /* \"src/CharityRaffle.sol\":858:863  10000 */\n      0x2710\n        /* \"src/CharityRaffle.sol\":3538:3556  prizePercentageBPS */\n      sload(0x03)\n        /* \"src/CharityRaffle.sol\":3521:3535  fundsCollected */\n      dup4\n        /* \"src/CharityRaffle.sol\":3521:3556  fundsCollected * prizePercentageBPS */\n      tag_212\n      swap2\n      swap1\n      tag_173\n      jump\t// in\n    tag_212:\n        /* \"src/CharityRaffle.sol\":3520:3571  (fundsCollected * prizePercentageBPS) / DENOMINATOR */\n      tag_213\n      swap2\n      swap1\n      tag_214\n      jump\t// in\n    tag_213:\n        /* \"src/CharityRaffle.sol\":3519:3587  ((fundsCollected * prizePercentageBPS) / DENOMINATOR) / numOfWinners */\n      tag_215\n      swap2\n      swap1\n      tag_214\n      jump\t// in\n    tag_215:\n        /* \"src/CharityRaffle.sol\":3504:3516  winnerReward */\n      0x09\n        /* \"src/CharityRaffle.sol\":3504:3587  winnerReward = ((fundsCollected * prizePercentageBPS) / DENOMINATOR) / numOfWinners */\n      dup2\n      swap1\n      sstore\n      pop\n        /* \"src/CharityRaffle.sol\":3644:3656  numOfWinners */\n      sload(0x02)\n        /* \"src/CharityRaffle.sol\":3629:3641  winnerReward */\n      sload(0x09)\n        /* \"src/CharityRaffle.sol\":3629:3656  winnerReward * numOfWinners */\n      tag_216\n      swap2\n      swap1\n      tag_173\n      jump\t// in\n    tag_216:\n        /* \"src/CharityRaffle.sol\":3612:3626  fundsCollected */\n      dup2\n        /* \"src/CharityRaffle.sol\":3612:3656  fundsCollected - winnerReward * numOfWinners */\n      tag_217\n      swap2\n      swap1\n      tag_218\n      jump\t// in\n    tag_217:\n        /* \"src/CharityRaffle.sol\":3597:3609  charityFunds */\n      0x0a\n        /* \"src/CharityRaffle.sol\":3597:3656  charityFunds = fundsCollected - winnerReward * numOfWinners */\n      dup2\n      swap1\n      sstore\n      pop\n        /* \"src/CharityRaffle.sol\":3672:3705  RandomnessRequested(vrfRequestID) */\n      0x9ac10fb18c93d33ad7b0a941897aef048d0f8d30756684e82b4552ba12764d45\n        /* \"src/CharityRaffle.sol\":3692:3704  vrfRequestID */\n      sload(0x07)\n        /* \"src/CharityRaffle.sol\":3672:3705  RandomnessRequested(vrfRequestID) */\n      mload(0x40)\n      tag_219\n      swap2\n      swap1\n      tag_40\n      jump\t// in\n    tag_219:\n      mload(0x40)\n      dup1\n      swap2\n      sub\n      swap1\n      log1\n        /* \"src/CharityRaffle.sol\":2766:3712  {... */\n      pop\n        /* \"src/CharityRaffle.sol\":2715:3712  function requestRandomWinners() external onlyOwner {... */\n      jump\t// out\n        /* \"src/VRFConsumerBaseV2PlusCustom.sol\":6110:6155  IVRFCoordinatorV2Plus public s_vrfCoordinator */\n    tag_102:\n      0x00\n      0x00\n      swap1\n      sload\n      swap1\n      0x0100\n      exp\n      swap1\n      div\n      0xffffffffffffffffffffffffffffffffffffffff\n      and\n      dup2\n      jump\t// out\n        /* \"src/CharityRaffle.sol\":1077:1104  uint256 public vrfRequestID */\n    tag_107:\n      sload(0x07)\n      dup2\n      jump\t// out\n        /* \"src/CharityRaffle.sol\":1142:1169  uint256 public winnerReward */\n    tag_111:\n      sload(0x09)\n      dup2\n      jump\t// out\n        /* \"src/CharityRaffle.sol\":902:929  uint256 public numOfWinners */\n    tag_115:\n      sload(0x02)\n      dup2\n      jump\t// out\n        /* \"src/CharityRaffle.sol\":935:968  uint256 public prizePercentageBPS */\n    tag_119:\n      sload(0x03)\n      dup2\n      jump\t// out\n        /* \"src/CharityRaffle.sol\":1175:1202  uint256 public charityFunds */\n    tag_123:\n      sload(0x0a)\n      dup2\n      jump\t// out\n        /* \"src/CharityRaffle.sol\":1008:1040  uint256 public vrfSubscriptionId */\n    tag_127:\n      sload(0x05)\n      dup2\n      jump\t// out\n        /* \"lib/openzeppelin-contracts-upgradeable/contracts/access/OwnableUpgradeable.sol\":3405:3620  function transferOwnership(address newOwner) public virtual onlyOwner {... */\n    tag_132:\n        /* \"lib/openzeppelin-contracts-upgradeable/contracts/access/OwnableUpgradeable.sol\":2334:2347  _checkOwner() */\n      tag_221\n        /* \"lib/openzeppelin-contracts-upgradeable/contracts/access/OwnableUpgradeable.sol\":2334:2345  _checkOwner */\n      tag_156\n        /* \"lib/openzeppelin-contracts-upgradeable/contracts/access/OwnableUpgradeable.sol\":2334:2347  _checkOwner() */\n      jump\t// in\n    tag_221:\n        /* \"lib/openzeppelin-contracts-upgradeable/contracts/access/OwnableUpgradeable.sol\":3509:3510  0 */\n      0x00\n        /* \"lib/openzeppelin-contracts-upgradeable/contracts/access/OwnableUpgradeable.sol\":3489:3511  newOwner == address(0) */\n      0xffffffffffffffffffffffffffffffffffffffff\n      and\n        /* \"lib/openzeppelin-contracts-upgradeable/contracts/access/OwnableUpgradeable.sol\":3489:3497  newOwner */\n      dup2\n        /* \"lib/openzeppelin-contracts-upgradeable/contracts/access/OwnableUpgradeable.sol\":3489:3511  newOwner == address(0) */\n      0xffffffffffffffffffffffffffffffffffffffff\n      and\n      sub\n        /* \"lib/openzeppelin-contracts-upgradeable/contracts/access/OwnableUpgradeable.sol\":3485:3576  if (newOwner == address(0)) {... */\n      tag_223\n      jumpi\n        /* \"lib/openzeppelin-contracts-upgradeable/contracts/access/OwnableUpgradeable.sol\":3562:3563  0 */\n      0x00\n        /* \"lib/openzeppelin-contracts-upgradeable/contracts/access/OwnableUpgradeable.sol\":3534:3565  OwnableInvalidOwner(address(0)) */\n      mload(0x40)\n      0x1e4fbdf700000000000000000000000000000000000000000000000000000000\n      dup2\n      mstore\n      0x04\n      add\n      tag_224\n      swap2\n      swap1\n      tag_56\n      jump\t// in\n    tag_224:\n      mload(0x40)\n      dup1\n      swap2\n      sub\n      swap1\n      revert\n        /* \"lib/openzeppelin-contracts-upgradeable/contracts/access/OwnableUpgradeable.sol\":3485:3576  if (newOwner == address(0)) {... */\n    tag_223:\n        /* \"lib/openzeppelin-contracts-upgradeable/contracts/access/OwnableUpgradeable.sol\":3585:3613  _transferOwnership(newOwner) */\n      tag_225\n        /* \"lib/openzeppelin-contracts-upgradeable/contracts/access/OwnableUpgradeable.sol\":3604:3612  newOwner */\n      dup2\n        /* \"lib/openzeppelin-contracts-upgradeable/contracts/access/OwnableUpgradeable.sol\":3585:3603  _transferOwnership */\n      tag_159\n        /* \"lib/openzeppelin-contracts-upgradeable/contracts/access/OwnableUpgradeable.sol\":3585:3613  _transferOwnership(newOwner) */\n      jump\t// in\n    tag_225:\n        /* \"lib/openzeppelin-contracts-upgradeable/contracts/access/OwnableUpgradeable.sol\":3405:3620  function transferOwnership(address newOwner) public virtual onlyOwner {... */\n      pop\n      jump\t// out\n        /* \"src/CharityRaffle.sol\":1576:2183  function initialize(... */\n    tag_137:\n        /* \"lib/openzeppelin-contracts-upgradeable/contracts/proxy/utils/Initializable.sol\":4158:4188  InitializableStorage storage $ */\n      0x00\n        /* \"lib/openzeppelin-contracts-upgradeable/contracts/proxy/utils/Initializable.sol\":4191:4217  _getInitializableStorage() */\n      tag_227\n        /* \"lib/openzeppelin-contracts-upgradeable/contracts/proxy/utils/Initializable.sol\":4191:4215  _getInitializableStorage */\n      tag_228\n        /* \"lib/openzeppelin-contracts-upgradeable/contracts/proxy/utils/Initializable.sol\":4191:4217  _getInitializableStorage() */\n      jump\t// in\n    tag_227:\n        /* \"lib/openzeppelin-contracts-upgradeable/contracts/proxy/utils/Initializable.sol\":4158:4217  InitializableStorage storage $ = _getInitializableStorage() */\n      swap1\n      pop\n        /* \"lib/openzeppelin-contracts-upgradeable/contracts/proxy/utils/Initializable.sol\":4279:4298  bool isTopLevelCall */\n      0x00\n        /* \"lib/openzeppelin-contracts-upgradeable/contracts/proxy/utils/Initializable.sol\":4302:4303  $ */\n      dup2\n        /* \"lib/openzeppelin-contracts-upgradeable/contracts/proxy/utils/Initializable.sol\":4302:4317  $._initializing */\n      0x00\n      add\n      0x08\n      swap1\n      sload\n      swap1\n      0x0100\n      exp\n      swap1\n      div\n      0xff\n      and\n        /* \"lib/openzeppelin-contracts-upgradeable/contracts/proxy/utils/Initializable.sol\":4301:4317  !$._initializing */\n      iszero\n        /* \"lib/openzeppelin-contracts-upgradeable/contracts/proxy/utils/Initializable.sol\":4279:4317  bool isTopLevelCall = !$._initializing */\n      swap1\n      pop\n        /* \"lib/openzeppelin-contracts-upgradeable/contracts/proxy/utils/Initializable.sol\":4327:4345  uint64 initialized */\n      0x00\n        /* \"lib/openzeppelin-contracts-upgradeable/contracts/proxy/utils/Initializable.sol\":4348:4349  $ */\n      dup3\n        /* \"lib/openzeppelin-contracts-upgradeable/contracts/proxy/utils/Initializable.sol\":4348:4362  $._initialized */\n      0x00\n      add\n      0x00\n      swap1\n      sload\n      swap1\n      0x0100\n      exp\n      swap1\n      div\n      0xffffffffffffffff\n      and\n        /* \"lib/openzeppelin-contracts-upgradeable/contracts/proxy/utils/Initializable.sol\":4327:4362  uint64 initialized = $._initialized */\n      swap1\n      pop\n        /* \"lib/openzeppelin-contracts-upgradeable/contracts/proxy/utils/Initializable.sol\":4704:4721  bool initialSetup */\n      0x00\n        /* \"lib/openzeppelin-contracts-upgradeable/contracts/proxy/utils/Initializable.sol\":4739:4740  0 */\n      0x00\n        /* \"lib/openzeppelin-contracts-upgradeable/contracts/proxy/utils/Initializable.sol\":4724:4735  initialized */\n      dup3\n        /* \"lib/openzeppelin-contracts-upgradeable/contracts/proxy/utils/Initializable.sol\":4724:4740  initialized == 0 */\n      0xffffffffffffffff\n      and\n      eq\n        /* \"lib/openzeppelin-contracts-upgradeable/contracts/proxy/utils/Initializable.sol\":4724:4758  initialized == 0 && isTopLevelCall */\n      dup1\n      iszero\n      tag_229\n      jumpi\n      pop\n        /* \"lib/openzeppelin-contracts-upgradeable/contracts/proxy/utils/Initializable.sol\":4744:4758  isTopLevelCall */\n      dup3\n        /* \"lib/openzeppelin-contracts-upgradeable/contracts/proxy/utils/Initializable.sol\":4724:4758  initialized == 0 && isTopLevelCall */\n    tag_229:\n        /* \"lib/openzeppelin-contracts-upgradeable/contracts/proxy/utils/Initializable.sol\":4704:4758  bool initialSetup = initialized == 0 && isTopLevelCall */\n      swap1\n      pop\n        /* \"lib/openzeppelin-contracts-upgradeable/contracts/proxy/utils/Initializable.sol\":4768:4785  bool construction */\n      0x00\n        /* \"lib/openzeppelin-contracts-upgradeable/contracts/proxy/utils/Initializable.sol\":4803:4804  1 */\n      0x01\n        /* \"lib/openzeppelin-contracts-upgradeable/contracts/proxy/utils/Initializable.sol\":4788:4799  initialized */\n      dup4\n        /* \"lib/openzeppelin-contracts-upgradeable/contracts/proxy/utils/Initializable.sol\":4788:4804  initialized == 1 */\n      0xffffffffffffffff\n      and\n      eq\n        /* \"lib/openzeppelin-contracts-upgradeable/contracts/proxy/utils/Initializable.sol\":4788:4838  initialized == 1 && address(this).code.length == 0 */\n      dup1\n      iszero\n      tag_230\n      jumpi\n      pop\n        /* \"lib/openzeppelin-contracts-upgradeable/contracts/proxy/utils/Initializable.sol\":4837:4838  0 */\n      0x00\n        /* \"lib/openzeppelin-contracts-upgradeable/contracts/proxy/utils/Initializable.sol\":4816:4820  this */\n      address\n        /* \"lib/openzeppelin-contracts-upgradeable/contracts/proxy/utils/Initializable.sol\":4808:4833  address(this).code.length */\n      0xffffffffffffffffffffffffffffffffffffffff\n      and\n      extcodesize\n        /* \"lib/openzeppelin-contracts-upgradeable/contracts/proxy/utils/Initializable.sol\":4808:4838  address(this).code.length == 0 */\n      eq\n        /* \"lib/openzeppelin-contracts-upgradeable/contracts/proxy/utils/Initializable.sol\":4788:4838  initialized == 1 && address(this).code.length == 0 */\n    tag_230:\n        /* \"lib/openzeppelin-contracts-upgradeable/contracts/proxy/utils/Initializable.sol\":4768:4838  bool construction = initialized == 1 && address(this).code.length == 0 */\n      swap1\n      pop\n        /* \"lib/openzeppelin-contracts-upgradeable/contracts/proxy/utils/Initializable.sol\":4854:4866  initialSetup */\n      dup2\n        /* \"lib/openzeppelin-contracts-upgradeable/contracts/proxy/utils/Initializable.sol\":4853:4866  !initialSetup */\n      iszero\n        /* \"lib/openzeppelin-contracts-upgradeable/contracts/proxy/utils/Initializable.sol\":4853:4883  !initialSetup && !construction */\n      dup1\n      iszero\n      tag_231\n      jumpi\n      pop\n        /* \"lib/openzeppelin-contracts-upgradeable/contracts/proxy/utils/Initializable.sol\":4871:4883  construction */\n      dup1\n        /* \"lib/openzeppelin-contracts-upgradeable/contracts/proxy/utils/Initializable.sol\":4870:4883  !construction */\n      iszero\n        /* \"lib/openzeppelin-contracts-upgradeable/contracts/proxy/utils/Initializable.sol\":4853:4883  !initialSetup && !construction */\n    tag_231:\n        /* \"lib/openzeppelin-contracts-upgradeable/contracts/proxy/utils/Initializable.sol\":4849:4940  if (!initialSetup && !construction) {... */\n      iszero\n      tag_232\n      jumpi\n        /* \"lib/openzeppelin-contracts-upgradeable/contracts/proxy/utils/Initializable.sol\":4906:4929  InvalidInitialization() */\n      mload(0x40)\n      0xf92ee8a900000000000000000000000000000000000000000000000000000000\n      dup2\n      mstore\n      0x04\n      add\n      mload(0x40)\n      dup1\n      swap2\n      sub\n      swap1\n      revert\n        /* \"lib/openzeppelin-contracts-upgradeable/contracts/proxy/utils/Initializable.sol\":4849:4940  if (!initialSetup && !construction) {... */\n    tag_232:\n        /* \"lib/openzeppelin-contracts-upgradeable/contracts/proxy/utils/Initializable.sol\":4966:4967  1 */\n      0x01\n        /* \"lib/openzeppelin-contracts-upgradeable/contracts/proxy/utils/Initializable.sol\":4949:4950  $ */\n      dup6\n        /* \"lib/openzeppelin-contracts-upgradeable/contracts/proxy/utils/Initializable.sol\":4949:4963  $._initialized */\n      0x00\n      add\n      0x00\n        /* \"lib/openzeppelin-contracts-upgradeable/contracts/proxy/utils/Initializable.sol\":4949:4967  $._initialized = 1 */\n      0x0100\n      exp\n      dup2\n      sload\n      dup2\n      0xffffffffffffffff\n      mul\n      not\n      and\n      swap1\n      dup4\n      0xffffffffffffffff\n      and\n      mul\n      or\n      swap1\n      sstore\n      pop\n        /* \"lib/openzeppelin-contracts-upgradeable/contracts/proxy/utils/Initializable.sol\":4981:4995  isTopLevelCall */\n      dup4\n        /* \"lib/openzeppelin-contracts-upgradeable/contracts/proxy/utils/Initializable.sol\":4977:5044  if (isTopLevelCall) {... */\n      iszero\n      tag_233\n      jumpi\n        /* \"lib/openzeppelin-contracts-upgradeable/contracts/proxy/utils/Initializable.sol\":5029:5033  true */\n      0x01\n        /* \"lib/openzeppelin-contracts-upgradeable/contracts/proxy/utils/Initializable.sol\":5011:5012  $ */\n      dup6\n        /* \"lib/openzeppelin-contracts-upgradeable/contracts/proxy/utils/Initializable.sol\":5011:5026  $._initializing */\n      0x00\n      add\n      0x08\n        /* \"lib/openzeppelin-contracts-upgradeable/contracts/proxy/utils/Initializable.sol\":5011:5033  $._initializing = true */\n      0x0100\n      exp\n      dup2\n      sload\n      dup2\n      0xff\n      mul\n      not\n      and\n      swap1\n      dup4\n      iszero\n      iszero\n      mul\n      or\n      swap1\n      sstore\n      pop\n        /* \"lib/openzeppelin-contracts-upgradeable/contracts/proxy/utils/Initializable.sol\":4977:5044  if (isTopLevelCall) {... */\n    tag_233:\n        /* \"src/CharityRaffle.sol\":1778:1800  __Ownable_init(_owner) */\n      tag_235\n        /* \"src/CharityRaffle.sol\":1793:1799  _owner */\n      dup11\n        /* \"src/CharityRaffle.sol\":1778:1792  __Ownable_init */\n      tag_236\n        /* \"src/CharityRaffle.sol\":1778:1800  __Ownable_init(_owner) */\n      jump\t// in\n    tag_235:\n        /* \"src/CharityRaffle.sol\":1851:1893  0x9DdfaCa8183c41ad55329BdeeD9F6A8d53168B1B */\n      0x9ddfaca8183c41ad55329bdeed9f6a8d53168b1b\n        /* \"src/CharityRaffle.sol\":1810:1826  s_vrfCoordinator */\n      0x00\n      0x00\n        /* \"src/CharityRaffle.sol\":1810:1894  s_vrfCoordinator = IVRFCoordinatorV2Plus(0x9DdfaCa8183c41ad55329BdeeD9F6A8d53168B1B) */\n      0x0100\n      exp\n      dup2\n      sload\n      dup2\n      0xffffffffffffffffffffffffffffffffffffffff\n      mul\n      not\n      and\n      swap1\n      dup4\n      0xffffffffffffffffffffffffffffffffffffffff\n      and\n      mul\n      or\n      swap1\n      sstore\n      pop\n        /* \"src/CharityRaffle.sol\":1918:1929  0.001 ether */\n      0x038d7ea4c68000\n        /* \"src/CharityRaffle.sol\":1904:1915  ticketPrice */\n      0x01\n        /* \"src/CharityRaffle.sol\":1904:1929  ticketPrice = 0.001 ether */\n      dup2\n      swap1\n      sstore\n      pop\n        /* \"src/CharityRaffle.sol\":1954:1955  2 */\n      0x02\n        /* \"src/CharityRaffle.sol\":1939:1951  numOfWinners */\n      dup1\n        /* \"src/CharityRaffle.sol\":1939:1955  numOfWinners = 2 */\n      dup2\n      swap1\n      sstore\n      pop\n        /* \"src/CharityRaffle.sol\":1986:1990  3000 */\n      0x0bb8\n        /* \"src/CharityRaffle.sol\":1965:1983  prizePercentageBPS */\n      0x03\n        /* \"src/CharityRaffle.sol\":1965:1990  prizePercentageBPS = 3000 */\n      dup2\n      swap1\n      sstore\n      pop\n        /* \"src/CharityRaffle.sol\":2049:2063  _charityWallet */\n      dup9\n        /* \"src/CharityRaffle.sol\":2033:2046  charityWallet */\n      0x04\n      0x00\n        /* \"src/CharityRaffle.sol\":2033:2063  charityWallet = _charityWallet */\n      0x0100\n      exp\n      dup2\n      sload\n      dup2\n      0xffffffffffffffffffffffffffffffffffffffff\n      mul\n      not\n      and\n      swap1\n      dup4\n      0xffffffffffffffffffffffffffffffffffffffff\n      and\n      mul\n      or\n      swap1\n      sstore\n      pop\n        /* \"src/CharityRaffle.sol\":2093:2111  _vrfSubscriptionId */\n      dup8\n        /* \"src/CharityRaffle.sol\":2073:2090  vrfSubscriptionId */\n      0x05\n        /* \"src/CharityRaffle.sol\":2073:2111  vrfSubscriptionId = _vrfSubscriptionId */\n      dup2\n      swap1\n      sstore\n      pop\n        /* \"src/CharityRaffle.sol\":2134:2142  _keyHash */\n      dup7\n        /* \"src/CharityRaffle.sol\":2121:2131  vrfKeyHash */\n      0x06\n        /* \"src/CharityRaffle.sol\":2121:2142  vrfKeyHash = _keyHash */\n      dup2\n      swap1\n      sstore\n      pop\n        /* \"src/CharityRaffle.sol\":2165:2176  _merkleRoot */\n      dup6\n        /* \"src/CharityRaffle.sol\":2152:2162  merkleRoot */\n      0x08\n        /* \"src/CharityRaffle.sol\":2152:2176  merkleRoot = _merkleRoot */\n      dup2\n      swap1\n      sstore\n      pop\n        /* \"lib/openzeppelin-contracts-upgradeable/contracts/proxy/utils/Initializable.sol\":5068:5082  isTopLevelCall */\n      dup4\n        /* \"lib/openzeppelin-contracts-upgradeable/contracts/proxy/utils/Initializable.sol\":5064:5165  if (isTopLevelCall) {... */\n      iszero\n      tag_237\n      jumpi\n        /* \"lib/openzeppelin-contracts-upgradeable/contracts/proxy/utils/Initializable.sol\":5116:5121  false */\n      0x00\n        /* \"lib/openzeppelin-contracts-upgradeable/contracts/proxy/utils/Initializable.sol\":5098:5099  $ */\n      dup6\n        /* \"lib/openzeppelin-contracts-upgradeable/contracts/proxy/utils/Initializable.sol\":5098:5113  $._initializing */\n      0x00\n      add\n      0x08\n        /* \"lib/openzeppelin-contracts-upgradeable/contracts/proxy/utils/Initializable.sol\":5098:5121  $._initializing = false */\n      0x0100\n      exp\n      dup2\n      sload\n      dup2\n      0xff\n      mul\n      not\n      and\n      swap1\n      dup4\n      iszero\n      iszero\n      mul\n      or\n      swap1\n      sstore\n      pop\n        /* \"lib/openzeppelin-contracts-upgradeable/contracts/proxy/utils/Initializable.sol\":5140:5154  Initialized(1) */\n      0xc7f505b2f371ae2175ee4913f4499e1f2633a7b5936321eed1cdaeb6115181d2\n        /* \"lib/openzeppelin-contracts-upgradeable/contracts/proxy/utils/Initializable.sol\":5152:5153  1 */\n      0x01\n        /* \"lib/openzeppelin-contracts-upgradeable/contracts/proxy/utils/Initializable.sol\":5140:5154  Initialized(1) */\n      mload(0x40)\n      tag_238\n      swap2\n      swap1\n      tag_239\n      jump\t// in\n    tag_238:\n      mload(0x40)\n      dup1\n      swap2\n      sub\n      swap1\n      log1\n        /* \"lib/openzeppelin-contracts-upgradeable/contracts/proxy/utils/Initializable.sol\":5064:5165  if (isTopLevelCall) {... */\n    tag_237:\n        /* \"lib/openzeppelin-contracts-upgradeable/contracts/proxy/utils/Initializable.sol\":4092:5171  {... */\n      pop\n      pop\n      pop\n      pop\n      pop\n        /* \"src/CharityRaffle.sol\":1576:2183  function initialize(... */\n      pop\n      pop\n      pop\n      pop\n      pop\n      jump\t// out\n        /* \"src/CharityRaffle.sol\":3718:4550  function fulfillRandomWords(uint256 requestId, uint256[] calldata randomWords) internal override {... */\n    tag_143:\n        /* \"src/CharityRaffle.sol\":3846:3858  vrfRequestID */\n      sload(0x07)\n        /* \"src/CharityRaffle.sol\":3833:3842  requestId */\n      dup4\n        /* \"src/CharityRaffle.sol\":3833:3858  requestId == vrfRequestID */\n      eq\n        /* \"src/CharityRaffle.sol\":3825:3877  require(requestId == vrfRequestID, InvalidRequest()) */\n      tag_241\n      jumpi\n      mload(0x40)\n      0x41abc80100000000000000000000000000000000000000000000000000000000\n      dup2\n      mstore\n      0x04\n      add\n      mload(0x40)\n      dup1\n      swap2\n      sub\n      swap1\n      revert\n    tag_241:\n        /* \"src/CharityRaffle.sol\":3917:3929  numOfWinners */\n      sload(0x02)\n        /* \"src/CharityRaffle.sol\":3895:3906  randomWords */\n      dup3\n      dup3\n        /* \"src/CharityRaffle.sol\":3895:3913  randomWords.length */\n      swap1\n      pop\n        /* \"src/CharityRaffle.sol\":3895:3929  randomWords.length == numOfWinners */\n      eq\n        /* \"src/CharityRaffle.sol\":3887:3952  require(randomWords.length == numOfWinners, InvalidRandomWords()) */\n      tag_242\n      jumpi\n      mload(0x40)\n      0x3f3df5b600000000000000000000000000000000000000000000000000000000\n      dup2\n      mstore\n      0x04\n      add\n      mload(0x40)\n      dup1\n      swap2\n      sub\n      swap1\n      revert\n    tag_242:\n        /* \"src/CharityRaffle.sol\":3963:3992  address[] memory winnersArray */\n      0x00\n        /* \"src/CharityRaffle.sol\":4009:4021  numOfWinners */\n      sload(0x02)\n        /* \"src/CharityRaffle.sol\":3995:4022  new address[](numOfWinners) */\n      0xffffffffffffffff\n      dup2\n      gt\n      iszero\n      tag_243\n      jumpi\n      tag_244\n      tag_245\n      jump\t// in\n    tag_244:\n    tag_243:\n      mload(0x40)\n      swap1\n      dup1\n      dup3\n      mstore\n      dup1\n      0x20\n      mul\n      0x20\n      add\n      dup3\n      add\n      0x40\n      mstore\n      dup1\n      iszero\n      tag_246\n      jumpi\n      dup2\n      0x20\n      add\n      0x20\n      dup3\n      mul\n      dup1\n      calldatasize\n      dup4\n      calldatacopy\n      dup1\n      dup3\n      add\n      swap2\n      pop\n      pop\n      swap1\n      pop\n    tag_246:\n      pop\n        /* \"src/CharityRaffle.sol\":3963:4022  address[] memory winnersArray = new address[](numOfWinners) */\n      swap1\n      pop\n        /* \"src/CharityRaffle.sol\":4038:4047  uint256 i */\n      0x00\n        /* \"src/CharityRaffle.sol\":4050:4051  0 */\n      0x00\n        /* \"src/CharityRaffle.sol\":4038:4051  uint256 i = 0 */\n      swap1\n      pop\n        /* \"src/CharityRaffle.sol\":4033:4466  for (uint256 i = 0; i < numOfWinners; i++) {... */\n    tag_247:\n        /* \"src/CharityRaffle.sol\":4057:4069  numOfWinners */\n      sload(0x02)\n        /* \"src/CharityRaffle.sol\":4053:4054  i */\n      dup2\n        /* \"src/CharityRaffle.sol\":4053:4069  i < numOfWinners */\n      lt\n        /* \"src/CharityRaffle.sol\":4033:4466  for (uint256 i = 0; i < numOfWinners; i++) {... */\n      iszero\n      tag_248\n      jumpi\n        /* \"src/CharityRaffle.sol\":4090:4108  uint256 randomWord */\n      0x00\n        /* \"src/CharityRaffle.sol\":4111:4122  randomWords */\n      dup5\n      dup5\n        /* \"src/CharityRaffle.sol\":4123:4124  i */\n      dup4\n        /* \"src/CharityRaffle.sol\":4111:4125  randomWords[i] */\n      dup2\n      dup2\n      lt\n      tag_250\n      jumpi\n      tag_251\n      tag_252\n      jump\t// in\n    tag_251:\n    tag_250:\n      swap1\n      pop\n      0x20\n      mul\n      add\n      calldataload\n        /* \"src/CharityRaffle.sol\":4090:4125  uint256 randomWord = randomWords[i] */\n      swap1\n      pop\n        /* \"src/CharityRaffle.sol\":4140:4456  while (true) {... */\n    tag_253:\n        /* \"src/CharityRaffle.sol\":4147:4151  true */\n      0x01\n        /* \"src/CharityRaffle.sol\":4140:4456  while (true) {... */\n      iszero\n      tag_254\n      jumpi\n        /* \"src/CharityRaffle.sol\":4171:4185  address winner */\n      0x00\n        /* \"src/CharityRaffle.sol\":4188:4200  participants */\n      0x0c\n        /* \"src/CharityRaffle.sol\":4214:4226  participants */\n      dup1\n        /* \"src/CharityRaffle.sol\":4214:4233  participants.length */\n      dup1\n      sload\n      swap1\n      pop\n        /* \"src/CharityRaffle.sol\":4201:4211  randomWord */\n      dup4\n        /* \"src/CharityRaffle.sol\":4201:4233  randomWord % participants.length */\n      tag_255\n      swap2\n      swap1\n      tag_256\n      jump\t// in\n    tag_255:\n        /* \"src/CharityRaffle.sol\":4188:4234  participants[randomWord % participants.length] */\n      dup2\n      sload\n      dup2\n      lt\n      tag_257\n      jumpi\n      tag_258\n      tag_252\n      jump\t// in\n    tag_258:\n    tag_257:\n      swap1\n      0x00\n      mstore\n      keccak256(0x00, 0x20)\n      add\n      0x00\n      swap1\n      sload\n      swap1\n      0x0100\n      exp\n      swap1\n      div\n      0xffffffffffffffffffffffffffffffffffffffff\n      and\n        /* \"src/CharityRaffle.sol\":4171:4234  address winner = participants[randomWord % participants.length] */\n      swap1\n      pop\n        /* \"src/CharityRaffle.sol\":4258:4265  winners */\n      0x0d\n        /* \"src/CharityRaffle.sol\":4258:4273  winners[winner] */\n      0x00\n        /* \"src/CharityRaffle.sol\":4266:4272  winner */\n      dup3\n        /* \"src/CharityRaffle.sol\":4258:4273  winners[winner] */\n      0xffffffffffffffffffffffffffffffffffffffff\n      and\n      0xffffffffffffffffffffffffffffffffffffffff\n      and\n      dup2\n      mstore\n      0x20\n      add\n      swap1\n      dup2\n      mstore\n      0x20\n      add\n      0x00\n      keccak256\n      0x00\n      swap1\n      sload\n      swap1\n      0x0100\n      exp\n      swap1\n      div\n      0xff\n      and\n        /* \"src/CharityRaffle.sol\":4253:4411  if (!winners[winner]) {... */\n      tag_260\n      jumpi\n        /* \"src/CharityRaffle.sol\":4315:4319  true */\n      0x01\n        /* \"src/CharityRaffle.sol\":4297:4304  winners */\n      0x0d\n        /* \"src/CharityRaffle.sol\":4297:4312  winners[winner] */\n      0x00\n        /* \"src/CharityRaffle.sol\":4305:4311  winner */\n      dup4\n        /* \"src/CharityRaffle.sol\":4297:4312  winners[winner] */\n      0xffffffffffffffffffffffffffffffffffffffff\n      and\n      0xffffffffffffffffffffffffffffffffffffffff\n      and\n      dup2\n      mstore\n      0x20\n      add\n      swap1\n      dup2\n      mstore\n      0x20\n      add\n      0x00\n      keccak256\n      0x00\n        /* \"src/CharityRaffle.sol\":4297:4319  winners[winner] = true */\n      0x0100\n      exp\n      dup2\n      sload\n      dup2\n      0xff\n      mul\n      not\n      and\n      swap1\n      dup4\n      iszero\n      iszero\n      mul\n      or\n      swap1\n      sstore\n      pop\n        /* \"src/CharityRaffle.sol\":4359:4365  winner */\n      dup1\n        /* \"src/CharityRaffle.sol\":4341:4353  winnersArray */\n      dup5\n        /* \"src/CharityRaffle.sol\":4354:4355  i */\n      dup5\n        /* \"src/CharityRaffle.sol\":4341:4356  winnersArray[i] */\n      dup2\n      mload\n      dup2\n      lt\n      tag_261\n      jumpi\n      tag_262\n      tag_252\n      jump\t// in\n    tag_262:\n    tag_261:\n      0x20\n      mul\n      0x20\n      add\n      add\n        /* \"src/CharityRaffle.sol\":4341:4365  winnersArray[i] = winner */\n      swap1\n      0xffffffffffffffffffffffffffffffffffffffff\n      and\n      swap1\n      dup2\n      0xffffffffffffffffffffffffffffffffffffffff\n      and\n      dup2\n      mstore\n      pop\n      pop\n        /* \"src/CharityRaffle.sol\":4387:4392  break */\n      pop\n      jump(tag_254)\n        /* \"src/CharityRaffle.sol\":4253:4411  if (!winners[winner]) {... */\n    tag_260:\n        /* \"src/CharityRaffle.sol\":4429:4441  randomWord++ */\n      dup2\n      dup1\n      tag_263\n      swap1\n      tag_264\n      jump\t// in\n    tag_263:\n      swap3\n      pop\n      pop\n        /* \"src/CharityRaffle.sol\":4153:4456  {... */\n      pop\n        /* \"src/CharityRaffle.sol\":4140:4456  while (true) {... */\n      jump(tag_253)\n    tag_254:\n        /* \"src/CharityRaffle.sol\":4076:4466  {... */\n      pop\n        /* \"src/CharityRaffle.sol\":4071:4074  i++ */\n      dup1\n      dup1\n      0x01\n      add\n      swap2\n      pop\n      pop\n        /* \"src/CharityRaffle.sol\":4033:4466  for (uint256 i = 0; i < numOfWinners; i++) {... */\n      jump(tag_247)\n    tag_248:\n      pop\n        /* \"src/CharityRaffle.sol\":4494:4498  true */\n      0x01\n        /* \"src/CharityRaffle.sol\":4476:4491  winnersSelected */\n      0x0b\n      0x00\n        /* \"src/CharityRaffle.sol\":4476:4498  winnersSelected = true */\n      0x0100\n      exp\n      dup2\n      sload\n      dup2\n      0xff\n      mul\n      not\n      and\n      swap1\n      dup4\n      iszero\n      iszero\n      mul\n      or\n      swap1\n      sstore\n      pop\n        /* \"src/CharityRaffle.sol\":4514:4543  WinnersSelected(winnersArray) */\n      0x32a1b5731a757f192a06ca973715ca4dbc42c2d15323cabaa74e0a2d5dc088e4\n        /* \"src/CharityRaffle.sol\":4530:4542  winnersArray */\n      dup2\n        /* \"src/CharityRaffle.sol\":4514:4543  WinnersSelected(winnersArray) */\n      mload(0x40)\n      tag_265\n      swap2\n      swap1\n      tag_266\n      jump\t// in\n    tag_265:\n      mload(0x40)\n      dup1\n      swap2\n      sub\n      swap1\n      log1\n        /* \"src/CharityRaffle.sol\":3815:4550  {... */\n      pop\n        /* \"src/CharityRaffle.sol\":3718:4550  function fulfillRandomWords(uint256 requestId, uint256[] calldata randomWords) internal override {... */\n      pop\n      pop\n      pop\n      jump\t// out\n        /* \"lib/openzeppelin-contracts-upgradeable/contracts/access/OwnableUpgradeable.sol\":2658:2820  function _checkOwner() internal view virtual {... */\n    tag_156:\n        /* \"lib/openzeppelin-contracts-upgradeable/contracts/access/OwnableUpgradeable.sol\":2728:2740  _msgSender() */\n      tag_268\n        /* \"lib/openzeppelin-contracts-upgradeable/contracts/access/OwnableUpgradeable.sol\":2728:2738  _msgSender */\n      tag_269\n        /* \"lib/openzeppelin-contracts-upgradeable/contracts/access/OwnableUpgradeable.sol\":2728:2740  _msgSender() */\n      jump\t// in\n    tag_268:\n        /* \"lib/openzeppelin-contracts-upgradeable/contracts/access/OwnableUpgradeable.sol\":2717:2740  owner() != _msgSender() */\n      0xffffffffffffffffffffffffffffffffffffffff\n      and\n        /* \"lib/openzeppelin-contracts-upgradeable/contracts/access/OwnableUpgradeable.sol\":2717:2724  owner() */\n      tag_270\n        /* \"lib/openzeppelin-contracts-upgradeable/contracts/access/OwnableUpgradeable.sol\":2717:2722  owner */\n      tag_87\n        /* \"lib/openzeppelin-contracts-upgradeable/contracts/access/OwnableUpgradeable.sol\":2717:2724  owner() */\n      jump\t// in\n    tag_270:\n        /* \"lib/openzeppelin-contracts-upgradeable/contracts/access/OwnableUpgradeable.sol\":2717:2740  owner() != _msgSender() */\n      0xffffffffffffffffffffffffffffffffffffffff\n      and\n      eq\n        /* \"lib/openzeppelin-contracts-upgradeable/contracts/access/OwnableUpgradeable.sol\":2713:2814  if (owner() != _msgSender()) {... */\n      tag_271\n      jumpi\n        /* \"lib/openzeppelin-contracts-upgradeable/contracts/access/OwnableUpgradeable.sol\":2790:2802  _msgSender() */\n      tag_272\n        /* \"lib/openzeppelin-contracts-upgradeable/contracts/access/OwnableUpgradeable.sol\":2790:2800  _msgSender */\n      tag_269\n        /* \"lib/openzeppelin-contracts-upgradeable/contracts/access/OwnableUpgradeable.sol\":2790:2802  _msgSender() */\n      jump\t// in\n    tag_272:\n        /* \"lib/openzeppelin-contracts-upgradeable/contracts/access/OwnableUpgradeable.sol\":2763:2803  OwnableUnauthorizedAccount(_msgSender()) */\n      mload(0x40)\n      0x118cdaa700000000000000000000000000000000000000000000000000000000\n      dup2\n      mstore\n      0x04\n      add\n      tag_273\n      swap2\n      swap1\n      tag_56\n      jump\t// in\n    tag_273:\n      mload(0x40)\n      dup1\n      swap2\n      sub\n      swap1\n      revert\n        /* \"lib/openzeppelin-contracts-upgradeable/contracts/access/OwnableUpgradeable.sol\":2713:2814  if (owner() != _msgSender()) {... */\n    tag_271:\n        /* \"lib/openzeppelin-contracts-upgradeable/contracts/access/OwnableUpgradeable.sol\":2658:2820  function _checkOwner() internal view virtual {... */\n      jump\t// out\n        /* \"lib/openzeppelin-contracts-upgradeable/contracts/access/OwnableUpgradeable.sol\":3774:4022  function _transferOwnership(address newOwner) internal virtual {... */\n    tag_159:\n        /* \"lib/openzeppelin-contracts-upgradeable/contracts/access/OwnableUpgradeable.sol\":3847:3871  OwnableStorage storage $ */\n      0x00\n        /* \"lib/openzeppelin-contracts-upgradeable/contracts/access/OwnableUpgradeable.sol\":3874:3894  _getOwnableStorage() */\n      tag_275\n        /* \"lib/openzeppelin-contracts-upgradeable/contracts/access/OwnableUpgradeable.sol\":3874:3892  _getOwnableStorage */\n      tag_276\n        /* \"lib/openzeppelin-contracts-upgradeable/contracts/access/OwnableUpgradeable.sol\":3874:3894  _getOwnableStorage() */\n      jump\t// in\n    tag_275:\n        /* \"lib/openzeppelin-contracts-upgradeable/contracts/access/OwnableUpgradeable.sol\":3847:3894  OwnableStorage storage $ = _getOwnableStorage() */\n      swap1\n      pop\n        /* \"lib/openzeppelin-contracts-upgradeable/contracts/access/OwnableUpgradeable.sol\":3904:3920  address oldOwner */\n      0x00\n        /* \"lib/openzeppelin-contracts-upgradeable/contracts/access/OwnableUpgradeable.sol\":3923:3924  $ */\n      dup2\n        /* \"lib/openzeppelin-contracts-upgradeable/contracts/access/OwnableUpgradeable.sol\":3923:3931  $._owner */\n      0x00\n      add\n      0x00\n      swap1\n      sload\n      swap1\n      0x0100\n      exp\n      swap1\n      div\n      0xffffffffffffffffffffffffffffffffffffffff\n      and\n        /* \"lib/openzeppelin-contracts-upgradeable/contracts/access/OwnableUpgradeable.sol\":3904:3931  address oldOwner = $._owner */\n      swap1\n      pop\n        /* \"lib/openzeppelin-contracts-upgradeable/contracts/access/OwnableUpgradeable.sol\":3952:3960  newOwner */\n      dup3\n        /* \"lib/openzeppelin-contracts-upgradeable/contracts/access/OwnableUpgradeable.sol\":3941:3942  $ */\n      dup3\n        /* \"lib/openzeppelin-contracts-upgradeable/contracts/access/OwnableUpgradeable.sol\":3941:3949  $._owner */\n      0x00\n      add\n      0x00\n        /* \"lib/openzeppelin-contracts-upgradeable/contracts/access/OwnableUpgradeable.sol\":3941:3960  $._owner = newOwner */\n      0x0100\n      exp\n      dup2\n      sload\n      dup2\n      0xffffffffffffffffffffffffffffffffffffffff\n      mul\n      not\n      and\n      swap1\n      dup4\n      0xffffffffffffffffffffffffffffffffffffffff\n      and\n      mul\n      or\n      swap1\n      sstore\n      pop\n        /* \"lib/openzeppelin-contracts-upgradeable/contracts/access/OwnableUpgradeable.sol\":4006:4014  newOwner */\n      dup3\n        /* \"lib/openzeppelin-contracts-upgradeable/contracts/access/OwnableUpgradeable.sol\":3975:4015  OwnershipTransferred(oldOwner, newOwner) */\n      0xffffffffffffffffffffffffffffffffffffffff\n      and\n        /* \"lib/openzeppelin-contracts-upgradeable/contracts/access/OwnableUpgradeable.sol\":3996:4004  oldOwner */\n      dup2\n        /* \"lib/openzeppelin-contracts-upgradeable/contracts/access/OwnableUpgradeable.sol\":3975:4015  OwnershipTransferred(oldOwner, newOwner) */\n      0xffffffffffffffffffffffffffffffffffffffff\n      and\n      0x8be0079c531659141344cd1fd0a4f28419497f9722a3daafe3b4186f6b6457e0\n      mload(0x40)\n      mload(0x40)\n      dup1\n      swap2\n      sub\n      swap1\n      log3\n        /* \"lib/openzeppelin-contracts-upgradeable/contracts/access/OwnableUpgradeable.sol\":3837:4022  {... */\n      pop\n      pop\n        /* \"lib/openzeppelin-contracts-upgradeable/contracts/access/OwnableUpgradeable.sol\":3774:4022  function _transferOwnership(address newOwner) internal virtual {... */\n      pop\n      jump\t// out\n        /* \"lib/openzeppelin-contracts/contracts/utils/cryptography/MerkleProof.sol\":1902:2056  function verify(bytes32[] memory proof, bytes32 root, bytes32 leaf) internal pure returns (bool) {... */\n    tag_179:\n        /* \"lib/openzeppelin-contracts/contracts/utils/cryptography/MerkleProof.sol\":1993:1997  bool */\n      0x00\n        /* \"lib/openzeppelin-contracts/contracts/utils/cryptography/MerkleProof.sol\":2045:2049  root */\n      dup3\n        /* \"lib/openzeppelin-contracts/contracts/utils/cryptography/MerkleProof.sol\":2016:2041  processProof(proof, leaf) */\n      tag_278\n        /* \"lib/openzeppelin-contracts/contracts/utils/cryptography/MerkleProof.sol\":2029:2034  proof */\n      dup6\n        /* \"lib/openzeppelin-contracts/contracts/utils/cryptography/MerkleProof.sol\":2036:2040  leaf */\n      dup5\n        /* \"lib/openzeppelin-contracts/contracts/utils/cryptography/MerkleProof.sol\":2016:2028  processProof */\n      tag_279\n        /* \"lib/openzeppelin-contracts/contracts/utils/cryptography/MerkleProof.sol\":2016:2041  processProof(proof, leaf) */\n      jump\t// in\n    tag_278:\n        /* \"lib/openzeppelin-contracts/contracts/utils/cryptography/MerkleProof.sol\":2016:2049  processProof(proof, leaf) == root */\n      eq\n        /* \"lib/openzeppelin-contracts/contracts/utils/cryptography/MerkleProof.sol\":2009:2049  return processProof(proof, leaf) == root */\n      swap1\n      pop\n        /* \"lib/openzeppelin-contracts/contracts/utils/cryptography/MerkleProof.sol\":1902:2056  function verify(bytes32[] memory proof, bytes32 root, bytes32 leaf) internal pure returns (bool) {... */\n      swap4\n      swap3\n      pop\n      pop\n      pop\n      jump\t// out\n        /* \"lib/openzeppelin-contracts-upgradeable/contracts/access/OwnableUpgradeable.sol\":2441:2585  function owner() public view virtual returns (address) {... */\n    tag_188:\n        /* \"lib/openzeppelin-contracts-upgradeable/contracts/access/OwnableUpgradeable.sol\":2487:2494  address */\n      0x00\n        /* \"lib/openzeppelin-contracts-upgradeable/contracts/access/OwnableUpgradeable.sol\":2506:2530  OwnableStorage storage $ */\n      0x00\n        /* \"lib/openzeppelin-contracts-upgradeable/contracts/access/OwnableUpgradeable.sol\":2533:2553  _getOwnableStorage() */\n      tag_281\n        /* \"lib/openzeppelin-contracts-upgradeable/contracts/access/OwnableUpgradeable.sol\":2533:2551  _getOwnableStorage */\n      tag_276\n        /* \"lib/openzeppelin-contracts-upgradeable/contracts/access/OwnableUpgradeable.sol\":2533:2553  _getOwnableStorage() */\n      jump\t// in\n    tag_281:\n        /* \"lib/openzeppelin-contracts-upgradeable/contracts/access/OwnableUpgradeable.sol\":2506:2553  OwnableStorage storage $ = _getOwnableStorage() */\n      swap1\n      pop\n        /* \"lib/openzeppelin-contracts-upgradeable/contracts/access/OwnableUpgradeable.sol\":2570:2571  $ */\n      dup1\n        /* \"lib/openzeppelin-contracts-upgradeable/contracts/access/OwnableUpgradeable.sol\":2570:2578  $._owner */\n      0x00\n      add\n      0x00\n      swap1\n      sload\n      swap1\n      0x0100\n      exp\n      swap1\n      div\n      0xffffffffffffffffffffffffffffffffffffffff\n      and\n        /* \"lib/openzeppelin-contracts-upgradeable/contracts/access/OwnableUpgradeable.sol\":2563:2578  return $._owner */\n      swap2\n      pop\n      pop\n        /* \"lib/openzeppelin-contracts-upgradeable/contracts/access/OwnableUpgradeable.sol\":2441:2585  function owner() public view virtual returns (address) {... */\n      swap1\n      jump\t// out\n        /* \"lib/chainlink-brownie-contracts/contracts/src/v0.8/vrf/dev/libraries/VRFV2PlusClient.sol\":475:638  function _argsToBytes(ExtraArgsV1 memory extraArgs) internal pure returns (bytes memory bts) {... */\n    tag_204:\n        /* \"lib/chainlink-brownie-contracts/contracts/src/v0.8/vrf/dev/libraries/VRFV2PlusClient.sol\":550:566  bytes memory bts */\n      0x60\n        /* \"lib/chainlink-brownie-contracts/contracts/src/v0.8/vrf/dev/libraries/VRFV2PlusClient.sol\":211:239  keccak256(\"VRF ExtraArgsV1\") */\n      0x92fd13387c7fe7befbc38d303d6468778fb9731bc4583f17d92989c6fcfdeaaa\n        /* \"lib/chainlink-brownie-contracts/contracts/src/v0.8/vrf/dev/libraries/VRFV2PlusClient.sol\":623:632  extraArgs */\n      dup3\n        /* \"lib/chainlink-brownie-contracts/contracts/src/v0.8/vrf/dev/libraries/VRFV2PlusClient.sol\":581:633  abi.encodeWithSelector(EXTRA_ARGS_V1_TAG, extraArgs) */\n      add(0x24, mload(0x40))\n      tag_283\n      swap2\n      swap1\n      tag_284\n      jump\t// in\n    tag_283:\n      mload(0x40)\n      0x20\n      dup2\n      dup4\n      sub\n      sub\n      dup2\n      mstore\n      swap1\n      0x40\n      mstore\n      swap1\n      not(0xffffffffffffffffffffffffffffffffffffffffffffffffffffffff)\n      and\n      0x20\n      dup3\n      add\n      dup1\n      mload\n      0xffffffffffffffffffffffffffffffffffffffffffffffffffffffff\n      dup4\n      dup2\n      dup4\n      and\n      or\n      dup4\n      mstore\n      pop\n      pop\n      pop\n      pop\n        /* \"lib/chainlink-brownie-contracts/contracts/src/v0.8/vrf/dev/libraries/VRFV2PlusClient.sol\":574:633  return abi.encodeWithSelector(EXTRA_ARGS_V1_TAG, extraArgs) */\n      swap1\n      pop\n        /* \"lib/chainlink-brownie-contracts/contracts/src/v0.8/vrf/dev/libraries/VRFV2PlusClient.sol\":475:638  function _argsToBytes(ExtraArgsV1 memory extraArgs) internal pure returns (bytes memory bts) {... */\n      swap2\n      swap1\n      pop\n      jump\t// out\n        /* \"lib/openzeppelin-contracts-upgradeable/contracts/proxy/utils/Initializable.sol\":9071:9276  function _getInitializableStorage() private pure returns (InitializableStorage storage $) {... */\n    tag_228:\n        /* \"lib/openzeppelin-contracts-upgradeable/contracts/proxy/utils/Initializable.sol\":9129:9159  InitializableStorage storage $ */\n      0x00\n        /* \"lib/openzeppelin-contracts-upgradeable/contracts/proxy/utils/Initializable.sol\":9171:9183  bytes32 slot */\n      0x00\n        /* \"lib/openzeppelin-contracts-upgradeable/contracts/proxy/utils/Initializable.sol\":9186:9213  _initializableStorageSlot() */\n      tag_286\n        /* \"lib/openzeppelin-contracts-upgradeable/contracts/proxy/utils/Initializable.sol\":9186:9211  _initializableStorageSlot */\n      tag_287\n        /* \"lib/openzeppelin-contracts-upgradeable/contracts/proxy/utils/Initializable.sol\":9186:9213  _initializableStorageSlot() */\n      jump\t// in\n    tag_286:\n        /* \"lib/openzeppelin-contracts-upgradeable/contracts/proxy/utils/Initializable.sol\":9171:9213  bytes32 slot = _initializableStorageSlot() */\n      swap1\n      pop\n        /* \"lib/openzeppelin-contracts-upgradeable/contracts/proxy/utils/Initializable.sol\":9256:9260  slot */\n      dup1\n        /* \"lib/openzeppelin-contracts-upgradeable/contracts/proxy/utils/Initializable.sol\":9246:9260  $.slot := slot */\n      swap2\n      pop\n        /* \"lib/openzeppelin-contracts-upgradeable/contracts/proxy/utils/Initializable.sol\":9232:9270  {... */\n      pop\n        /* \"lib/openzeppelin-contracts-upgradeable/contracts/proxy/utils/Initializable.sol\":9071:9276  function _getInitializableStorage() private pure returns (InitializableStorage storage $) {... */\n      swap1\n      jump\t// out\n        /* \"lib/openzeppelin-contracts-upgradeable/contracts/access/OwnableUpgradeable.sol\":1847:1974  function __Ownable_init(address initialOwner) internal onlyInitializing {... */\n    tag_236:\n        /* \"lib/openzeppelin-contracts-upgradeable/contracts/proxy/utils/Initializable.sol\":6929:6949  _checkInitializing() */\n      tag_289\n        /* \"lib/openzeppelin-contracts-upgradeable/contracts/proxy/utils/Initializable.sol\":6929:6947  _checkInitializing */\n      tag_290\n        /* \"lib/openzeppelin-contracts-upgradeable/contracts/proxy/utils/Initializable.sol\":6929:6949  _checkInitializing() */\n      jump\t// in\n    tag_289:\n        /* \"lib/openzeppelin-contracts-upgradeable/contracts/access/OwnableUpgradeable.sol\":1929:1967  __Ownable_init_unchained(initialOwner) */\n      tag_292\n        /* \"lib/openzeppelin-contracts-upgradeable/contracts/access/OwnableUpgradeable.sol\":1954:1966  initialOwner */\n      dup2\n        /* \"lib/openzeppelin-contracts-upgradeable/contracts/access/OwnableUpgradeable.sol\":1929:1953  __Ownable_init_unchained */\n      tag_293\n        /* \"lib/openzeppelin-contracts-upgradeable/contracts/access/OwnableUpgradeable.sol\":1929:1967  __Ownable_init_unchained(initialOwner) */\n      jump\t// in\n    tag_292:\n        /* \"lib/openzeppelin-contracts-upgradeable/contracts/access/OwnableUpgradeable.sol\":1847:1974  function __Ownable_init(address initialOwner) internal onlyInitializing {... */\n      pop\n      jump\t// out\n        /* \"lib/openzeppelin-contracts-upgradeable/contracts/utils/ContextUpgradeable.sol\":887:983  function _msgSender() internal view virtual returns (address) {... */\n    tag_269:\n        /* \"lib/openzeppelin-contracts-upgradeable/contracts/utils/ContextUpgradeable.sol\":940:947  address */\n      0x00\n        /* \"lib/openzeppelin-contracts-upgradeable/contracts/utils/ContextUpgradeable.sol\":966:976  msg.sender */\n      caller\n        /* \"lib/openzeppelin-contracts-upgradeable/contracts/utils/ContextUpgradeable.sol\":959:976  return msg.sender */\n      swap1\n      pop\n        /* \"lib/openzeppelin-contracts-upgradeable/contracts/utils/ContextUpgradeable.sol\":887:983  function _msgSender() internal view virtual returns (address) {... */\n      swap1\n      jump\t// out\n        /* \"lib/openzeppelin-contracts-upgradeable/contracts/access/OwnableUpgradeable.sol\":1192:1351  function _getOwnableStorage() private pure returns (OwnableStorage storage $) {... */\n    tag_276:\n        /* \"lib/openzeppelin-contracts-upgradeable/contracts/access/OwnableUpgradeable.sol\":1244:1268  OwnableStorage storage $ */\n      0x00\n        /* \"lib/openzeppelin-contracts-upgradeable/contracts/access/OwnableUpgradeable.sol\":1313:1335  OwnableStorageLocation */\n      0x9016d09d72d40fdae2fd8ceac6b6234c7706214fd39c1cd1e609a0528c199300\n        /* \"lib/openzeppelin-contracts-upgradeable/contracts/access/OwnableUpgradeable.sol\":1303:1335  $.slot := OwnableStorageLocation */\n      swap1\n      pop\n        /* \"lib/openzeppelin-contracts-upgradeable/contracts/access/OwnableUpgradeable.sol\":1192:1351  function _getOwnableStorage() private pure returns (OwnableStorage storage $) {... */\n      swap1\n      jump\t// out\n        /* \"lib/openzeppelin-contracts/contracts/utils/cryptography/MerkleProof.sol\":2457:2765  function processProof(bytes32[] memory proof, bytes32 leaf) internal pure returns (bytes32) {... */\n    tag_279:\n        /* \"lib/openzeppelin-contracts/contracts/utils/cryptography/MerkleProof.sol\":2540:2547  bytes32 */\n      0x00\n        /* \"lib/openzeppelin-contracts/contracts/utils/cryptography/MerkleProof.sol\":2559:2579  bytes32 computedHash */\n      0x00\n        /* \"lib/openzeppelin-contracts/contracts/utils/cryptography/MerkleProof.sol\":2582:2586  leaf */\n      dup3\n        /* \"lib/openzeppelin-contracts/contracts/utils/cryptography/MerkleProof.sol\":2559:2586  bytes32 computedHash = leaf */\n      swap1\n      pop\n        /* \"lib/openzeppelin-contracts/contracts/utils/cryptography/MerkleProof.sol\":2601:2610  uint256 i */\n      0x00\n        /* \"lib/openzeppelin-contracts/contracts/utils/cryptography/MerkleProof.sol\":2613:2614  0 */\n      0x00\n        /* \"lib/openzeppelin-contracts/contracts/utils/cryptography/MerkleProof.sol\":2601:2614  uint256 i = 0 */\n      swap1\n      pop\n        /* \"lib/openzeppelin-contracts/contracts/utils/cryptography/MerkleProof.sol\":2596:2730  for (uint256 i = 0; i < proof.length; i++) {... */\n    tag_297:\n        /* \"lib/openzeppelin-contracts/contracts/utils/cryptography/MerkleProof.sol\":2620:2625  proof */\n      dup5\n        /* \"lib/openzeppelin-contracts/contracts/utils/cryptography/MerkleProof.sol\":2620:2632  proof.length */\n      mload\n        /* \"lib/openzeppelin-contracts/contracts/utils/cryptography/MerkleProof.sol\":2616:2617  i */\n      dup2\n        /* \"lib/openzeppelin-contracts/contracts/utils/cryptography/MerkleProof.sol\":2616:2632  i < proof.length */\n      lt\n        /* \"lib/openzeppelin-contracts/contracts/utils/cryptography/MerkleProof.sol\":2596:2730  for (uint256 i = 0; i < proof.length; i++) {... */\n      iszero\n      tag_298\n      jumpi\n        /* \"lib/openzeppelin-contracts/contracts/utils/cryptography/MerkleProof.sol\":2668:2719  Hashes.commutativeKeccak256(computedHash, proof[i]) */\n      tag_300\n        /* \"lib/openzeppelin-contracts/contracts/utils/cryptography/MerkleProof.sol\":2696:2708  computedHash */\n      dup3\n        /* \"lib/openzeppelin-contracts/contracts/utils/cryptography/MerkleProof.sol\":2710:2715  proof */\n      dup7\n        /* \"lib/openzeppelin-contracts/contracts/utils/cryptography/MerkleProof.sol\":2716:2717  i */\n      dup4\n        /* \"lib/openzeppelin-contracts/contracts/utils/cryptography/MerkleProof.sol\":2710:2718  proof[i] */\n      dup2\n      mload\n      dup2\n      lt\n      tag_301\n      jumpi\n      tag_302\n      tag_252\n      jump\t// in\n    tag_302:\n    tag_301:\n      0x20\n      mul\n      0x20\n      add\n      add\n      mload\n        /* \"lib/openzeppelin-contracts/contracts/utils/cryptography/MerkleProof.sol\":2668:2695  Hashes.commutativeKeccak256 */\n      tag_303\n        /* \"lib/openzeppelin-contracts/contracts/utils/cryptography/MerkleProof.sol\":2668:2719  Hashes.commutativeKeccak256(computedHash, proof[i]) */\n      jump\t// in\n    tag_300:\n        /* \"lib/openzeppelin-contracts/contracts/utils/cryptography/MerkleProof.sol\":2653:2719  computedHash = Hashes.commutativeKeccak256(computedHash, proof[i]) */\n      swap2\n      pop\n        /* \"lib/openzeppelin-contracts/contracts/utils/cryptography/MerkleProof.sol\":2634:2637  i++ */\n      dup1\n      dup1\n      0x01\n      add\n      swap2\n      pop\n      pop\n        /* \"lib/openzeppelin-contracts/contracts/utils/cryptography/MerkleProof.sol\":2596:2730  for (uint256 i = 0; i < proof.length; i++) {... */\n      jump(tag_297)\n    tag_298:\n      pop\n        /* \"lib/openzeppelin-contracts/contracts/utils/cryptography/MerkleProof.sol\":2746:2758  computedHash */\n      dup1\n        /* \"lib/openzeppelin-contracts/contracts/utils/cryptography/MerkleProof.sol\":2739:2758  return computedHash */\n      swap2\n      pop\n      pop\n        /* \"lib/openzeppelin-contracts/contracts/utils/cryptography/MerkleProof.sol\":2457:2765  function processProof(bytes32[] memory proof, bytes32 leaf) internal pure returns (bytes32) {... */\n      swap3\n      swap2\n      pop\n      pop\n      jump\t// out\n        /* \"lib/openzeppelin-contracts-upgradeable/contracts/proxy/utils/Initializable.sol\":8819:8941  function _initializableStorageSlot() internal pure virtual returns (bytes32) {... */\n    tag_287:\n        /* \"lib/openzeppelin-contracts-upgradeable/contracts/proxy/utils/Initializable.sol\":8887:8894  bytes32 */\n      0x00\n        /* \"lib/openzeppelin-contracts-upgradeable/contracts/proxy/utils/Initializable.sol\":3147:3213  0xf0c57e16840df040f15088dc2f81fe391c3923bec73e23a9662efc9c229c6a00 */\n      0xf0c57e16840df040f15088dc2f81fe391c3923bec73e23a9662efc9c229c6a00\n        /* \"lib/openzeppelin-contracts-upgradeable/contracts/proxy/utils/Initializable.sol\":8913:8934  INITIALIZABLE_STORAGE */\n      0x00\n      shl\n        /* \"lib/openzeppelin-contracts-upgradeable/contracts/proxy/utils/Initializable.sol\":8906:8934  return INITIALIZABLE_STORAGE */\n      swap1\n      pop\n        /* \"lib/openzeppelin-contracts-upgradeable/contracts/proxy/utils/Initializable.sol\":8819:8941  function _initializableStorageSlot() internal pure virtual returns (bytes32) {... */\n      swap1\n      jump\t// out\n        /* \"lib/openzeppelin-contracts-upgradeable/contracts/proxy/utils/Initializable.sol\":7082:7223  function _checkInitializing() internal view virtual {... */\n    tag_290:\n        /* \"lib/openzeppelin-contracts-upgradeable/contracts/proxy/utils/Initializable.sol\":7149:7166  _isInitializing() */\n      tag_306\n        /* \"lib/openzeppelin-contracts-upgradeable/contracts/proxy/utils/Initializable.sol\":7149:7164  _isInitializing */\n      tag_307\n        /* \"lib/openzeppelin-contracts-upgradeable/contracts/proxy/utils/Initializable.sol\":7149:7166  _isInitializing() */\n      jump\t// in\n    tag_306:\n        /* \"lib/openzeppelin-contracts-upgradeable/contracts/proxy/utils/Initializable.sol\":7144:7217  if (!_isInitializing()) {... */\n      tag_308\n      jumpi\n        /* \"lib/openzeppelin-contracts-upgradeable/contracts/proxy/utils/Initializable.sol\":7189:7206  NotInitializing() */\n      mload(0x40)\n      0xd7e6bcf800000000000000000000000000000000000000000000000000000000\n      dup2\n      mstore\n      0x04\n      add\n      mload(0x40)\n      dup1\n      swap2\n      sub\n      swap1\n      revert\n        /* \"lib/openzeppelin-contracts-upgradeable/contracts/proxy/utils/Initializable.sol\":7144:7217  if (!_isInitializing()) {... */\n    tag_308:\n        /* \"lib/openzeppelin-contracts-upgradeable/contracts/proxy/utils/Initializable.sol\":7082:7223  function _checkInitializing() internal view virtual {... */\n      jump\t// out\n        /* \"lib/openzeppelin-contracts-upgradeable/contracts/access/OwnableUpgradeable.sol\":1980:2215  function __Ownable_init_unchained(address initialOwner) internal onlyInitializing {... */\n    tag_293:\n        /* \"lib/openzeppelin-contracts-upgradeable/contracts/proxy/utils/Initializable.sol\":6929:6949  _checkInitializing() */\n      tag_310\n        /* \"lib/openzeppelin-contracts-upgradeable/contracts/proxy/utils/Initializable.sol\":6929:6947  _checkInitializing */\n      tag_290\n        /* \"lib/openzeppelin-contracts-upgradeable/contracts/proxy/utils/Initializable.sol\":6929:6949  _checkInitializing() */\n      jump\t// in\n    tag_310:\n        /* \"lib/openzeppelin-contracts-upgradeable/contracts/access/OwnableUpgradeable.sol\":2100:2101  0 */\n      0x00\n        /* \"lib/openzeppelin-contracts-upgradeable/contracts/access/OwnableUpgradeable.sol\":2076:2102  initialOwner == address(0) */\n      0xffffffffffffffffffffffffffffffffffffffff\n      and\n        /* \"lib/openzeppelin-contracts-upgradeable/contracts/access/OwnableUpgradeable.sol\":2076:2088  initialOwner */\n      dup2\n        /* \"lib/openzeppelin-contracts-upgradeable/contracts/access/OwnableUpgradeable.sol\":2076:2102  initialOwner == address(0) */\n      0xffffffffffffffffffffffffffffffffffffffff\n      and\n      sub\n        /* \"lib/openzeppelin-contracts-upgradeable/contracts/access/OwnableUpgradeable.sol\":2072:2167  if (initialOwner == address(0)) {... */\n      tag_312\n      jumpi\n        /* \"lib/openzeppelin-contracts-upgradeable/contracts/access/OwnableUpgradeable.sol\":2153:2154  0 */\n      0x00\n        /* \"lib/openzeppelin-contracts-upgradeable/contracts/access/OwnableUpgradeable.sol\":2125:2156  OwnableInvalidOwner(address(0)) */\n      mload(0x40)\n      0x1e4fbdf700000000000000000000000000000000000000000000000000000000\n      dup2\n      mstore\n      0x04\n      add\n      tag_313\n      swap2\n      swap1\n      tag_56\n      jump\t// in\n    tag_313:\n      mload(0x40)\n      dup1\n      swap2\n      sub\n      swap1\n      revert\n        /* \"lib/openzeppelin-contracts-upgradeable/contracts/access/OwnableUpgradeable.sol\":2072:2167  if (initialOwner == address(0)) {... */\n    tag_312:\n        /* \"lib/openzeppelin-contracts-upgradeable/contracts/access/OwnableUpgradeable.sol\":2176:2208  _transferOwnership(initialOwner) */\n      tag_314\n        /* \"lib/openzeppelin-contracts-upgradeable/contracts/access/OwnableUpgradeable.sol\":2195:2207  initialOwner */\n      dup2\n        /* \"lib/openzeppelin-contracts-upgradeable/contracts/access/OwnableUpgradeable.sol\":2176:2194  _transferOwnership */\n      tag_159\n        /* \"lib/openzeppelin-contracts-upgradeable/contracts/access/OwnableUpgradeable.sol\":2176:2208  _transferOwnership(initialOwner) */\n      jump\t// in\n    tag_314:\n        /* \"lib/openzeppelin-contracts-upgradeable/contracts/access/OwnableUpgradeable.sol\":1980:2215  function __Ownable_init_unchained(address initialOwner) internal onlyInitializing {... */\n      pop\n      jump\t// out\n        /* \"lib/openzeppelin-contracts/contracts/utils/cryptography/Hashes.sol\":504:671  function commutativeKeccak256(bytes32 a, bytes32 b) internal pure returns (bytes32) {... */\n    tag_303:\n        /* \"lib/openzeppelin-contracts/contracts/utils/cryptography/Hashes.sol\":579:586  bytes32 */\n      0x00\n        /* \"lib/openzeppelin-contracts/contracts/utils/cryptography/Hashes.sol\":609:610  b */\n      dup2\n        /* \"lib/openzeppelin-contracts/contracts/utils/cryptography/Hashes.sol\":605:606  a */\n      dup4\n        /* \"lib/openzeppelin-contracts/contracts/utils/cryptography/Hashes.sol\":605:610  a < b */\n      lt\n        /* \"lib/openzeppelin-contracts/contracts/utils/cryptography/Hashes.sol\":605:664  a < b ? efficientKeccak256(a, b) : efficientKeccak256(b, a) */\n      tag_316\n      jumpi\n        /* \"lib/openzeppelin-contracts/contracts/utils/cryptography/Hashes.sol\":640:664  efficientKeccak256(b, a) */\n      tag_317\n        /* \"lib/openzeppelin-contracts/contracts/utils/cryptography/Hashes.sol\":659:660  b */\n      dup3\n        /* \"lib/openzeppelin-contracts/contracts/utils/cryptography/Hashes.sol\":662:663  a */\n      dup5\n        /* \"lib/openzeppelin-contracts/contracts/utils/cryptography/Hashes.sol\":640:658  efficientKeccak256 */\n      tag_318\n        /* \"lib/openzeppelin-contracts/contracts/utils/cryptography/Hashes.sol\":640:664  efficientKeccak256(b, a) */\n      jump\t// in\n    tag_317:\n        /* \"lib/openzeppelin-contracts/contracts/utils/cryptography/Hashes.sol\":605:664  a < b ? efficientKeccak256(a, b) : efficientKeccak256(b, a) */\n      jump(tag_319)\n    tag_316:\n        /* \"lib/openzeppelin-contracts/contracts/utils/cryptography/Hashes.sol\":613:637  efficientKeccak256(a, b) */\n      tag_320\n        /* \"lib/openzeppelin-contracts/contracts/utils/cryptography/Hashes.sol\":632:633  a */\n      dup4\n        /* \"lib/openzeppelin-contracts/contracts/utils/cryptography/Hashes.sol\":635:636  b */\n      dup4\n        /* \"lib/openzeppelin-contracts/contracts/utils/cryptography/Hashes.sol\":613:631  efficientKeccak256 */\n      tag_318\n        /* \"lib/openzeppelin-contracts/contracts/utils/cryptography/Hashes.sol\":613:637  efficientKeccak256(a, b) */\n      jump\t// in\n    tag_320:\n        /* \"lib/openzeppelin-contracts/contracts/utils/cryptography/Hashes.sol\":605:664  a < b ? efficientKeccak256(a, b) : efficientKeccak256(b, a) */\n    tag_319:\n        /* \"lib/openzeppelin-contracts/contracts/utils/cryptography/Hashes.sol\":598:664  return a < b ? efficientKeccak256(a, b) : efficientKeccak256(b, a) */\n      swap1\n      pop\n        /* \"lib/openzeppelin-contracts/contracts/utils/cryptography/Hashes.sol\":504:671  function commutativeKeccak256(bytes32 a, bytes32 b) internal pure returns (bytes32) {... */\n      swap3\n      swap2\n      pop\n      pop\n      jump\t// out\n        /* \"lib/openzeppelin-contracts-upgradeable/contracts/proxy/utils/Initializable.sol\":8485:8605  function _isInitializing() internal view returns (bool) {... */\n    tag_307:\n        /* \"lib/openzeppelin-contracts-upgradeable/contracts/proxy/utils/Initializable.sol\":8535:8539  bool */\n      0x00\n        /* \"lib/openzeppelin-contracts-upgradeable/contracts/proxy/utils/Initializable.sol\":8558:8584  _getInitializableStorage() */\n      tag_322\n        /* \"lib/openzeppelin-contracts-upgradeable/contracts/proxy/utils/Initializable.sol\":8558:8582  _getInitializableStorage */\n      tag_228\n        /* \"lib/openzeppelin-contracts-upgradeable/contracts/proxy/utils/Initializable.sol\":8558:8584  _getInitializableStorage() */\n      jump\t// in\n    tag_322:\n        /* \"lib/openzeppelin-contracts-upgradeable/contracts/proxy/utils/Initializable.sol\":8558:8598  _getInitializableStorage()._initializing */\n      0x00\n      add\n      0x08\n      swap1\n      sload\n      swap1\n      0x0100\n      exp\n      swap1\n      div\n      0xff\n      and\n        /* \"lib/openzeppelin-contracts-upgradeable/contracts/proxy/utils/Initializable.sol\":8551:8598  return _getInitializableStorage()._initializing */\n      swap1\n      pop\n        /* \"lib/openzeppelin-contracts-upgradeable/contracts/proxy/utils/Initializable.sol\":8485:8605  function _isInitializing() internal view returns (bool) {... */\n      swap1\n      jump\t// out\n        /* \"lib/openzeppelin-contracts/contracts/utils/cryptography/Hashes.sol\":791:1030  function efficientKeccak256(bytes32 a, bytes32 b) internal pure returns (bytes32 value) {... */\n    tag_318:\n        /* \"lib/openzeppelin-contracts/contracts/utils/cryptography/Hashes.sol\":864:877  bytes32 value */\n      0x00\n        /* \"lib/openzeppelin-contracts/contracts/utils/cryptography/Hashes.sol\":941:942  a */\n      dup3\n        /* \"lib/openzeppelin-contracts/contracts/utils/cryptography/Hashes.sol\":935:939  0x00 */\n      0x00\n        /* \"lib/openzeppelin-contracts/contracts/utils/cryptography/Hashes.sol\":928:943  mstore(0x00, a) */\n      mstore\n        /* \"lib/openzeppelin-contracts/contracts/utils/cryptography/Hashes.sol\":969:970  b */\n      dup2\n        /* \"lib/openzeppelin-contracts/contracts/utils/cryptography/Hashes.sol\":963:967  0x20 */\n      0x20\n        /* \"lib/openzeppelin-contracts/contracts/utils/cryptography/Hashes.sol\":956:971  mstore(0x20, b) */\n      mstore\n        /* \"lib/openzeppelin-contracts/contracts/utils/cryptography/Hashes.sol\":1009:1013  0x40 */\n      0x40\n        /* \"lib/openzeppelin-contracts/contracts/utils/cryptography/Hashes.sol\":1003:1007  0x00 */\n      0x00\n        /* \"lib/openzeppelin-contracts/contracts/utils/cryptography/Hashes.sol\":993:1014  keccak256(0x00, 0x40) */\n      keccak256\n        /* \"lib/openzeppelin-contracts/contracts/utils/cryptography/Hashes.sol\":984:1014  value := keccak256(0x00, 0x40) */\n      swap1\n      pop\n        /* \"lib/openzeppelin-contracts/contracts/utils/cryptography/Hashes.sol\":791:1030  function efficientKeccak256(bytes32 a, bytes32 b) internal pure returns (bytes32 value) {... */\n      swap3\n      swap2\n      pop\n      pop\n      jump\t// out\n        /* \"#utility.yul\":7:84   */\n    tag_324:\n        /* \"#utility.yul\":44:51   */\n      0x00\n        /* \"#utility.yul\":73:78   */\n      dup2\n        /* \"#utility.yul\":62:78   */\n      swap1\n      pop\n        /* \"#utility.yul\":7:84   */\n      swap2\n      swap1\n      pop\n      jump\t// out\n        /* \"#utility.yul\":90:208   */\n    tag_325:\n        /* \"#utility.yul\":177:201   */\n      tag_392\n        /* \"#utility.yul\":195:200   */\n      dup2\n        /* \"#utility.yul\":177:201   */\n      tag_324\n      jump\t// in\n    tag_392:\n        /* \"#utility.yul\":172:175   */\n      dup3\n        /* \"#utility.yul\":165:202   */\n      mstore\n        /* \"#utility.yul\":90:208   */\n      pop\n      pop\n      jump\t// out\n        /* \"#utility.yul\":214:436   */\n    tag_35:\n        /* \"#utility.yul\":307:311   */\n      0x00\n        /* \"#utility.yul\":345:347   */\n      0x20\n        /* \"#utility.yul\":334:343   */\n      dup3\n        /* \"#utility.yul\":330:348   */\n      add\n        /* \"#utility.yul\":322:348   */\n      swap1\n      pop\n        /* \"#utility.yul\":358:429   */\n      tag_394\n        /* \"#utility.yul\":426:427   */\n      0x00\n        /* \"#utility.yul\":415:424   */\n      dup4\n        /* \"#utility.yul\":411:428   */\n      add\n        /* \"#utility.yul\":402:408   */\n      dup5\n        /* \"#utility.yul\":358:429   */\n      tag_325\n      jump\t// in\n    tag_394:\n        /* \"#utility.yul\":214:436   */\n      swap3\n      swap2\n      pop\n      pop\n      jump\t// out\n        /* \"#utility.yul\":442:519   */\n    tag_326:\n        /* \"#utility.yul\":479:486   */\n      0x00\n        /* \"#utility.yul\":508:513   */\n      dup2\n        /* \"#utility.yul\":497:513   */\n      swap1\n      pop\n        /* \"#utility.yul\":442:519   */\n      swap2\n      swap1\n      pop\n      jump\t// out\n        /* \"#utility.yul\":525:643   */\n    tag_327:\n        /* \"#utility.yul\":612:636   */\n      tag_397\n        /* \"#utility.yul\":630:635   */\n      dup2\n        /* \"#utility.yul\":612:636   */\n      tag_326\n      jump\t// in\n    tag_397:\n        /* \"#utility.yul\":607:610   */\n      dup3\n        /* \"#utility.yul\":600:637   */\n      mstore\n        /* \"#utility.yul\":525:643   */\n      pop\n      pop\n      jump\t// out\n        /* \"#utility.yul\":649:871   */\n    tag_40:\n        /* \"#utility.yul\":742:746   */\n      0x00\n        /* \"#utility.yul\":780:782   */\n      0x20\n        /* \"#utility.yul\":769:778   */\n      dup3\n        /* \"#utility.yul\":765:783   */\n      add\n        /* \"#utility.yul\":757:783   */\n      swap1\n      pop\n        /* \"#utility.yul\":793:864   */\n      tag_399\n        /* \"#utility.yul\":861:862   */\n      0x00\n        /* \"#utility.yul\":850:859   */\n      dup4\n        /* \"#utility.yul\":846:863   */\n      add\n        /* \"#utility.yul\":837:843   */\n      dup5\n        /* \"#utility.yul\":793:864   */\n      tag_327\n      jump\t// in\n    tag_399:\n        /* \"#utility.yul\":649:871   */\n      swap3\n      swap2\n      pop\n      pop\n      jump\t// out\n        /* \"#utility.yul\":877:952   */\n    tag_328:\n        /* \"#utility.yul\":910:916   */\n      0x00\n        /* \"#utility.yul\":943:945   */\n      0x40\n        /* \"#utility.yul\":937:946   */\n      mload\n        /* \"#utility.yul\":927:946   */\n      swap1\n      pop\n        /* \"#utility.yul\":877:952   */\n      swap1\n      jump\t// out\n        /* \"#utility.yul\":958:1075   */\n    tag_329:\n        /* \"#utility.yul\":1067:1068   */\n      0x00\n        /* \"#utility.yul\":1064:1065   */\n      0x00\n        /* \"#utility.yul\":1057:1069   */\n      revert\n        /* \"#utility.yul\":1081:1198   */\n    tag_330:\n        /* \"#utility.yul\":1190:1191   */\n      0x00\n        /* \"#utility.yul\":1187:1188   */\n      0x00\n        /* \"#utility.yul\":1180:1192   */\n      revert\n        /* \"#utility.yul\":1204:1326   */\n    tag_331:\n        /* \"#utility.yul\":1277:1301   */\n      tag_404\n        /* \"#utility.yul\":1295:1300   */\n      dup2\n        /* \"#utility.yul\":1277:1301   */\n      tag_326\n      jump\t// in\n    tag_404:\n        /* \"#utility.yul\":1270:1275   */\n      dup2\n        /* \"#utility.yul\":1267:1302   */\n      eq\n        /* \"#utility.yul\":1257:1320   */\n      tag_405\n      jumpi\n        /* \"#utility.yul\":1316:1317   */\n      0x00\n        /* \"#utility.yul\":1313:1314   */\n      0x00\n        /* \"#utility.yul\":1306:1318   */\n      revert\n        /* \"#utility.yul\":1257:1320   */\n    tag_405:\n        /* \"#utility.yul\":1204:1326   */\n      pop\n      jump\t// out\n        /* \"#utility.yul\":1332:1471   */\n    tag_332:\n        /* \"#utility.yul\":1378:1383   */\n      0x00\n        /* \"#utility.yul\":1416:1422   */\n      dup2\n        /* \"#utility.yul\":1403:1423   */\n      calldataload\n        /* \"#utility.yul\":1394:1423   */\n      swap1\n      pop\n        /* \"#utility.yul\":1432:1465   */\n      tag_407\n        /* \"#utility.yul\":1459:1464   */\n      dup2\n        /* \"#utility.yul\":1432:1465   */\n      tag_331\n      jump\t// in\n    tag_407:\n        /* \"#utility.yul\":1332:1471   */\n      swap3\n      swap2\n      pop\n      pop\n      jump\t// out\n        /* \"#utility.yul\":1477:1594   */\n    tag_333:\n        /* \"#utility.yul\":1586:1587   */\n      0x00\n        /* \"#utility.yul\":1583:1584   */\n      0x00\n        /* \"#utility.yul\":1576:1588   */\n      revert\n        /* \"#utility.yul\":1600:1717   */\n    tag_334:\n        /* \"#utility.yul\":1709:1710   */\n      0x00\n        /* \"#utility.yul\":1706:1707   */\n      0x00\n        /* \"#utility.yul\":1699:1711   */\n      revert\n        /* \"#utility.yul\":1723:1840   */\n    tag_335:\n        /* \"#utility.yul\":1832:1833   */\n      0x00\n        /* \"#utility.yul\":1829:1830   */\n      0x00\n        /* \"#utility.yul\":1822:1834   */\n      revert\n        /* \"#utility.yul\":1863:2431   */\n    tag_336:\n        /* \"#utility.yul\":1936:1944   */\n      0x00\n        /* \"#utility.yul\":1946:1952   */\n      0x00\n        /* \"#utility.yul\":1996:1999   */\n      dup4\n        /* \"#utility.yul\":1989:1993   */\n      0x1f\n        /* \"#utility.yul\":1981:1987   */\n      dup5\n        /* \"#utility.yul\":1977:1994   */\n      add\n        /* \"#utility.yul\":1973:2000   */\n      slt\n        /* \"#utility.yul\":1963:2085   */\n      tag_412\n      jumpi\n        /* \"#utility.yul\":2004:2083   */\n      tag_413\n      tag_333\n      jump\t// in\n    tag_413:\n        /* \"#utility.yul\":1963:2085   */\n    tag_412:\n        /* \"#utility.yul\":2117:2123   */\n      dup3\n        /* \"#utility.yul\":2104:2124   */\n      calldataload\n        /* \"#utility.yul\":2094:2124   */\n      swap1\n      pop\n        /* \"#utility.yul\":2147:2165   */\n      0xffffffffffffffff\n        /* \"#utility.yul\":2139:2145   */\n      dup2\n        /* \"#utility.yul\":2136:2166   */\n      gt\n        /* \"#utility.yul\":2133:2250   */\n      iszero\n      tag_414\n      jumpi\n        /* \"#utility.yul\":2169:2248   */\n      tag_415\n      tag_334\n      jump\t// in\n    tag_415:\n        /* \"#utility.yul\":2133:2250   */\n    tag_414:\n        /* \"#utility.yul\":2283:2287   */\n      0x20\n        /* \"#utility.yul\":2275:2281   */\n      dup4\n        /* \"#utility.yul\":2271:2288   */\n      add\n        /* \"#utility.yul\":2259:2288   */\n      swap2\n      pop\n        /* \"#utility.yul\":2337:2340   */\n      dup4\n        /* \"#utility.yul\":2329:2333   */\n      0x20\n        /* \"#utility.yul\":2321:2327   */\n      dup3\n        /* \"#utility.yul\":2317:2334   */\n      mul\n        /* \"#utility.yul\":2307:2315   */\n      dup4\n        /* \"#utility.yul\":2303:2335   */\n      add\n        /* \"#utility.yul\":2300:2341   */\n      gt\n        /* \"#utility.yul\":2297:2425   */\n      iszero\n      tag_416\n      jumpi\n        /* \"#utility.yul\":2344:2423   */\n      tag_417\n      tag_335\n      jump\t// in\n    tag_417:\n        /* \"#utility.yul\":2297:2425   */\n    tag_416:\n        /* \"#utility.yul\":1863:2431   */\n      swap3\n      pop\n      swap3\n      swap1\n      pop\n      jump\t// out\n        /* \"#utility.yul\":2437:3141   */\n    tag_44:\n        /* \"#utility.yul\":2532:2538   */\n      0x00\n        /* \"#utility.yul\":2540:2546   */\n      0x00\n        /* \"#utility.yul\":2548:2554   */\n      0x00\n        /* \"#utility.yul\":2597:2599   */\n      0x40\n        /* \"#utility.yul\":2585:2594   */\n      dup5\n        /* \"#utility.yul\":2576:2583   */\n      dup7\n        /* \"#utility.yul\":2572:2595   */\n      sub\n        /* \"#utility.yul\":2568:2600   */\n      slt\n        /* \"#utility.yul\":2565:2684   */\n      iszero\n      tag_419\n      jumpi\n        /* \"#utility.yul\":2603:2682   */\n      tag_420\n      tag_329\n      jump\t// in\n    tag_420:\n        /* \"#utility.yul\":2565:2684   */\n    tag_419:\n        /* \"#utility.yul\":2723:2724   */\n      0x00\n        /* \"#utility.yul\":2748:2801   */\n      tag_421\n        /* \"#utility.yul\":2793:2800   */\n      dup7\n        /* \"#utility.yul\":2784:2790   */\n      dup3\n        /* \"#utility.yul\":2773:2782   */\n      dup8\n        /* \"#utility.yul\":2769:2791   */\n      add\n        /* \"#utility.yul\":2748:2801   */\n      tag_332\n      jump\t// in\n    tag_421:\n        /* \"#utility.yul\":2738:2801   */\n      swap4\n      pop\n        /* \"#utility.yul\":2694:2811   */\n      pop\n        /* \"#utility.yul\":2878:2880   */\n      0x20\n        /* \"#utility.yul\":2867:2876   */\n      dup5\n        /* \"#utility.yul\":2863:2881   */\n      add\n        /* \"#utility.yul\":2850:2882   */\n      calldataload\n        /* \"#utility.yul\":2909:2927   */\n      0xffffffffffffffff\n        /* \"#utility.yul\":2901:2907   */\n      dup2\n        /* \"#utility.yul\":2898:2928   */\n      gt\n        /* \"#utility.yul\":2895:3012   */\n      iszero\n      tag_422\n      jumpi\n        /* \"#utility.yul\":2931:3010   */\n      tag_423\n      tag_330\n      jump\t// in\n    tag_423:\n        /* \"#utility.yul\":2895:3012   */\n    tag_422:\n        /* \"#utility.yul\":3044:3124   */\n      tag_424\n        /* \"#utility.yul\":3116:3123   */\n      dup7\n        /* \"#utility.yul\":3107:3113   */\n      dup3\n        /* \"#utility.yul\":3096:3105   */\n      dup8\n        /* \"#utility.yul\":3092:3114   */\n      add\n        /* \"#utility.yul\":3044:3124   */\n      tag_336\n      jump\t// in\n    tag_424:\n        /* \"#utility.yul\":3026:3124   */\n      swap3\n      pop\n      swap3\n      pop\n        /* \"#utility.yul\":2821:3134   */\n      pop\n        /* \"#utility.yul\":2437:3141   */\n      swap3\n      pop\n      swap3\n      pop\n      swap3\n      jump\t// out\n        /* \"#utility.yul\":3147:3476   */\n    tag_53:\n        /* \"#utility.yul\":3206:3212   */\n      0x00\n        /* \"#utility.yul\":3255:3257   */\n      0x20\n        /* \"#utility.yul\":3243:3252   */\n      dup3\n        /* \"#utility.yul\":3234:3241   */\n      dup5\n        /* \"#utility.yul\":3230:3253   */\n      sub\n        /* \"#utility.yul\":3226:3258   */\n      slt\n        /* \"#utility.yul\":3223:3342   */\n      iszero\n      tag_426\n      jumpi\n        /* \"#utility.yul\":3261:3340   */\n      tag_427\n      tag_329\n      jump\t// in\n    tag_427:\n        /* \"#utility.yul\":3223:3342   */\n    tag_426:\n        /* \"#utility.yul\":3381:3382   */\n      0x00\n        /* \"#utility.yul\":3406:3459   */\n      tag_428\n        /* \"#utility.yul\":3451:3458   */\n      dup5\n        /* \"#utility.yul\":3442:3448   */\n      dup3\n        /* \"#utility.yul\":3431:3440   */\n      dup6\n        /* \"#utility.yul\":3427:3449   */\n      add\n        /* \"#utility.yul\":3406:3459   */\n      tag_332\n      jump\t// in\n    tag_428:\n        /* \"#utility.yul\":3396:3459   */\n      swap2\n      pop\n        /* \"#utility.yul\":3352:3469   */\n      pop\n        /* \"#utility.yul\":3147:3476   */\n      swap3\n      swap2\n      pop\n      pop\n      jump\t// out\n        /* \"#utility.yul\":3482:3608   */\n    tag_337:\n        /* \"#utility.yul\":3519:3526   */\n      0x00\n        /* \"#utility.yul\":3559:3601   */\n      0xffffffffffffffffffffffffffffffffffffffff\n        /* \"#utility.yul\":3552:3557   */\n      dup3\n        /* \"#utility.yul\":3548:3602   */\n      and\n        /* \"#utility.yul\":3537:3602   */\n      swap1\n      pop\n        /* \"#utility.yul\":3482:3608   */\n      swap2\n      swap1\n      pop\n      jump\t// out\n        /* \"#utility.yul\":3614:3710   */\n    tag_338:\n        /* \"#utility.yul\":3651:3658   */\n      0x00\n        /* \"#utility.yul\":3680:3704   */\n      tag_431\n        /* \"#utility.yul\":3698:3703   */\n      dup3\n        /* \"#utility.yul\":3680:3704   */\n      tag_337\n      jump\t// in\n    tag_431:\n        /* \"#utility.yul\":3669:3704   */\n      swap1\n      pop\n        /* \"#utility.yul\":3614:3710   */\n      swap2\n      swap1\n      pop\n      jump\t// out\n        /* \"#utility.yul\":3716:3834   */\n    tag_339:\n        /* \"#utility.yul\":3803:3827   */\n      tag_433\n        /* \"#utility.yul\":3821:3826   */\n      dup2\n        /* \"#utility.yul\":3803:3827   */\n      tag_338\n      jump\t// in\n    tag_433:\n        /* \"#utility.yul\":3798:3801   */\n      dup3\n        /* \"#utility.yul\":3791:3828   */\n      mstore\n        /* \"#utility.yul\":3716:3834   */\n      pop\n      pop\n      jump\t// out\n        /* \"#utility.yul\":3840:4062   */\n    tag_56:\n        /* \"#utility.yul\":3933:3937   */\n      0x00\n        /* \"#utility.yul\":3971:3973   */\n      0x20\n        /* \"#utility.yul\":3960:3969   */\n      dup3\n        /* \"#utility.yul\":3956:3974   */\n      add\n        /* \"#utility.yul\":3948:3974   */\n      swap1\n      pop\n        /* \"#utility.yul\":3984:4055   */\n      tag_435\n        /* \"#utility.yul\":4052:4053   */\n      0x00\n        /* \"#utility.yul\":4041:4050   */\n      dup4\n        /* \"#utility.yul\":4037:4054   */\n      add\n        /* \"#utility.yul\":4028:4034   */\n      dup5\n        /* \"#utility.yul\":3984:4055   */\n      tag_339\n      jump\t// in\n    tag_435:\n        /* \"#utility.yul\":3840:4062   */\n      swap3\n      swap2\n      pop\n      pop\n      jump\t// out\n        /* \"#utility.yul\":4068:4190   */\n    tag_340:\n        /* \"#utility.yul\":4141:4165   */\n      tag_437\n        /* \"#utility.yul\":4159:4164   */\n      dup2\n        /* \"#utility.yul\":4141:4165   */\n      tag_338\n      jump\t// in\n    tag_437:\n        /* \"#utility.yul\":4134:4139   */\n      dup2\n        /* \"#utility.yul\":4131:4166   */\n      eq\n        /* \"#utility.yul\":4121:4184   */\n      tag_438\n      jumpi\n        /* \"#utility.yul\":4180:4181   */\n      0x00\n        /* \"#utility.yul\":4177:4178   */\n      0x00\n        /* \"#utility.yul\":4170:4182   */\n      revert\n        /* \"#utility.yul\":4121:4184   */\n    tag_438:\n        /* \"#utility.yul\":4068:4190   */\n      pop\n      jump\t// out\n        /* \"#utility.yul\":4196:4335   */\n    tag_341:\n        /* \"#utility.yul\":4242:4247   */\n      0x00\n        /* \"#utility.yul\":4280:4286   */\n      dup2\n        /* \"#utility.yul\":4267:4287   */\n      calldataload\n        /* \"#utility.yul\":4258:4287   */\n      swap1\n      pop\n        /* \"#utility.yul\":4296:4329   */\n      tag_440\n        /* \"#utility.yul\":4323:4328   */\n      dup2\n        /* \"#utility.yul\":4296:4329   */\n      tag_340\n      jump\t// in\n    tag_440:\n        /* \"#utility.yul\":4196:4335   */\n      swap3\n      swap2\n      pop\n      pop\n      jump\t// out\n        /* \"#utility.yul\":4341:4670   */\n    tag_60:\n        /* \"#utility.yul\":4400:4406   */\n      0x00\n        /* \"#utility.yul\":4449:4451   */\n      0x20\n        /* \"#utility.yul\":4437:4446   */\n      dup3\n        /* \"#utility.yul\":4428:4435   */\n      dup5\n        /* \"#utility.yul\":4424:4447   */\n      sub\n        /* \"#utility.yul\":4420:4452   */\n      slt\n        /* \"#utility.yul\":4417:4536   */\n      iszero\n      tag_442\n      jumpi\n        /* \"#utility.yul\":4455:4534   */\n      tag_443\n      tag_329\n      jump\t// in\n    tag_443:\n        /* \"#utility.yul\":4417:4536   */\n    tag_442:\n        /* \"#utility.yul\":4575:4576   */\n      0x00\n        /* \"#utility.yul\":4600:4653   */\n      tag_444\n        /* \"#utility.yul\":4645:4652   */\n      dup5\n        /* \"#utility.yul\":4636:4642   */\n      dup3\n        /* \"#utility.yul\":4625:4634   */\n      dup6\n        /* \"#utility.yul\":4621:4643   */\n      add\n        /* \"#utility.yul\":4600:4653   */\n      tag_341\n      jump\t// in\n    tag_444:\n        /* \"#utility.yul\":4590:4653   */\n      swap2\n      pop\n        /* \"#utility.yul\":4546:4663   */\n      pop\n        /* \"#utility.yul\":4341:4670   */\n      swap3\n      swap2\n      pop\n      pop\n      jump\t// out\n        /* \"#utility.yul\":4676:4766   */\n    tag_342:\n        /* \"#utility.yul\":4710:4717   */\n      0x00\n        /* \"#utility.yul\":4753:4758   */\n      dup2\n        /* \"#utility.yul\":4746:4759   */\n      iszero\n        /* \"#utility.yul\":4739:4760   */\n      iszero\n        /* \"#utility.yul\":4728:4760   */\n      swap1\n      pop\n        /* \"#utility.yul\":4676:4766   */\n      swap2\n      swap1\n      pop\n      jump\t// out\n        /* \"#utility.yul\":4772:4881   */\n    tag_343:\n        /* \"#utility.yul\":4853:4874   */\n      tag_447\n        /* \"#utility.yul\":4868:4873   */\n      dup2\n        /* \"#utility.yul\":4853:4874   */\n      tag_342\n      jump\t// in\n    tag_447:\n        /* \"#utility.yul\":4848:4851   */\n      dup3\n        /* \"#utility.yul\":4841:4875   */\n      mstore\n        /* \"#utility.yul\":4772:4881   */\n      pop\n      pop\n      jump\t// out\n        /* \"#utility.yul\":4887:5097   */\n    tag_63:\n        /* \"#utility.yul\":4974:4978   */\n      0x00\n        /* \"#utility.yul\":5012:5014   */\n      0x20\n        /* \"#utility.yul\":5001:5010   */\n      dup3\n        /* \"#utility.yul\":4997:5015   */\n      add\n        /* \"#utility.yul\":4989:5015   */\n      swap1\n      pop\n        /* \"#utility.yul\":5025:5090   */\n      tag_449\n        /* \"#utility.yul\":5087:5088   */\n      0x00\n        /* \"#utility.yul\":5076:5085   */\n      dup4\n        /* \"#utility.yul\":5072:5089   */\n      add\n        /* \"#utility.yul\":5063:5069   */\n      dup5\n        /* \"#utility.yul\":5025:5090   */\n      tag_343\n      jump\t// in\n    tag_449:\n        /* \"#utility.yul\":4887:5097   */\n      swap3\n      swap2\n      pop\n      pop\n      jump\t// out\n        /* \"#utility.yul\":5103:5205   */\n    tag_344:\n        /* \"#utility.yul\":5144:5150   */\n      0x00\n        /* \"#utility.yul\":5195:5197   */\n      0x1f\n        /* \"#utility.yul\":5191:5198   */\n      not\n        /* \"#utility.yul\":5186:5188   */\n      0x1f\n        /* \"#utility.yul\":5179:5184   */\n      dup4\n        /* \"#utility.yul\":5175:5189   */\n      add\n        /* \"#utility.yul\":5171:5199   */\n      and\n        /* \"#utility.yul\":5161:5199   */\n      swap1\n      pop\n        /* \"#utility.yul\":5103:5205   */\n      swap2\n      swap1\n      pop\n      jump\t// out\n        /* \"#utility.yul\":5211:5391   */\n    tag_245:\n        /* \"#utility.yul\":5259:5336   */\n      0x4e487b7100000000000000000000000000000000000000000000000000000000\n        /* \"#utility.yul\":5256:5257   */\n      0x00\n        /* \"#utility.yul\":5249:5337   */\n      mstore\n        /* \"#utility.yul\":5356:5360   */\n      0x41\n        /* \"#utility.yul\":5353:5354   */\n      0x04\n        /* \"#utility.yul\":5346:5361   */\n      mstore\n        /* \"#utility.yul\":5380:5384   */\n      0x24\n        /* \"#utility.yul\":5377:5378   */\n      0x00\n        /* \"#utility.yul\":5370:5385   */\n      revert\n        /* \"#utility.yul\":5397:5678   */\n    tag_345:\n        /* \"#utility.yul\":5480:5507   */\n      tag_453\n        /* \"#utility.yul\":5502:5506   */\n      dup3\n        /* \"#utility.yul\":5480:5507   */\n      tag_344\n      jump\t// in\n    tag_453:\n        /* \"#utility.yul\":5472:5478   */\n      dup2\n        /* \"#utility.yul\":5468:5508   */\n      add\n        /* \"#utility.yul\":5610:5616   */\n      dup2\n        /* \"#utility.yul\":5598:5608   */\n      dup2\n        /* \"#utility.yul\":5595:5617   */\n      lt\n        /* \"#utility.yul\":5574:5592   */\n      0xffffffffffffffff\n        /* \"#utility.yul\":5562:5572   */\n      dup3\n        /* \"#utility.yul\":5559:5593   */\n      gt\n        /* \"#utility.yul\":5556:5618   */\n      or\n        /* \"#utility.yul\":5553:5641   */\n      iszero\n      tag_454\n      jumpi\n        /* \"#utility.yul\":5621:5639   */\n      tag_455\n      tag_245\n      jump\t// in\n    tag_455:\n        /* \"#utility.yul\":5553:5641   */\n    tag_454:\n        /* \"#utility.yul\":5661:5671   */\n      dup1\n        /* \"#utility.yul\":5657:5659   */\n      0x40\n        /* \"#utility.yul\":5650:5672   */\n      mstore\n        /* \"#utility.yul\":5440:5678   */\n      pop\n        /* \"#utility.yul\":5397:5678   */\n      pop\n      pop\n      jump\t// out\n        /* \"#utility.yul\":5684:5813   */\n    tag_346:\n        /* \"#utility.yul\":5718:5724   */\n      0x00\n        /* \"#utility.yul\":5745:5765   */\n      tag_457\n      tag_328\n      jump\t// in\n    tag_457:\n        /* \"#utility.yul\":5735:5765   */\n      swap1\n      pop\n        /* \"#utility.yul\":5774:5807   */\n      tag_458\n        /* \"#utility.yul\":5802:5806   */\n      dup3\n        /* \"#utility.yul\":5794:5800   */\n      dup3\n        /* \"#utility.yul\":5774:5807   */\n      tag_345\n      jump\t// in\n    tag_458:\n        /* \"#utility.yul\":5684:5813   */\n      swap2\n      swap1\n      pop\n      jump\t// out\n        /* \"#utility.yul\":5819:6130   */\n    tag_347:\n        /* \"#utility.yul\":5896:5900   */\n      0x00\n        /* \"#utility.yul\":5986:6004   */\n      0xffffffffffffffff\n        /* \"#utility.yul\":5978:5984   */\n      dup3\n        /* \"#utility.yul\":5975:6005   */\n      gt\n        /* \"#utility.yul\":5972:6028   */\n      iszero\n      tag_460\n      jumpi\n        /* \"#utility.yul\":6008:6026   */\n      tag_461\n      tag_245\n      jump\t// in\n    tag_461:\n        /* \"#utility.yul\":5972:6028   */\n    tag_460:\n        /* \"#utility.yul\":6058:6062   */\n      0x20\n        /* \"#utility.yul\":6050:6056   */\n      dup3\n        /* \"#utility.yul\":6046:6063   */\n      mul\n        /* \"#utility.yul\":6038:6063   */\n      swap1\n      pop\n        /* \"#utility.yul\":6118:6122   */\n      0x20\n        /* \"#utility.yul\":6112:6116   */\n      dup2\n        /* \"#utility.yul\":6108:6123   */\n      add\n        /* \"#utility.yul\":6100:6123   */\n      swap1\n      pop\n        /* \"#utility.yul\":5819:6130   */\n      swap2\n      swap1\n      pop\n      jump\t// out\n        /* \"#utility.yul\":6136:6258   */\n    tag_348:\n        /* \"#utility.yul\":6209:6233   */\n      tag_463\n        /* \"#utility.yul\":6227:6232   */\n      dup2\n        /* \"#utility.yul\":6209:6233   */\n      tag_324\n      jump\t// in\n    tag_463:\n        /* \"#utility.yul\":6202:6207   */\n      dup2\n        /* \"#utility.yul\":6199:6234   */\n      eq\n        /* \"#utility.yul\":6189:6252   */\n      tag_464\n      jumpi\n        /* \"#utility.yul\":6248:6249   */\n      0x00\n        /* \"#utility.yul\":6245:6246   */\n      0x00\n        /* \"#utility.yul\":6238:6250   */\n      revert\n        /* \"#utility.yul\":6189:6252   */\n    tag_464:\n        /* \"#utility.yul\":6136:6258   */\n      pop\n      jump\t// out\n        /* \"#utility.yul\":6264:6403   */\n    tag_349:\n        /* \"#utility.yul\":6310:6315   */\n      0x00\n        /* \"#utility.yul\":6348:6354   */\n      dup2\n        /* \"#utility.yul\":6335:6355   */\n      calldataload\n        /* \"#utility.yul\":6326:6355   */\n      swap1\n      pop\n        /* \"#utility.yul\":6364:6397   */\n      tag_466\n        /* \"#utility.yul\":6391:6396   */\n      dup2\n        /* \"#utility.yul\":6364:6397   */\n      tag_348\n      jump\t// in\n    tag_466:\n        /* \"#utility.yul\":6264:6403   */\n      swap3\n      swap2\n      pop\n      pop\n      jump\t// out\n        /* \"#utility.yul\":6426:7136   */\n    tag_350:\n        /* \"#utility.yul\":6522:6527   */\n      0x00\n        /* \"#utility.yul\":6547:6628   */\n      tag_468\n        /* \"#utility.yul\":6563:6627   */\n      tag_469\n        /* \"#utility.yul\":6620:6626   */\n      dup5\n        /* \"#utility.yul\":6563:6627   */\n      tag_347\n      jump\t// in\n    tag_469:\n        /* \"#utility.yul\":6547:6628   */\n      tag_346\n      jump\t// in\n    tag_468:\n        /* \"#utility.yul\":6538:6628   */\n      swap1\n      pop\n        /* \"#utility.yul\":6648:6653   */\n      dup1\n        /* \"#utility.yul\":6677:6683   */\n      dup4\n        /* \"#utility.yul\":6670:6675   */\n      dup3\n        /* \"#utility.yul\":6663:6684   */\n      mstore\n        /* \"#utility.yul\":6711:6715   */\n      0x20\n        /* \"#utility.yul\":6704:6709   */\n      dup3\n        /* \"#utility.yul\":6700:6716   */\n      add\n        /* \"#utility.yul\":6693:6716   */\n      swap1\n      pop\n        /* \"#utility.yul\":6764:6768   */\n      0x20\n        /* \"#utility.yul\":6756:6762   */\n      dup5\n        /* \"#utility.yul\":6752:6769   */\n      mul\n        /* \"#utility.yul\":6744:6750   */\n      dup4\n        /* \"#utility.yul\":6740:6770   */\n      add\n        /* \"#utility.yul\":6793:6796   */\n      dup6\n        /* \"#utility.yul\":6785:6791   */\n      dup2\n        /* \"#utility.yul\":6782:6797   */\n      gt\n        /* \"#utility.yul\":6779:6901   */\n      iszero\n      tag_470\n      jumpi\n        /* \"#utility.yul\":6812:6891   */\n      tag_471\n      tag_335\n      jump\t// in\n    tag_471:\n        /* \"#utility.yul\":6779:6901   */\n    tag_470:\n        /* \"#utility.yul\":6927:6933   */\n      dup4\n        /* \"#utility.yul\":6910:7130   */\n    tag_472:\n        /* \"#utility.yul\":6944:6950   */\n      dup2\n        /* \"#utility.yul\":6939:6942   */\n      dup2\n        /* \"#utility.yul\":6936:6951   */\n      lt\n        /* \"#utility.yul\":6910:7130   */\n      iszero\n      tag_474\n      jumpi\n        /* \"#utility.yul\":7019:7022   */\n      dup1\n        /* \"#utility.yul\":7048:7085   */\n      tag_475\n        /* \"#utility.yul\":7081:7084   */\n      dup9\n        /* \"#utility.yul\":7069:7079   */\n      dup3\n        /* \"#utility.yul\":7048:7085   */\n      tag_349\n      jump\t// in\n    tag_475:\n        /* \"#utility.yul\":7043:7046   */\n      dup5\n        /* \"#utility.yul\":7036:7086   */\n      mstore\n        /* \"#utility.yul\":7115:7119   */\n      0x20\n        /* \"#utility.yul\":7110:7113   */\n      dup5\n        /* \"#utility.yul\":7106:7120   */\n      add\n        /* \"#utility.yul\":7099:7120   */\n      swap4\n      pop\n        /* \"#utility.yul\":6986:7130   */\n      pop\n        /* \"#utility.yul\":6970:6974   */\n      0x20\n        /* \"#utility.yul\":6965:6968   */\n      dup2\n        /* \"#utility.yul\":6961:6975   */\n      add\n        /* \"#utility.yul\":6954:6975   */\n      swap1\n      pop\n        /* \"#utility.yul\":6910:7130   */\n      jump(tag_472)\n    tag_474:\n        /* \"#utility.yul\":6914:6935   */\n      pop\n        /* \"#utility.yul\":6528:7136   */\n      pop\n      pop\n        /* \"#utility.yul\":6426:7136   */\n      swap4\n      swap3\n      pop\n      pop\n      pop\n      jump\t// out\n        /* \"#utility.yul\":7159:7529   */\n    tag_351:\n        /* \"#utility.yul\":7230:7235   */\n      0x00\n        /* \"#utility.yul\":7279:7282   */\n      dup3\n        /* \"#utility.yul\":7272:7276   */\n      0x1f\n        /* \"#utility.yul\":7264:7270   */\n      dup4\n        /* \"#utility.yul\":7260:7277   */\n      add\n        /* \"#utility.yul\":7256:7283   */\n      slt\n        /* \"#utility.yul\":7246:7368   */\n      tag_477\n      jumpi\n        /* \"#utility.yul\":7287:7366   */\n      tag_478\n      tag_333\n      jump\t// in\n    tag_478:\n        /* \"#utility.yul\":7246:7368   */\n    tag_477:\n        /* \"#utility.yul\":7404:7410   */\n      dup2\n        /* \"#utility.yul\":7391:7411   */\n      calldataload\n        /* \"#utility.yul\":7429:7523   */\n      tag_479\n        /* \"#utility.yul\":7519:7522   */\n      dup5\n        /* \"#utility.yul\":7511:7517   */\n      dup3\n        /* \"#utility.yul\":7504:7508   */\n      0x20\n        /* \"#utility.yul\":7496:7502   */\n      dup7\n        /* \"#utility.yul\":7492:7509   */\n      add\n        /* \"#utility.yul\":7429:7523   */\n      tag_350\n      jump\t// in\n    tag_479:\n        /* \"#utility.yul\":7420:7523   */\n      swap2\n      pop\n        /* \"#utility.yul\":7236:7529   */\n      pop\n        /* \"#utility.yul\":7159:7529   */\n      swap3\n      swap2\n      pop\n      pop\n      jump\t// out\n        /* \"#utility.yul\":7535:8219   */\n    tag_79:\n        /* \"#utility.yul\":7628:7634   */\n      0x00\n        /* \"#utility.yul\":7636:7642   */\n      0x00\n        /* \"#utility.yul\":7685:7687   */\n      0x40\n        /* \"#utility.yul\":7673:7682   */\n      dup4\n        /* \"#utility.yul\":7664:7671   */\n      dup6\n        /* \"#utility.yul\":7660:7683   */\n      sub\n        /* \"#utility.yul\":7656:7688   */\n      slt\n        /* \"#utility.yul\":7653:7772   */\n      iszero\n      tag_481\n      jumpi\n        /* \"#utility.yul\":7691:7770   */\n      tag_482\n      tag_329\n      jump\t// in\n    tag_482:\n        /* \"#utility.yul\":7653:7772   */\n    tag_481:\n        /* \"#utility.yul\":7811:7812   */\n      0x00\n        /* \"#utility.yul\":7836:7889   */\n      tag_483\n        /* \"#utility.yul\":7881:7888   */\n      dup6\n        /* \"#utility.yul\":7872:7878   */\n      dup3\n        /* \"#utility.yul\":7861:7870   */\n      dup7\n        /* \"#utility.yul\":7857:7879   */\n      add\n        /* \"#utility.yul\":7836:7889   */\n      tag_332\n      jump\t// in\n    tag_483:\n        /* \"#utility.yul\":7826:7889   */\n      swap3\n      pop\n        /* \"#utility.yul\":7782:7899   */\n      pop\n        /* \"#utility.yul\":7966:7968   */\n      0x20\n        /* \"#utility.yul\":7955:7964   */\n      dup4\n        /* \"#utility.yul\":7951:7969   */\n      add\n        /* \"#utility.yul\":7938:7970   */\n      calldataload\n        /* \"#utility.yul\":7997:8015   */\n      0xffffffffffffffff\n        /* \"#utility.yul\":7989:7995   */\n      dup2\n        /* \"#utility.yul\":7986:8016   */\n      gt\n        /* \"#utility.yul\":7983:8100   */\n      iszero\n      tag_484\n      jumpi\n        /* \"#utility.yul\":8019:8098   */\n      tag_485\n      tag_330\n      jump\t// in\n    tag_485:\n        /* \"#utility.yul\":7983:8100   */\n    tag_484:\n        /* \"#utility.yul\":8124:8202   */\n      tag_486\n        /* \"#utility.yul\":8194:8201   */\n      dup6\n        /* \"#utility.yul\":8185:8191   */\n      dup3\n        /* \"#utility.yul\":8174:8183   */\n      dup7\n        /* \"#utility.yul\":8170:8192   */\n      add\n        /* \"#utility.yul\":8124:8202   */\n      tag_351\n      jump\t// in\n    tag_486:\n        /* \"#utility.yul\":8114:8202   */\n      swap2\n      pop\n        /* \"#utility.yul\":7909:8212   */\n      pop\n        /* \"#utility.yul\":7535:8219   */\n      swap3\n      pop\n      swap3\n      swap1\n      pop\n      jump\t// out\n        /* \"#utility.yul\":8225:8285   */\n    tag_352:\n        /* \"#utility.yul\":8253:8256   */\n      0x00\n        /* \"#utility.yul\":8274:8279   */\n      dup2\n        /* \"#utility.yul\":8267:8279   */\n      swap1\n      pop\n        /* \"#utility.yul\":8225:8285   */\n      swap2\n      swap1\n      pop\n      jump\t// out\n        /* \"#utility.yul\":8291:8433   */\n    tag_353:\n        /* \"#utility.yul\":8341:8350   */\n      0x00\n        /* \"#utility.yul\":8374:8427   */\n      tag_489\n        /* \"#utility.yul\":8392:8426   */\n      tag_490\n        /* \"#utility.yul\":8401:8425   */\n      tag_491\n        /* \"#utility.yul\":8419:8424   */\n      dup5\n        /* \"#utility.yul\":8401:8425   */\n      tag_337\n      jump\t// in\n    tag_491:\n        /* \"#utility.yul\":8392:8426   */\n      tag_352\n      jump\t// in\n    tag_490:\n        /* \"#utility.yul\":8374:8427   */\n      tag_337\n      jump\t// in\n    tag_489:\n        /* \"#utility.yul\":8361:8427   */\n      swap1\n      pop\n        /* \"#utility.yul\":8291:8433   */\n      swap2\n      swap1\n      pop\n      jump\t// out\n        /* \"#utility.yul\":8439:8565   */\n    tag_354:\n        /* \"#utility.yul\":8489:8498   */\n      0x00\n        /* \"#utility.yul\":8522:8559   */\n      tag_493\n        /* \"#utility.yul\":8553:8558   */\n      dup3\n        /* \"#utility.yul\":8522:8559   */\n      tag_353\n      jump\t// in\n    tag_493:\n        /* \"#utility.yul\":8509:8559   */\n      swap1\n      pop\n        /* \"#utility.yul\":8439:8565   */\n      swap2\n      swap1\n      pop\n      jump\t// out\n        /* \"#utility.yul\":8571:8725   */\n    tag_355:\n        /* \"#utility.yul\":8649:8658   */\n      0x00\n        /* \"#utility.yul\":8682:8719   */\n      tag_495\n        /* \"#utility.yul\":8713:8718   */\n      dup3\n        /* \"#utility.yul\":8682:8719   */\n      tag_354\n      jump\t// in\n    tag_495:\n        /* \"#utility.yul\":8669:8719   */\n      swap1\n      pop\n        /* \"#utility.yul\":8571:8725   */\n      swap2\n      swap1\n      pop\n      jump\t// out\n        /* \"#utility.yul\":8731:8918   */\n    tag_356:\n        /* \"#utility.yul\":8846:8911   */\n      tag_497\n        /* \"#utility.yul\":8905:8910   */\n      dup2\n        /* \"#utility.yul\":8846:8911   */\n      tag_355\n      jump\t// in\n    tag_497:\n        /* \"#utility.yul\":8841:8844   */\n      dup3\n        /* \"#utility.yul\":8834:8912   */\n      mstore\n        /* \"#utility.yul\":8731:8918   */\n      pop\n      pop\n      jump\t// out\n        /* \"#utility.yul\":8924:9202   */\n    tag_104:\n        /* \"#utility.yul\":9045:9049   */\n      0x00\n        /* \"#utility.yul\":9083:9085   */\n      0x20\n        /* \"#utility.yul\":9072:9081   */\n      dup3\n        /* \"#utility.yul\":9068:9086   */\n      add\n        /* \"#utility.yul\":9060:9086   */\n      swap1\n      pop\n        /* \"#utility.yul\":9096:9195   */\n      tag_499\n        /* \"#utility.yul\":9192:9193   */\n      0x00\n        /* \"#utility.yul\":9181:9190   */\n      dup4\n        /* \"#utility.yul\":9177:9194   */\n      add\n        /* \"#utility.yul\":9168:9174   */\n      dup5\n        /* \"#utility.yul\":9096:9195   */\n      tag_356\n      jump\t// in\n    tag_499:\n        /* \"#utility.yul\":8924:9202   */\n      swap3\n      swap2\n      pop\n      pop\n      jump\t// out\n        /* \"#utility.yul\":9208:10119   */\n    tag_136:\n        /* \"#utility.yul\":9303:9309   */\n      0x00\n        /* \"#utility.yul\":9311:9317   */\n      0x00\n        /* \"#utility.yul\":9319:9325   */\n      0x00\n        /* \"#utility.yul\":9327:9333   */\n      0x00\n        /* \"#utility.yul\":9335:9341   */\n      0x00\n        /* \"#utility.yul\":9384:9387   */\n      0xa0\n        /* \"#utility.yul\":9372:9381   */\n      dup7\n        /* \"#utility.yul\":9363:9370   */\n      dup9\n        /* \"#utility.yul\":9359:9382   */\n      sub\n        /* \"#utility.yul\":9355:9388   */\n      slt\n        /* \"#utility.yul\":9352:9472   */\n      iszero\n      tag_501\n      jumpi\n        /* \"#utility.yul\":9391:9470   */\n      tag_502\n      tag_329\n      jump\t// in\n    tag_502:\n        /* \"#utility.yul\":9352:9472   */\n    tag_501:\n        /* \"#utility.yul\":9511:9512   */\n      0x00\n        /* \"#utility.yul\":9536:9589   */\n      tag_503\n        /* \"#utility.yul\":9581:9588   */\n      dup9\n        /* \"#utility.yul\":9572:9578   */\n      dup3\n        /* \"#utility.yul\":9561:9570   */\n      dup10\n        /* \"#utility.yul\":9557:9579   */\n      add\n        /* \"#utility.yul\":9536:9589   */\n      tag_341\n      jump\t// in\n    tag_503:\n        /* \"#utility.yul\":9526:9589   */\n      swap6\n      pop\n        /* \"#utility.yul\":9482:9599   */\n      pop\n        /* \"#utility.yul\":9638:9640   */\n      0x20\n        /* \"#utility.yul\":9664:9717   */\n      tag_504\n        /* \"#utility.yul\":9709:9716   */\n      dup9\n        /* \"#utility.yul\":9700:9706   */\n      dup3\n        /* \"#utility.yul\":9689:9698   */\n      dup10\n        /* \"#utility.yul\":9685:9707   */\n      add\n        /* \"#utility.yul\":9664:9717   */\n      tag_341\n      jump\t// in\n    tag_504:\n        /* \"#utility.yul\":9654:9717   */\n      swap5\n      pop\n        /* \"#utility.yul\":9609:9727   */\n      pop\n        /* \"#utility.yul\":9766:9768   */\n      0x40\n        /* \"#utility.yul\":9792:9845   */\n      tag_505\n        /* \"#utility.yul\":9837:9844   */\n      dup9\n        /* \"#utility.yul\":9828:9834   */\n      dup3\n        /* \"#utility.yul\":9817:9826   */\n      dup10\n        /* \"#utility.yul\":9813:9835   */\n      add\n        /* \"#utility.yul\":9792:9845   */\n      tag_332\n      jump\t// in\n    tag_505:\n        /* \"#utility.yul\":9782:9845   */\n      swap4\n      pop\n        /* \"#utility.yul\":9737:9855   */\n      pop\n        /* \"#utility.yul\":9894:9896   */\n      0x60\n        /* \"#utility.yul\":9920:9973   */\n      tag_506\n        /* \"#utility.yul\":9965:9972   */\n      dup9\n        /* \"#utility.yul\":9956:9962   */\n      dup3\n        /* \"#utility.yul\":9945:9954   */\n      dup10\n        /* \"#utility.yul\":9941:9963   */\n      add\n        /* \"#utility.yul\":9920:9973   */\n      tag_349\n      jump\t// in\n    tag_506:\n        /* \"#utility.yul\":9910:9973   */\n      swap3\n      pop\n        /* \"#utility.yul\":9865:9983   */\n      pop\n        /* \"#utility.yul\":10022:10025   */\n      0x80\n        /* \"#utility.yul\":10049:10102   */\n      tag_507\n        /* \"#utility.yul\":10094:10101   */\n      dup9\n        /* \"#utility.yul\":10085:10091   */\n      dup3\n        /* \"#utility.yul\":10074:10083   */\n      dup10\n        /* \"#utility.yul\":10070:10092   */\n      add\n        /* \"#utility.yul\":10049:10102   */\n      tag_349\n      jump\t// in\n    tag_507:\n        /* \"#utility.yul\":10039:10102   */\n      swap2\n      pop\n        /* \"#utility.yul\":9993:10112   */\n      pop\n        /* \"#utility.yul\":9208:10119   */\n      swap3\n      swap6\n      pop\n      swap3\n      swap6\n      swap1\n      swap4\n      pop\n      jump\t// out\n        /* \"#utility.yul\":10125:10457   */\n    tag_141:\n        /* \"#utility.yul\":10246:10250   */\n      0x00\n        /* \"#utility.yul\":10284:10286   */\n      0x40\n        /* \"#utility.yul\":10273:10282   */\n      dup3\n        /* \"#utility.yul\":10269:10287   */\n      add\n        /* \"#utility.yul\":10261:10287   */\n      swap1\n      pop\n        /* \"#utility.yul\":10297:10368   */\n      tag_509\n        /* \"#utility.yul\":10365:10366   */\n      0x00\n        /* \"#utility.yul\":10354:10363   */\n      dup4\n        /* \"#utility.yul\":10350:10367   */\n      add\n        /* \"#utility.yul\":10341:10347   */\n      dup6\n        /* \"#utility.yul\":10297:10368   */\n      tag_339\n      jump\t// in\n    tag_509:\n        /* \"#utility.yul\":10378:10450   */\n      tag_510\n        /* \"#utility.yul\":10446:10448   */\n      0x20\n        /* \"#utility.yul\":10435:10444   */\n      dup4\n        /* \"#utility.yul\":10431:10449   */\n      add\n        /* \"#utility.yul\":10422:10428   */\n      dup5\n        /* \"#utility.yul\":10378:10450   */\n      tag_339\n      jump\t// in\n    tag_510:\n        /* \"#utility.yul\":10125:10457   */\n      swap4\n      swap3\n      pop\n      pop\n      pop\n      jump\t// out\n        /* \"#utility.yul\":10463:10610   */\n    tag_357:\n        /* \"#utility.yul\":10564:10575   */\n      0x00\n        /* \"#utility.yul\":10601:10604   */\n      dup2\n        /* \"#utility.yul\":10586:10604   */\n      swap1\n      pop\n        /* \"#utility.yul\":10463:10610   */\n      swap3\n      swap2\n      pop\n      pop\n      jump\t// out\n        /* \"#utility.yul\":10616:10730   */\n    tag_358:\n      pop\n      jump\t// out\n        /* \"#utility.yul\":10736:11134   */\n    tag_359:\n        /* \"#utility.yul\":10895:10898   */\n      0x00\n        /* \"#utility.yul\":10916:10999   */\n      tag_514\n        /* \"#utility.yul\":10997:10998   */\n      0x00\n        /* \"#utility.yul\":10992:10995   */\n      dup4\n        /* \"#utility.yul\":10916:10999   */\n      tag_357\n      jump\t// in\n    tag_514:\n        /* \"#utility.yul\":10909:10999   */\n      swap2\n      pop\n        /* \"#utility.yul\":11008:11101   */\n      tag_515\n        /* \"#utility.yul\":11097:11100   */\n      dup3\n        /* \"#utility.yul\":11008:11101   */\n      tag_358\n      jump\t// in\n    tag_515:\n        /* \"#utility.yul\":11126:11127   */\n      0x00\n        /* \"#utility.yul\":11121:11124   */\n      dup3\n        /* \"#utility.yul\":11117:11128   */\n      add\n        /* \"#utility.yul\":11110:11128   */\n      swap1\n      pop\n        /* \"#utility.yul\":10736:11134   */\n      swap2\n      swap1\n      pop\n      jump\t// out\n        /* \"#utility.yul\":11140:11519   */\n    tag_149:\n        /* \"#utility.yul\":11324:11327   */\n      0x00\n        /* \"#utility.yul\":11346:11493   */\n      tag_517\n        /* \"#utility.yul\":11489:11492   */\n      dup3\n        /* \"#utility.yul\":11346:11493   */\n      tag_359\n      jump\t// in\n    tag_517:\n        /* \"#utility.yul\":11339:11493   */\n      swap2\n      pop\n        /* \"#utility.yul\":11510:11513   */\n      dup2\n        /* \"#utility.yul\":11503:11513   */\n      swap1\n      pop\n        /* \"#utility.yul\":11140:11519   */\n      swap2\n      swap1\n      pop\n      jump\t// out\n        /* \"#utility.yul\":11525:11705   */\n    tag_360:\n        /* \"#utility.yul\":11573:11650   */\n      0x4e487b7100000000000000000000000000000000000000000000000000000000\n        /* \"#utility.yul\":11570:11571   */\n      0x00\n        /* \"#utility.yul\":11563:11651   */\n      mstore\n        /* \"#utility.yul\":11670:11674   */\n      0x11\n        /* \"#utility.yul\":11667:11668   */\n      0x04\n        /* \"#utility.yul\":11660:11675   */\n      mstore\n        /* \"#utility.yul\":11694:11698   */\n      0x24\n        /* \"#utility.yul\":11691:11692   */\n      0x00\n        /* \"#utility.yul\":11684:11699   */\n      revert\n        /* \"#utility.yul\":11711:12121   */\n    tag_173:\n        /* \"#utility.yul\":11751:11758   */\n      0x00\n        /* \"#utility.yul\":11774:11794   */\n      tag_520\n        /* \"#utility.yul\":11792:11793   */\n      dup3\n        /* \"#utility.yul\":11774:11794   */\n      tag_326\n      jump\t// in\n    tag_520:\n        /* \"#utility.yul\":11769:11794   */\n      swap2\n      pop\n        /* \"#utility.yul\":11808:11828   */\n      tag_521\n        /* \"#utility.yul\":11826:11827   */\n      dup4\n        /* \"#utility.yul\":11808:11828   */\n      tag_326\n      jump\t// in\n    tag_521:\n        /* \"#utility.yul\":11803:11828   */\n      swap3\n      pop\n        /* \"#utility.yul\":11863:11864   */\n      dup3\n        /* \"#utility.yul\":11860:11861   */\n      dup3\n        /* \"#utility.yul\":11856:11865   */\n      mul\n        /* \"#utility.yul\":11885:11915   */\n      tag_522\n        /* \"#utility.yul\":11903:11914   */\n      dup2\n        /* \"#utility.yul\":11885:11915   */\n      tag_326\n      jump\t// in\n    tag_522:\n        /* \"#utility.yul\":11874:11915   */\n      swap2\n      pop\n        /* \"#utility.yul\":12064:12065   */\n      dup3\n        /* \"#utility.yul\":12055:12062   */\n      dup3\n        /* \"#utility.yul\":12051:12066   */\n      div\n        /* \"#utility.yul\":12048:12049   */\n      dup5\n        /* \"#utility.yul\":12045:12067   */\n      eq\n        /* \"#utility.yul\":12025:12026   */\n      dup4\n        /* \"#utility.yul\":12018:12027   */\n      iszero\n        /* \"#utility.yul\":11998:12081   */\n      or\n        /* \"#utility.yul\":11975:12114   */\n      tag_523\n      jumpi\n        /* \"#utility.yul\":12094:12112   */\n      tag_524\n      tag_360\n      jump\t// in\n    tag_524:\n        /* \"#utility.yul\":11975:12114   */\n    tag_523:\n        /* \"#utility.yul\":11759:12121   */\n      pop\n        /* \"#utility.yul\":11711:12121   */\n      swap3\n      swap2\n      pop\n      pop\n      jump\t// out\n        /* \"#utility.yul\":12127:12206   */\n    tag_361:\n        /* \"#utility.yul\":12166:12173   */\n      0x00\n        /* \"#utility.yul\":12195:12200   */\n      dup2\n        /* \"#utility.yul\":12184:12200   */\n      swap1\n      pop\n        /* \"#utility.yul\":12127:12206   */\n      swap2\n      swap1\n      pop\n      jump\t// out\n        /* \"#utility.yul\":12212:12369   */\n    tag_362:\n        /* \"#utility.yul\":12317:12362   */\n      tag_527\n        /* \"#utility.yul\":12337:12361   */\n      tag_528\n        /* \"#utility.yul\":12355:12360   */\n      dup3\n        /* \"#utility.yul\":12337:12361   */\n      tag_324\n      jump\t// in\n    tag_528:\n        /* \"#utility.yul\":12317:12362   */\n      tag_361\n      jump\t// in\n    tag_527:\n        /* \"#utility.yul\":12312:12315   */\n      dup3\n        /* \"#utility.yul\":12305:12363   */\n      mstore\n        /* \"#utility.yul\":12212:12369   */\n      pop\n      pop\n      jump\t// out\n        /* \"#utility.yul\":12375:12631   */\n    tag_178:\n        /* \"#utility.yul\":12487:12490   */\n      0x00\n        /* \"#utility.yul\":12502:12577   */\n      tag_530\n        /* \"#utility.yul\":12573:12576   */\n      dup3\n        /* \"#utility.yul\":12564:12570   */\n      dup5\n        /* \"#utility.yul\":12502:12577   */\n      tag_362\n      jump\t// in\n    tag_530:\n        /* \"#utility.yul\":12602:12604   */\n      0x20\n        /* \"#utility.yul\":12597:12600   */\n      dup3\n        /* \"#utility.yul\":12593:12605   */\n      add\n        /* \"#utility.yul\":12586:12605   */\n      swap2\n      pop\n        /* \"#utility.yul\":12622:12625   */\n      dup2\n        /* \"#utility.yul\":12615:12625   */\n      swap1\n      pop\n        /* \"#utility.yul\":12375:12631   */\n      swap3\n      swap2\n      pop\n      pop\n      jump\t// out\n        /* \"#utility.yul\":12637:13079   */\n    tag_195:\n        /* \"#utility.yul\":12786:12790   */\n      0x00\n        /* \"#utility.yul\":12824:12826   */\n      0x60\n        /* \"#utility.yul\":12813:12822   */\n      dup3\n        /* \"#utility.yul\":12809:12827   */\n      add\n        /* \"#utility.yul\":12801:12827   */\n      swap1\n      pop\n        /* \"#utility.yul\":12837:12908   */\n      tag_532\n        /* \"#utility.yul\":12905:12906   */\n      0x00\n        /* \"#utility.yul\":12894:12903   */\n      dup4\n        /* \"#utility.yul\":12890:12907   */\n      add\n        /* \"#utility.yul\":12881:12887   */\n      dup7\n        /* \"#utility.yul\":12837:12908   */\n      tag_339\n      jump\t// in\n    tag_532:\n        /* \"#utility.yul\":12918:12990   */\n      tag_533\n        /* \"#utility.yul\":12986:12988   */\n      0x20\n        /* \"#utility.yul\":12975:12984   */\n      dup4\n        /* \"#utility.yul\":12971:12989   */\n      add\n        /* \"#utility.yul\":12962:12968   */\n      dup6\n        /* \"#utility.yul\":12918:12990   */\n      tag_339\n      jump\t// in\n    tag_533:\n        /* \"#utility.yul\":13000:13072   */\n      tag_534\n        /* \"#utility.yul\":13068:13070   */\n      0x40\n        /* \"#utility.yul\":13057:13066   */\n      dup4\n        /* \"#utility.yul\":13053:13071   */\n      add\n        /* \"#utility.yul\":13044:13050   */\n      dup5\n        /* \"#utility.yul\":13000:13072   */\n      tag_339\n      jump\t// in\n    tag_534:\n        /* \"#utility.yul\":12637:13079   */\n      swap5\n      swap4\n      pop\n      pop\n      pop\n      pop\n      jump\t// out\n        /* \"#utility.yul\":13085:13193   */\n    tag_363:\n        /* \"#utility.yul\":13162:13186   */\n      tag_536\n        /* \"#utility.yul\":13180:13185   */\n      dup2\n        /* \"#utility.yul\":13162:13186   */\n      tag_324\n      jump\t// in\n    tag_536:\n        /* \"#utility.yul\":13157:13160   */\n      dup3\n        /* \"#utility.yul\":13150:13187   */\n      mstore\n        /* \"#utility.yul\":13085:13193   */\n      pop\n      pop\n      jump\t// out\n        /* \"#utility.yul\":13199:13307   */\n    tag_364:\n        /* \"#utility.yul\":13276:13300   */\n      tag_538\n        /* \"#utility.yul\":13294:13299   */\n      dup2\n        /* \"#utility.yul\":13276:13300   */\n      tag_326\n      jump\t// in\n    tag_538:\n        /* \"#utility.yul\":13271:13274   */\n      dup3\n        /* \"#utility.yul\":13264:13301   */\n      mstore\n        /* \"#utility.yul\":13199:13307   */\n      pop\n      pop\n      jump\t// out\n        /* \"#utility.yul\":13313:13402   */\n    tag_365:\n        /* \"#utility.yul\":13349:13356   */\n      0x00\n        /* \"#utility.yul\":13389:13395   */\n      0xffff\n        /* \"#utility.yul\":13382:13387   */\n      dup3\n        /* \"#utility.yul\":13378:13396   */\n      and\n        /* \"#utility.yul\":13367:13396   */\n      swap1\n      pop\n        /* \"#utility.yul\":13313:13402   */\n      swap2\n      swap1\n      pop\n      jump\t// out\n        /* \"#utility.yul\":13408:13513   */\n    tag_366:\n        /* \"#utility.yul\":13483:13506   */\n      tag_541\n        /* \"#utility.yul\":13500:13505   */\n      dup2\n        /* \"#utility.yul\":13483:13506   */\n      tag_365\n      jump\t// in\n    tag_541:\n        /* \"#utility.yul\":13478:13481   */\n      dup3\n        /* \"#utility.yul\":13471:13507   */\n      mstore\n        /* \"#utility.yul\":13408:13513   */\n      pop\n      pop\n      jump\t// out\n        /* \"#utility.yul\":13519:13612   */\n    tag_367:\n        /* \"#utility.yul\":13555:13562   */\n      0x00\n        /* \"#utility.yul\":13595:13605   */\n      0xffffffff\n        /* \"#utility.yul\":13588:13593   */\n      dup3\n        /* \"#utility.yul\":13584:13606   */\n      and\n        /* \"#utility.yul\":13573:13606   */\n      swap1\n      pop\n        /* \"#utility.yul\":13519:13612   */\n      swap2\n      swap1\n      pop\n      jump\t// out\n        /* \"#utility.yul\":13618:13723   */\n    tag_368:\n        /* \"#utility.yul\":13693:13716   */\n      tag_544\n        /* \"#utility.yul\":13710:13715   */\n      dup2\n        /* \"#utility.yul\":13693:13716   */\n      tag_367\n      jump\t// in\n    tag_544:\n        /* \"#utility.yul\":13688:13691   */\n      dup3\n        /* \"#utility.yul\":13681:13717   */\n      mstore\n        /* \"#utility.yul\":13618:13723   */\n      pop\n      pop\n      jump\t// out\n        /* \"#utility.yul\":13729:13827   */\n    tag_369:\n        /* \"#utility.yul\":13780:13786   */\n      0x00\n        /* \"#utility.yul\":13814:13819   */\n      dup2\n        /* \"#utility.yul\":13808:13820   */\n      mload\n        /* \"#utility.yul\":13798:13820   */\n      swap1\n      pop\n        /* \"#utility.yul\":13729:13827   */\n      swap2\n      swap1\n      pop\n      jump\t// out\n        /* \"#utility.yul\":13833:13991   */\n    tag_370:\n        /* \"#utility.yul\":13906:13917   */\n      0x00\n        /* \"#utility.yul\":13940:13946   */\n      dup3\n        /* \"#utility.yul\":13935:13938   */\n      dup3\n        /* \"#utility.yul\":13928:13947   */\n      mstore\n        /* \"#utility.yul\":13980:13984   */\n      0x20\n        /* \"#utility.yul\":13975:13978   */\n      dup3\n        /* \"#utility.yul\":13971:13985   */\n      add\n        /* \"#utility.yul\":13956:13985   */\n      swap1\n      pop\n        /* \"#utility.yul\":13833:13991   */\n      swap3\n      swap2\n      pop\n      pop\n      jump\t// out\n        /* \"#utility.yul\":13997:14136   */\n    tag_371:\n        /* \"#utility.yul\":14086:14092   */\n      dup3\n        /* \"#utility.yul\":14081:14084   */\n      dup2\n        /* \"#utility.yul\":14076:14079   */\n      dup4\n        /* \"#utility.yul\":14070:14093   */\n      mcopy\n        /* \"#utility.yul\":14127:14128   */\n      0x00\n        /* \"#utility.yul\":14118:14124   */\n      dup4\n        /* \"#utility.yul\":14113:14116   */\n      dup4\n        /* \"#utility.yul\":14109:14125   */\n      add\n        /* \"#utility.yul\":14102:14129   */\n      mstore\n        /* \"#utility.yul\":13997:14136   */\n      pop\n      pop\n      pop\n      jump\t// out\n        /* \"#utility.yul\":14142:14495   */\n    tag_372:\n        /* \"#utility.yul\":14218:14221   */\n      0x00\n        /* \"#utility.yul\":14246:14284   */\n      tag_549\n        /* \"#utility.yul\":14278:14283   */\n      dup3\n        /* \"#utility.yul\":14246:14284   */\n      tag_369\n      jump\t// in\n    tag_549:\n        /* \"#utility.yul\":14300:14360   */\n      tag_550\n        /* \"#utility.yul\":14353:14359   */\n      dup2\n        /* \"#utility.yul\":14348:14351   */\n      dup6\n        /* \"#utility.yul\":14300:14360   */\n      tag_370\n      jump\t// in\n    tag_550:\n        /* \"#utility.yul\":14293:14360   */\n      swap4\n      pop\n        /* \"#utility.yul\":14369:14434   */\n      tag_551\n        /* \"#utility.yul\":14427:14433   */\n      dup2\n        /* \"#utility.yul\":14422:14425   */\n      dup6\n        /* \"#utility.yul\":14415:14419   */\n      0x20\n        /* \"#utility.yul\":14408:14413   */\n      dup7\n        /* \"#utility.yul\":14404:14420   */\n      add\n        /* \"#utility.yul\":14369:14434   */\n      tag_371\n      jump\t// in\n    tag_551:\n        /* \"#utility.yul\":14459:14488   */\n      tag_552\n        /* \"#utility.yul\":14481:14487   */\n      dup2\n        /* \"#utility.yul\":14459:14488   */\n      tag_344\n      jump\t// in\n    tag_552:\n        /* \"#utility.yul\":14454:14457   */\n      dup5\n        /* \"#utility.yul\":14450:14489   */\n      add\n        /* \"#utility.yul\":14443:14489   */\n      swap2\n      pop\n        /* \"#utility.yul\":14222:14495   */\n      pop\n        /* \"#utility.yul\":14142:14495   */\n      swap3\n      swap2\n      pop\n      pop\n      jump\t// out\n        /* \"#utility.yul\":14595:15950   */\n    tag_373:\n        /* \"#utility.yul\":14734:14737   */\n      0x00\n        /* \"#utility.yul\":14770:14774   */\n      0xc0\n        /* \"#utility.yul\":14765:14768   */\n      dup4\n        /* \"#utility.yul\":14761:14775   */\n      add\n        /* \"#utility.yul\":14860:14864   */\n      0x00\n        /* \"#utility.yul\":14853:14858   */\n      dup4\n        /* \"#utility.yul\":14849:14865   */\n      add\n        /* \"#utility.yul\":14843:14866   */\n      mload\n        /* \"#utility.yul\":14879:14942   */\n      tag_554\n        /* \"#utility.yul\":14936:14940   */\n      0x00\n        /* \"#utility.yul\":14931:14934   */\n      dup7\n        /* \"#utility.yul\":14927:14941   */\n      add\n        /* \"#utility.yul\":14913:14925   */\n      dup3\n        /* \"#utility.yul\":14879:14942   */\n      tag_363\n      jump\t// in\n    tag_554:\n        /* \"#utility.yul\":14785:14952   */\n      pop\n        /* \"#utility.yul\":15035:15039   */\n      0x20\n        /* \"#utility.yul\":15028:15033   */\n      dup4\n        /* \"#utility.yul\":15024:15040   */\n      add\n        /* \"#utility.yul\":15018:15041   */\n      mload\n        /* \"#utility.yul\":15054:15117   */\n      tag_555\n        /* \"#utility.yul\":15111:15115   */\n      0x20\n        /* \"#utility.yul\":15106:15109   */\n      dup7\n        /* \"#utility.yul\":15102:15116   */\n      add\n        /* \"#utility.yul\":15088:15100   */\n      dup3\n        /* \"#utility.yul\":15054:15117   */\n      tag_364\n      jump\t// in\n    tag_555:\n        /* \"#utility.yul\":14962:15127   */\n      pop\n        /* \"#utility.yul\":15225:15229   */\n      0x40\n        /* \"#utility.yul\":15218:15223   */\n      dup4\n        /* \"#utility.yul\":15214:15230   */\n      add\n        /* \"#utility.yul\":15208:15231   */\n      mload\n        /* \"#utility.yul\":15244:15305   */\n      tag_556\n        /* \"#utility.yul\":15299:15303   */\n      0x40\n        /* \"#utility.yul\":15294:15297   */\n      dup7\n        /* \"#utility.yul\":15290:15304   */\n      add\n        /* \"#utility.yul\":15276:15288   */\n      dup3\n        /* \"#utility.yul\":15244:15305   */\n      tag_366\n      jump\t// in\n    tag_556:\n        /* \"#utility.yul\":15137:15315   */\n      pop\n        /* \"#utility.yul\":15409:15413   */\n      0x60\n        /* \"#utility.yul\":15402:15407   */\n      dup4\n        /* \"#utility.yul\":15398:15414   */\n      add\n        /* \"#utility.yul\":15392:15415   */\n      mload\n        /* \"#utility.yul\":15428:15489   */\n      tag_557\n        /* \"#utility.yul\":15483:15487   */\n      0x60\n        /* \"#utility.yul\":15478:15481   */\n      dup7\n        /* \"#utility.yul\":15474:15488   */\n      add\n        /* \"#utility.yul\":15460:15472   */\n      dup3\n        /* \"#utility.yul\":15428:15489   */\n      tag_368\n      jump\t// in\n    tag_557:\n        /* \"#utility.yul\":15325:15499   */\n      pop\n        /* \"#utility.yul\":15585:15589   */\n      0x80\n        /* \"#utility.yul\":15578:15583   */\n      dup4\n        /* \"#utility.yul\":15574:15590   */\n      add\n        /* \"#utility.yul\":15568:15591   */\n      mload\n        /* \"#utility.yul\":15604:15665   */\n      tag_558\n        /* \"#utility.yul\":15659:15663   */\n      0x80\n        /* \"#utility.yul\":15654:15657   */\n      dup7\n        /* \"#utility.yul\":15650:15664   */\n      add\n        /* \"#utility.yul\":15636:15648   */\n      dup3\n        /* \"#utility.yul\":15604:15665   */\n      tag_368\n      jump\t// in\n    tag_558:\n        /* \"#utility.yul\":15509:15675   */\n      pop\n        /* \"#utility.yul\":15762:15766   */\n      0xa0\n        /* \"#utility.yul\":15755:15760   */\n      dup4\n        /* \"#utility.yul\":15751:15767   */\n      add\n        /* \"#utility.yul\":15745:15768   */\n      mload\n        /* \"#utility.yul\":15815:15818   */\n      dup5\n        /* \"#utility.yul\":15809:15813   */\n      dup3\n        /* \"#utility.yul\":15805:15819   */\n      sub\n        /* \"#utility.yul\":15798:15802   */\n      0xa0\n        /* \"#utility.yul\":15793:15796   */\n      dup7\n        /* \"#utility.yul\":15789:15803   */\n      add\n        /* \"#utility.yul\":15782:15820   */\n      mstore\n        /* \"#utility.yul\":15841:15912   */\n      tag_559\n        /* \"#utility.yul\":15907:15911   */\n      dup3\n        /* \"#utility.yul\":15893:15905   */\n      dup3\n        /* \"#utility.yul\":15841:15912   */\n      tag_372\n      jump\t// in\n    tag_559:\n        /* \"#utility.yul\":15833:15912   */\n      swap2\n      pop\n        /* \"#utility.yul\":15685:15923   */\n      pop\n        /* \"#utility.yul\":15940:15944   */\n      dup1\n        /* \"#utility.yul\":15933:15944   */\n      swap2\n      pop\n        /* \"#utility.yul\":14739:15950   */\n      pop\n        /* \"#utility.yul\":14595:15950   */\n      swap3\n      swap2\n      pop\n      pop\n      jump\t// out\n        /* \"#utility.yul\":15956:16369   */\n    tag_206:\n        /* \"#utility.yul\":16119:16123   */\n      0x00\n        /* \"#utility.yul\":16157:16159   */\n      0x20\n        /* \"#utility.yul\":16146:16155   */\n      dup3\n        /* \"#utility.yul\":16142:16160   */\n      add\n        /* \"#utility.yul\":16134:16160   */\n      swap1\n      pop\n        /* \"#utility.yul\":16206:16215   */\n      dup2\n        /* \"#utility.yul\":16200:16204   */\n      dup2\n        /* \"#utility.yul\":16196:16216   */\n      sub\n        /* \"#utility.yul\":16192:16193   */\n      0x00\n        /* \"#utility.yul\":16181:16190   */\n      dup4\n        /* \"#utility.yul\":16177:16194   */\n      add\n        /* \"#utility.yul\":16170:16217   */\n      mstore\n        /* \"#utility.yul\":16234:16362   */\n      tag_561\n        /* \"#utility.yul\":16357:16361   */\n      dup2\n        /* \"#utility.yul\":16348:16354   */\n      dup5\n        /* \"#utility.yul\":16234:16362   */\n      tag_373\n      jump\t// in\n    tag_561:\n        /* \"#utility.yul\":16226:16362   */\n      swap1\n      pop\n        /* \"#utility.yul\":15956:16369   */\n      swap3\n      swap2\n      pop\n      pop\n      jump\t// out\n        /* \"#utility.yul\":16375:16518   */\n    tag_374:\n        /* \"#utility.yul\":16432:16437   */\n      0x00\n        /* \"#utility.yul\":16463:16469   */\n      dup2\n        /* \"#utility.yul\":16457:16470   */\n      mload\n        /* \"#utility.yul\":16448:16470   */\n      swap1\n      pop\n        /* \"#utility.yul\":16479:16512   */\n      tag_563\n        /* \"#utility.yul\":16506:16511   */\n      dup2\n        /* \"#utility.yul\":16479:16512   */\n      tag_331\n      jump\t// in\n    tag_563:\n        /* \"#utility.yul\":16375:16518   */\n      swap3\n      swap2\n      pop\n      pop\n      jump\t// out\n        /* \"#utility.yul\":16524:16875   */\n    tag_210:\n        /* \"#utility.yul\":16594:16600   */\n      0x00\n        /* \"#utility.yul\":16643:16645   */\n      0x20\n        /* \"#utility.yul\":16631:16640   */\n      dup3\n        /* \"#utility.yul\":16622:16629   */\n      dup5\n        /* \"#utility.yul\":16618:16641   */\n      sub\n        /* \"#utility.yul\":16614:16646   */\n      slt\n        /* \"#utility.yul\":16611:16730   */\n      iszero\n      tag_565\n      jumpi\n        /* \"#utility.yul\":16649:16728   */\n      tag_566\n      tag_329\n      jump\t// in\n    tag_566:\n        /* \"#utility.yul\":16611:16730   */\n    tag_565:\n        /* \"#utility.yul\":16769:16770   */\n      0x00\n        /* \"#utility.yul\":16794:16858   */\n      tag_567\n        /* \"#utility.yul\":16850:16857   */\n      dup5\n        /* \"#utility.yul\":16841:16847   */\n      dup3\n        /* \"#utility.yul\":16830:16839   */\n      dup6\n        /* \"#utility.yul\":16826:16848   */\n      add\n        /* \"#utility.yul\":16794:16858   */\n      tag_374\n      jump\t// in\n    tag_567:\n        /* \"#utility.yul\":16784:16858   */\n      swap2\n      pop\n        /* \"#utility.yul\":16740:16868   */\n      pop\n        /* \"#utility.yul\":16524:16875   */\n      swap3\n      swap2\n      pop\n      pop\n      jump\t// out\n        /* \"#utility.yul\":16881:17061   */\n    tag_375:\n        /* \"#utility.yul\":16929:17006   */\n      0x4e487b7100000000000000000000000000000000000000000000000000000000\n        /* \"#utility.yul\":16926:16927   */\n      0x00\n        /* \"#utility.yul\":16919:17007   */\n      mstore\n        /* \"#utility.yul\":17026:17030   */\n      0x12\n        /* \"#utility.yul\":17023:17024   */\n      0x04\n        /* \"#utility.yul\":17016:17031   */\n      mstore\n        /* \"#utility.yul\":17050:17054   */\n      0x24\n        /* \"#utility.yul\":17047:17048   */\n      0x00\n        /* \"#utility.yul\":17040:17055   */\n      revert\n        /* \"#utility.yul\":17067:17252   */\n    tag_214:\n        /* \"#utility.yul\":17107:17108   */\n      0x00\n        /* \"#utility.yul\":17124:17144   */\n      tag_570\n        /* \"#utility.yul\":17142:17143   */\n      dup3\n        /* \"#utility.yul\":17124:17144   */\n      tag_326\n      jump\t// in\n    tag_570:\n        /* \"#utility.yul\":17119:17144   */\n      swap2\n      pop\n        /* \"#utility.yul\":17158:17178   */\n      tag_571\n        /* \"#utility.yul\":17176:17177   */\n      dup4\n        /* \"#utility.yul\":17158:17178   */\n      tag_326\n      jump\t// in\n    tag_571:\n        /* \"#utility.yul\":17153:17178   */\n      swap3\n      pop\n        /* \"#utility.yul\":17197:17198   */\n      dup3\n        /* \"#utility.yul\":17187:17222   */\n      tag_572\n      jumpi\n        /* \"#utility.yul\":17202:17220   */\n      tag_573\n      tag_375\n      jump\t// in\n    tag_573:\n        /* \"#utility.yul\":17187:17222   */\n    tag_572:\n        /* \"#utility.yul\":17244:17245   */\n      dup3\n        /* \"#utility.yul\":17241:17242   */\n      dup3\n        /* \"#utility.yul\":17237:17246   */\n      div\n        /* \"#utility.yul\":17232:17246   */\n      swap1\n      pop\n        /* \"#utility.yul\":17067:17252   */\n      swap3\n      swap2\n      pop\n      pop\n      jump\t// out\n        /* \"#utility.yul\":17258:17452   */\n    tag_218:\n        /* \"#utility.yul\":17298:17302   */\n      0x00\n        /* \"#utility.yul\":17318:17338   */\n      tag_575\n        /* \"#utility.yul\":17336:17337   */\n      dup3\n        /* \"#utility.yul\":17318:17338   */\n      tag_326\n      jump\t// in\n    tag_575:\n        /* \"#utility.yul\":17313:17338   */\n      swap2\n      pop\n        /* \"#utility.yul\":17352:17372   */\n      tag_576\n        /* \"#utility.yul\":17370:17371   */\n      dup4\n        /* \"#utility.yul\":17352:17372   */\n      tag_326\n      jump\t// in\n    tag_576:\n        /* \"#utility.yul\":17347:17372   */\n      swap3\n      pop\n        /* \"#utility.yul\":17396:17397   */\n      dup3\n        /* \"#utility.yul\":17393:17394   */\n      dup3\n        /* \"#utility.yul\":17389:17398   */\n      sub\n        /* \"#utility.yul\":17381:17398   */\n      swap1\n      pop\n        /* \"#utility.yul\":17420:17421   */\n      dup2\n        /* \"#utility.yul\":17414:17418   */\n      dup2\n        /* \"#utility.yul\":17411:17422   */\n      gt\n        /* \"#utility.yul\":17408:17445   */\n      iszero\n      tag_577\n      jumpi\n        /* \"#utility.yul\":17425:17443   */\n      tag_578\n      tag_360\n      jump\t// in\n    tag_578:\n        /* \"#utility.yul\":17408:17445   */\n    tag_577:\n        /* \"#utility.yul\":17258:17452   */\n      swap3\n      swap2\n      pop\n      pop\n      jump\t// out\n        /* \"#utility.yul\":17458:17543   */\n    tag_376:\n        /* \"#utility.yul\":17503:17510   */\n      0x00\n        /* \"#utility.yul\":17532:17537   */\n      dup2\n        /* \"#utility.yul\":17521:17537   */\n      swap1\n      pop\n        /* \"#utility.yul\":17458:17543   */\n      swap2\n      swap1\n      pop\n      jump\t// out\n        /* \"#utility.yul\":17549:17650   */\n    tag_377:\n        /* \"#utility.yul\":17585:17592   */\n      0x00\n        /* \"#utility.yul\":17625:17643   */\n      0xffffffffffffffff\n        /* \"#utility.yul\":17618:17623   */\n      dup3\n        /* \"#utility.yul\":17614:17644   */\n      and\n        /* \"#utility.yul\":17603:17644   */\n      swap1\n      pop\n        /* \"#utility.yul\":17549:17650   */\n      swap2\n      swap1\n      pop\n      jump\t// out\n        /* \"#utility.yul\":17656:17812   */\n    tag_378:\n        /* \"#utility.yul\":17713:17722   */\n      0x00\n        /* \"#utility.yul\":17746:17806   */\n      tag_582\n        /* \"#utility.yul\":17763:17805   */\n      tag_583\n        /* \"#utility.yul\":17772:17804   */\n      tag_584\n        /* \"#utility.yul\":17798:17803   */\n      dup5\n        /* \"#utility.yul\":17772:17804   */\n      tag_376\n      jump\t// in\n    tag_584:\n        /* \"#utility.yul\":17763:17805   */\n      tag_352\n      jump\t// in\n    tag_583:\n        /* \"#utility.yul\":17746:17806   */\n      tag_377\n      jump\t// in\n    tag_582:\n        /* \"#utility.yul\":17733:17806   */\n      swap1\n      pop\n        /* \"#utility.yul\":17656:17812   */\n      swap2\n      swap1\n      pop\n      jump\t// out\n        /* \"#utility.yul\":17818:17963   */\n    tag_379:\n        /* \"#utility.yul\":17912:17956   */\n      tag_586\n        /* \"#utility.yul\":17950:17955   */\n      dup2\n        /* \"#utility.yul\":17912:17956   */\n      tag_378\n      jump\t// in\n    tag_586:\n        /* \"#utility.yul\":17907:17910   */\n      dup3\n        /* \"#utility.yul\":17900:17957   */\n      mstore\n        /* \"#utility.yul\":17818:17963   */\n      pop\n      pop\n      jump\t// out\n        /* \"#utility.yul\":17969:18205   */\n    tag_239:\n        /* \"#utility.yul\":18069:18073   */\n      0x00\n        /* \"#utility.yul\":18107:18109   */\n      0x20\n        /* \"#utility.yul\":18096:18105   */\n      dup3\n        /* \"#utility.yul\":18092:18110   */\n      add\n        /* \"#utility.yul\":18084:18110   */\n      swap1\n      pop\n        /* \"#utility.yul\":18120:18198   */\n      tag_588\n        /* \"#utility.yul\":18195:18196   */\n      0x00\n        /* \"#utility.yul\":18184:18193   */\n      dup4\n        /* \"#utility.yul\":18180:18197   */\n      add\n        /* \"#utility.yul\":18171:18177   */\n      dup5\n        /* \"#utility.yul\":18120:18198   */\n      tag_379\n      jump\t// in\n    tag_588:\n        /* \"#utility.yul\":17969:18205   */\n      swap3\n      swap2\n      pop\n      pop\n      jump\t// out\n        /* \"#utility.yul\":18211:18391   */\n    tag_252:\n        /* \"#utility.yul\":18259:18336   */\n      0x4e487b7100000000000000000000000000000000000000000000000000000000\n        /* \"#utility.yul\":18256:18257   */\n      0x00\n        /* \"#utility.yul\":18249:18337   */\n      mstore\n        /* \"#utility.yul\":18356:18360   */\n      0x32\n        /* \"#utility.yul\":18353:18354   */\n      0x04\n        /* \"#utility.yul\":18346:18361   */\n      mstore\n        /* \"#utility.yul\":18380:18384   */\n      0x24\n        /* \"#utility.yul\":18377:18378   */\n      0x00\n        /* \"#utility.yul\":18370:18385   */\n      revert\n        /* \"#utility.yul\":18397:18573   */\n    tag_256:\n        /* \"#utility.yul\":18429:18430   */\n      0x00\n        /* \"#utility.yul\":18446:18466   */\n      tag_591\n        /* \"#utility.yul\":18464:18465   */\n      dup3\n        /* \"#utility.yul\":18446:18466   */\n      tag_326\n      jump\t// in\n    tag_591:\n        /* \"#utility.yul\":18441:18466   */\n      swap2\n      pop\n        /* \"#utility.yul\":18480:18500   */\n      tag_592\n        /* \"#utility.yul\":18498:18499   */\n      dup4\n        /* \"#utility.yul\":18480:18500   */\n      tag_326\n      jump\t// in\n    tag_592:\n        /* \"#utility.yul\":18475:18500   */\n      swap3\n      pop\n        /* \"#utility.yul\":18519:18520   */\n      dup3\n        /* \"#utility.yul\":18509:18544   */\n      tag_593\n      jumpi\n        /* \"#utility.yul\":18524:18542   */\n      tag_594\n      tag_375\n      jump\t// in\n    tag_594:\n        /* \"#utility.yul\":18509:18544   */\n    tag_593:\n        /* \"#utility.yul\":18565:18566   */\n      dup3\n        /* \"#utility.yul\":18562:18563   */\n      dup3\n        /* \"#utility.yul\":18558:18567   */\n      mod\n        /* \"#utility.yul\":18553:18567   */\n      swap1\n      pop\n        /* \"#utility.yul\":18397:18573   */\n      swap3\n      swap2\n      pop\n      pop\n      jump\t// out\n        /* \"#utility.yul\":18579:18812   */\n    tag_264:\n        /* \"#utility.yul\":18618:18621   */\n      0x00\n        /* \"#utility.yul\":18641:18665   */\n      tag_596\n        /* \"#utility.yul\":18659:18664   */\n      dup3\n        /* \"#utility.yul\":18641:18665   */\n      tag_326\n      jump\t// in\n    tag_596:\n        /* \"#utility.yul\":18632:18665   */\n      swap2\n      pop\n        /* \"#utility.yul\":18687:18753   */\n      0xffffffffffffffffffffffffffffffffffffffffffffffffffffffffffffffff\n        /* \"#utility.yul\":18680:18685   */\n      dup3\n        /* \"#utility.yul\":18677:18754   */\n      sub\n        /* \"#utility.yul\":18674:18777   */\n      tag_597\n      jumpi\n        /* \"#utility.yul\":18757:18775   */\n      tag_598\n      tag_360\n      jump\t// in\n    tag_598:\n        /* \"#utility.yul\":18674:18777   */\n    tag_597:\n        /* \"#utility.yul\":18804:18805   */\n      0x01\n        /* \"#utility.yul\":18797:18802   */\n      dup3\n        /* \"#utility.yul\":18793:18806   */\n      add\n        /* \"#utility.yul\":18786:18806   */\n      swap1\n      pop\n        /* \"#utility.yul\":18579:18812   */\n      swap2\n      swap1\n      pop\n      jump\t// out\n        /* \"#utility.yul\":18818:18932   */\n    tag_380:\n        /* \"#utility.yul\":18885:18891   */\n      0x00\n        /* \"#utility.yul\":18919:18924   */\n      dup2\n        /* \"#utility.yul\":18913:18925   */\n      mload\n        /* \"#utility.yul\":18903:18925   */\n      swap1\n      pop\n        /* \"#utility.yul\":18818:18932   */\n      swap2\n      swap1\n      pop\n      jump\t// out\n        /* \"#utility.yul\":18938:19122   */\n    tag_381:\n        /* \"#utility.yul\":19037:19048   */\n      0x00\n        /* \"#utility.yul\":19071:19077   */\n      dup3\n        /* \"#utility.yul\":19066:19069   */\n      dup3\n        /* \"#utility.yul\":19059:19078   */\n      mstore\n        /* \"#utility.yul\":19111:19115   */\n      0x20\n        /* \"#utility.yul\":19106:19109   */\n      dup3\n        /* \"#utility.yul\":19102:19116   */\n      add\n        /* \"#utility.yul\":19087:19116   */\n      swap1\n      pop\n        /* \"#utility.yul\":18938:19122   */\n      swap3\n      swap2\n      pop\n      pop\n      jump\t// out\n        /* \"#utility.yul\":19128:19260   */\n    tag_382:\n        /* \"#utility.yul\":19195:19199   */\n      0x00\n        /* \"#utility.yul\":19218:19221   */\n      dup2\n        /* \"#utility.yul\":19210:19221   */\n      swap1\n      pop\n        /* \"#utility.yul\":19248:19252   */\n      0x20\n        /* \"#utility.yul\":19243:19246   */\n      dup3\n        /* \"#utility.yul\":19239:19253   */\n      add\n        /* \"#utility.yul\":19231:19253   */\n      swap1\n      pop\n        /* \"#utility.yul\":19128:19260   */\n      swap2\n      swap1\n      pop\n      jump\t// out\n        /* \"#utility.yul\":19266:19374   */\n    tag_383:\n        /* \"#utility.yul\":19343:19367   */\n      tag_603\n        /* \"#utility.yul\":19361:19366   */\n      dup2\n        /* \"#utility.yul\":19343:19367   */\n      tag_338\n      jump\t// in\n    tag_603:\n        /* \"#utility.yul\":19338:19341   */\n      dup3\n        /* \"#utility.yul\":19331:19368   */\n      mstore\n        /* \"#utility.yul\":19266:19374   */\n      pop\n      pop\n      jump\t// out\n        /* \"#utility.yul\":19380:19559   */\n    tag_384:\n        /* \"#utility.yul\":19449:19459   */\n      0x00\n        /* \"#utility.yul\":19470:19516   */\n      tag_605\n        /* \"#utility.yul\":19512:19515   */\n      dup4\n        /* \"#utility.yul\":19504:19510   */\n      dup4\n        /* \"#utility.yul\":19470:19516   */\n      tag_383\n      jump\t// in\n    tag_605:\n        /* \"#utility.yul\":19548:19552   */\n      0x20\n        /* \"#utility.yul\":19543:19546   */\n      dup4\n        /* \"#utility.yul\":19539:19553   */\n      add\n        /* \"#utility.yul\":19525:19553   */\n      swap1\n      pop\n        /* \"#utility.yul\":19380:19559   */\n      swap3\n      swap2\n      pop\n      pop\n      jump\t// out\n        /* \"#utility.yul\":19565:19678   */\n    tag_385:\n        /* \"#utility.yul\":19635:19639   */\n      0x00\n        /* \"#utility.yul\":19667:19671   */\n      0x20\n        /* \"#utility.yul\":19662:19665   */\n      dup3\n        /* \"#utility.yul\":19658:19672   */\n      add\n        /* \"#utility.yul\":19650:19672   */\n      swap1\n      pop\n        /* \"#utility.yul\":19565:19678   */\n      swap2\n      swap1\n      pop\n      jump\t// out\n        /* \"#utility.yul\":19714:20446   */\n    tag_386:\n        /* \"#utility.yul\":19833:19836   */\n      0x00\n        /* \"#utility.yul\":19862:19916   */\n      tag_608\n        /* \"#utility.yul\":19910:19915   */\n      dup3\n        /* \"#utility.yul\":19862:19916   */\n      tag_380\n      jump\t// in\n    tag_608:\n        /* \"#utility.yul\":19932:20018   */\n      tag_609\n        /* \"#utility.yul\":20011:20017   */\n      dup2\n        /* \"#utility.yul\":20006:20009   */\n      dup6\n        /* \"#utility.yul\":19932:20018   */\n      tag_381\n      jump\t// in\n    tag_609:\n        /* \"#utility.yul\":19925:20018   */\n      swap4\n      pop\n        /* \"#utility.yul\":20042:20098   */\n      tag_610\n        /* \"#utility.yul\":20092:20097   */\n      dup4\n        /* \"#utility.yul\":20042:20098   */\n      tag_382\n      jump\t// in\n    tag_610:\n        /* \"#utility.yul\":20121:20128   */\n      dup1\n        /* \"#utility.yul\":20152:20153   */\n      0x00\n        /* \"#utility.yul\":20137:20421   */\n    tag_611:\n        /* \"#utility.yul\":20162:20168   */\n      dup4\n        /* \"#utility.yul\":20159:20160   */\n      dup2\n        /* \"#utility.yul\":20156:20169   */\n      lt\n        /* \"#utility.yul\":20137:20421   */\n      iszero\n      tag_613\n      jumpi\n        /* \"#utility.yul\":20238:20244   */\n      dup2\n        /* \"#utility.yul\":20232:20245   */\n      mload\n        /* \"#utility.yul\":20265:20328   */\n      tag_614\n        /* \"#utility.yul\":20324:20327   */\n      dup9\n        /* \"#utility.yul\":20309:20322   */\n      dup3\n        /* \"#utility.yul\":20265:20328   */\n      tag_384\n      jump\t// in\n    tag_614:\n        /* \"#utility.yul\":20258:20328   */\n      swap8\n      pop\n        /* \"#utility.yul\":20351:20411   */\n      tag_615\n        /* \"#utility.yul\":20404:20410   */\n      dup4\n        /* \"#utility.yul\":20351:20411   */\n      tag_385\n      jump\t// in\n    tag_615:\n        /* \"#utility.yul\":20341:20411   */\n      swap3\n      pop\n        /* \"#utility.yul\":20197:20421   */\n      pop\n        /* \"#utility.yul\":20184:20185   */\n      0x01\n        /* \"#utility.yul\":20181:20182   */\n      dup2\n        /* \"#utility.yul\":20177:20186   */\n      add\n        /* \"#utility.yul\":20172:20186   */\n      swap1\n      pop\n        /* \"#utility.yul\":20137:20421   */\n      jump(tag_611)\n    tag_613:\n        /* \"#utility.yul\":20141:20155   */\n      pop\n        /* \"#utility.yul\":20437:20440   */\n      dup6\n        /* \"#utility.yul\":20430:20440   */\n      swap4\n      pop\n        /* \"#utility.yul\":19838:20446   */\n      pop\n      pop\n      pop\n        /* \"#utility.yul\":19714:20446   */\n      swap3\n      swap2\n      pop\n      pop\n      jump\t// out\n        /* \"#utility.yul\":20452:20825   */\n    tag_266:\n        /* \"#utility.yul\":20595:20599   */\n      0x00\n        /* \"#utility.yul\":20633:20635   */\n      0x20\n        /* \"#utility.yul\":20622:20631   */\n      dup3\n        /* \"#utility.yul\":20618:20636   */\n      add\n        /* \"#utility.yul\":20610:20636   */\n      swap1\n      pop\n        /* \"#utility.yul\":20682:20691   */\n      dup2\n        /* \"#utility.yul\":20676:20680   */\n      dup2\n        /* \"#utility.yul\":20672:20692   */\n      sub\n        /* \"#utility.yul\":20668:20669   */\n      0x00\n        /* \"#utility.yul\":20657:20666   */\n      dup4\n        /* \"#utility.yul\":20653:20670   */\n      add\n        /* \"#utility.yul\":20646:20693   */\n      mstore\n        /* \"#utility.yul\":20710:20818   */\n      tag_617\n        /* \"#utility.yul\":20813:20817   */\n      dup2\n        /* \"#utility.yul\":20804:20810   */\n      dup5\n        /* \"#utility.yul\":20710:20818   */\n      tag_386\n      jump\t// in\n    tag_617:\n        /* \"#utility.yul\":20702:20818   */\n      swap1\n      pop\n        /* \"#utility.yul\":20452:20825   */\n      swap3\n      swap2\n      pop\n      pop\n      jump\t// out\n        /* \"#utility.yul\":20831:20930   */\n    tag_387:\n        /* \"#utility.yul\":20902:20923   */\n      tag_619\n        /* \"#utility.yul\":20917:20922   */\n      dup2\n        /* \"#utility.yul\":20902:20923   */\n      tag_342\n      jump\t// in\n    tag_619:\n        /* \"#utility.yul\":20897:20900   */\n      dup3\n        /* \"#utility.yul\":20890:20924   */\n      mstore\n        /* \"#utility.yul\":20831:20930   */\n      pop\n      pop\n      jump\t// out\n        /* \"#utility.yul\":21016:21358   */\n    tag_388:\n        /* \"#utility.yul\":21169:21173   */\n      0x20\n        /* \"#utility.yul\":21164:21167   */\n      dup3\n        /* \"#utility.yul\":21160:21174   */\n      add\n        /* \"#utility.yul\":21265:21269   */\n      0x00\n        /* \"#utility.yul\":21258:21263   */\n      dup3\n        /* \"#utility.yul\":21254:21270   */\n      add\n        /* \"#utility.yul\":21248:21271   */\n      mload\n        /* \"#utility.yul\":21284:21341   */\n      tag_621\n        /* \"#utility.yul\":21335:21339   */\n      0x00\n        /* \"#utility.yul\":21330:21333   */\n      dup6\n        /* \"#utility.yul\":21326:21340   */\n      add\n        /* \"#utility.yul\":21312:21324   */\n      dup3\n        /* \"#utility.yul\":21284:21341   */\n      tag_387\n      jump\t// in\n    tag_621:\n        /* \"#utility.yul\":21184:21351   */\n      pop\n        /* \"#utility.yul\":21138:21358   */\n      pop\n        /* \"#utility.yul\":21016:21358   */\n      pop\n      pop\n      jump\t// out\n        /* \"#utility.yul\":21364:21698   */\n    tag_284:\n        /* \"#utility.yul\":21513:21517   */\n      0x00\n        /* \"#utility.yul\":21551:21553   */\n      0x20\n        /* \"#utility.yul\":21540:21549   */\n      dup3\n        /* \"#utility.yul\":21536:21554   */\n      add\n        /* \"#utility.yul\":21528:21554   */\n      swap1\n      pop\n        /* \"#utility.yul\":21564:21691   */\n      tag_623\n        /* \"#utility.yul\":21688:21689   */\n      0x00\n        /* \"#utility.yul\":21677:21686   */\n      dup4\n        /* \"#utility.yul\":21673:21690   */\n      add\n        /* \"#utility.yul\":21664:21670   */\n      dup5\n        /* \"#utility.yul\":21564:21691   */\n      tag_388\n      jump\t// in\n    tag_623:\n        /* \"#utility.yul\":21364:21698   */\n      swap3\n      swap2\n      pop\n      pop\n      jump\t// out\n\n    auxdata: 0xa264697066735822122003187a8cad14cd8955c27ab0dad81cfd5a99637375b8517ef7015784c3cd570064736f6c634300081c0033\n}\n",
				"bytecode": {
					"linkReferences": {},
					"object": "6080604052348015600e575f5ffd5b506124308061001c5f395ff3fe608060405260043610610165575f3560e01c80638da5cb5b116100d0578063b9705a0311610089578063e17901d811610063578063e17901d81461049d578063ed647d21146104c7578063f2fde38b146104f1578063f9f231861461051957610165565b8063b9705a031461041f578063c7383be814610449578063c8af64f81461047357610165565b80638da5cb5b146103395780638ea9811714610363578063918f86741461038b57806398afca73146103b55780639eccacf6146103cb578063ad8ccb84146103f557610165565b806370740ac91161012257806370740ac914610287578063715018a61461029d57806374552552146102b35780637b208769146102c95780638a89c8c9146102f35780638bc532851461030f57610165565b8063041d443e146101695780631209b1f6146101935780631fe543e3146101bd5780632eb4a7ab146101e557806335c1d3491461020f5780636bd5450a1461024b575b5f5ffd5b348015610174575f5ffd5b5061017d610541565b60405161018a9190611961565b60405180910390f35b34801561019e575f5ffd5b506101a7610547565b6040516101b49190611992565b60405180910390f35b3480156101c8575f5ffd5b506101e360048036038101906101de9190611a47565b61054d565b005b3480156101f0575f5ffd5b506101f961060f565b6040516102069190611961565b60405180910390f35b34801561021a575f5ffd5b5061023560048036038101906102309190611aa4565b610615565b6040516102429190611b0e565b60405180910390f35b348015610256575f5ffd5b50610271600480360381019061026c9190611b51565b610650565b60405161027e9190611b96565b60405180910390f35b348015610292575f5ffd5b5061029b61066d565b005b3480156102a8575f5ffd5b506102b1610828565b005b3480156102be575f5ffd5b506102c761083b565b005b3480156102d4575f5ffd5b506102dd6109a0565b6040516102ea9190611b0e565b60405180910390f35b61030d60048036038101906103089190611d21565b6109c5565b005b34801561031a575f5ffd5b50610323610b6c565b6040516103309190611b96565b60405180910390f35b348015610344575f5ffd5b5061034d610b7e565b60405161035a9190611b0e565b60405180910390f35b34801561036e575f5ffd5b5061038960048036038101906103849190611b51565b610b8c565b005b348015610396575f5ffd5b5061039f610d66565b6040516103ac9190611992565b60405180910390f35b3480156103c0575f5ffd5b506103c9610d6c565b005b3480156103d6575f5ffd5b506103df610f4e565b6040516103ec9190611dd6565b60405180910390f35b348015610400575f5ffd5b50610409610f72565b6040516104169190611992565b60405180910390f35b34801561042a575f5ffd5b50610433610f78565b6040516104409190611992565b60405180910390f35b348015610454575f5ffd5b5061045d610f7e565b60405161046a9190611992565b60405180910390f35b34801561047e575f5ffd5b50610487610f84565b6040516104949190611992565b60405180910390f35b3480156104a8575f5ffd5b506104b1610f8a565b6040516104be9190611992565b60405180910390f35b3480156104d2575f5ffd5b506104db610f90565b6040516104e89190611992565b60405180910390f35b3480156104fc575f5ffd5b5061051760048036038101906105129190611b51565b610f96565b005b348015610524575f5ffd5b5061053f600480360381019061053a9190611def565b61101a565b005b60065481565b60015481565b5f5f9054906101000a900473ffffffffffffffffffffffffffffffffffffffff1673ffffffffffffffffffffffffffffffffffffffff163373ffffffffffffffffffffffffffffffffffffffff16146105ff57335f5f9054906101000a900473ffffffffffffffffffffffffffffffffffffffff166040517f1cf993f40000000000000000000000000000000000000000000000000000000081526004016105f6929190611e66565b60405180910390fd5b61060a838383611265565b505050565b60085481565b600c8181548110610624575f80fd5b905f5260205f20015f915054906101000a900473ffffffffffffffffffffffffffffffffffffffff1681565b600d602052805f5260405f205f915054906101000a900460ff1681565b600d5f3373ffffffffffffffffffffffffffffffffffffffff1673ffffffffffffffffffffffffffffffffffffffff1681526020019081526020015f205f9054906101000a900460ff166106ed576040517fb19a9f8200000000000000000000000000000000000000000000000000000000815260040160405180910390fd5b5f600d5f3373ffffffffffffffffffffffffffffffffffffffff1673ffffffffffffffffffffffffffffffffffffffff1681526020019081526020015f205f6101000a81548160ff0219169083151502179055505f3373ffffffffffffffffffffffffffffffffffffffff1660095460405161076890611eba565b5f6040518083038185875af1925050503d805f81146107a2576040519150601f19603f3d011682016040523d82523d5f602084013e6107a7565b606091505b50509050806107e2576040517f90b8ec1800000000000000000000000000000000000000000000000000000000815260040160405180910390fd5b3373ffffffffffffffffffffffffffffffffffffffff167f09f058359c5a4d11027ce8027f5f0f4df210cb3ebac92f2c584170ed78624dd860405160405180910390a250565b61083061151f565b6108395f6115a6565b565b61084361151f565b5f600a541161087e576040517f356680b700000000000000000000000000000000000000000000000000000000815260040160405180910390fd5b600b5f9054906101000a900460ff166108c3576040517fc35d1fe400000000000000000000000000000000000000000000000000000000815260040160405180910390fd5b5f3373ffffffffffffffffffffffffffffffffffffffff16600a546040516108ea90611eba565b5f6040518083038185875af1925050503d805f8114610924576040519150601f19603f3d011682016040523d82523d5f602084013e610929565b606091505b5050905080610964576040517f90b8ec1800000000000000000000000000000000000000000000000000000000815260040160405180910390fd5b7f5689f9ef5be164071958e27dca7a9df000791288fb23c621501d67b6a808848b600a546040516109959190611992565b60405180910390a150565b60045f9054906101000a900473ffffffffffffffffffffffffffffffffffffffff1681565b816001546109d39190611efb565b3414610a0b576040517f1101129400000000000000000000000000000000000000000000000000000000815260040160405180910390fd5b5f33604051602001610a1d9190611b0e565b604051602081830303815290604052805190602001209050610a688260085483604051602001610a4d9190611f5c565b60405160208183030381529060405280519060200120611677565b610a9e576040517f09bde33900000000000000000000000000000000000000000000000000000000815260040160405180910390fd5b5f5f90505b83811015610b1857600c33908060018154018082558091505060019003905f5260205f20015f9091909190916101000a81548173ffffffffffffffffffffffffffffffffffffffff021916908373ffffffffffffffffffffffffffffffffffffffff1602179055508080600101915050610aa3565b503373ffffffffffffffffffffffffffffffffffffffff167f0668f5b446eb814fe35b3206f43f14bd8567ba04ddaf7a3ee56516929ab22ccb84604051610b5f9190611992565b60405180910390a2505050565b600b5f9054906101000a900460ff1681565b5f610b8761168d565b905090565b610b94610b7e565b73ffffffffffffffffffffffffffffffffffffffff163373ffffffffffffffffffffffffffffffffffffffff1614158015610c1b57505f5f9054906101000a900473ffffffffffffffffffffffffffffffffffffffff1673ffffffffffffffffffffffffffffffffffffffff163373ffffffffffffffffffffffffffffffffffffffff1614155b15610c885733610c29610b7e565b5f5f9054906101000a900473ffffffffffffffffffffffffffffffffffffffff166040517f061db9c1000000000000000000000000000000000000000000000000000000008152600401610c7f93929190611f76565b60405180910390fd5b5f73ffffffffffffffffffffffffffffffffffffffff168173ffffffffffffffffffffffffffffffffffffffff1603610ced576040517fd92e233d00000000000000000000000000000000000000000000000000000000815260040160405180910390fd5b805f5f6101000a81548173ffffffffffffffffffffffffffffffffffffffff021916908373ffffffffffffffffffffffffffffffffffffffff1602179055507fd1a6a14209a385a964d036e404cb5cfb71f4000cdb03c9366292430787261be681604051610d5b9190611b0e565b60405180910390a150565b61271081565b610d7461151f565b5f60075414610daf576040517f0d5bae9500000000000000000000000000000000000000000000000000000000815260040160405180910390fd5b5f5f9054906101000a900473ffffffffffffffffffffffffffffffffffffffff1673ffffffffffffffffffffffffffffffffffffffff16639b1c385e6040518060c0016040528060065481526020016005548152602001600361ffff168152602001620f424063ffffffff16815260200160025463ffffffff168152602001610e486040518060200160405280600115158152506116c2565b8152506040518263ffffffff1660e01b8152600401610e6791906120e9565b6020604051808303815f875af1158015610e83573d5f5f3e3d5ffd5b505050506040513d601f19601f82011682018060405250810190610ea7919061211d565b6007819055505f600154600c80549050610ec19190611efb565b905060025461271060035483610ed79190611efb565b610ee19190612175565b610eeb9190612175565b600981905550600254600954610f019190611efb565b81610f0c91906121a5565b600a819055507f9ac10fb18c93d33ad7b0a941897aef048d0f8d30756684e82b4552ba12764d45600754604051610f439190611992565b60405180910390a150565b5f5f9054906101000a900473ffffffffffffffffffffffffffffffffffffffff1681565b60075481565b60095481565b60025481565b60035481565b600a5481565b60055481565b610f9e61151f565b5f73ffffffffffffffffffffffffffffffffffffffff168173ffffffffffffffffffffffffffffffffffffffff160361100e575f6040517f1e4fbdf70000000000000000000000000000000000000000000000000000000081526004016110059190611b0e565b60405180910390fd5b611017816115a6565b50565b5f61102361175a565b90505f815f0160089054906101000a900460ff161590505f825f015f9054906101000a900467ffffffffffffffff1690505f5f8267ffffffffffffffff1614801561106b5750825b90505f60018367ffffffffffffffff1614801561109e57505f3073ffffffffffffffffffffffffffffffffffffffff163b145b9050811580156110ac575080155b156110e3576040517ff92ee8a900000000000000000000000000000000000000000000000000000000815260040160405180910390fd5b6001855f015f6101000a81548167ffffffffffffffff021916908367ffffffffffffffff1602179055508315611130576001855f0160086101000a81548160ff0219169083151502179055505b6111398a61176d565b739ddfaca8183c41ad55329bdeed9f6a8d53168b1b5f5f6101000a81548173ffffffffffffffffffffffffffffffffffffffff021916908373ffffffffffffffffffffffffffffffffffffffff16021790555066038d7ea4c6800060018190555060028081905550610bb86003819055508860045f6101000a81548173ffffffffffffffffffffffffffffffffffffffff021916908373ffffffffffffffffffffffffffffffffffffffff1602179055508760058190555086600681905550856008819055508315611259575f855f0160086101000a81548160ff0219169083151502179055507fc7f505b2f371ae2175ee4913f4499e1f2633a7b5936321eed1cdaeb6115181d260016040516112509190612224565b60405180910390a15b50505050505050505050565b60075483146112a0576040517f41abc80100000000000000000000000000000000000000000000000000000000815260040160405180910390fd5b60025482829050146112de576040517f3f3df5b600000000000000000000000000000000000000000000000000000000815260040160405180910390fd5b5f60025467ffffffffffffffff8111156112fb576112fa611bbf565b5b6040519080825280602002602001820160405280156113295781602001602082028036833780820191505090505b5090505f5f90505b6002548110156114c7575f84848381811061134f5761134e61223d565b5b9050602002013590505b6001156114b9575f600c808054905083611373919061226a565b815481106113845761138361223d565b5b905f5260205f20015f9054906101000a900473ffffffffffffffffffffffffffffffffffffffff169050600d5f8273ffffffffffffffffffffffffffffffffffffffff1673ffffffffffffffffffffffffffffffffffffffff1681526020019081526020015f205f9054906101000a900460ff166114a5576001600d5f8373ffffffffffffffffffffffffffffffffffffffff1673ffffffffffffffffffffffffffffffffffffffff1681526020019081526020015f205f6101000a81548160ff021916908315150217905550808484815181106114655761146461223d565b5b602002602001019073ffffffffffffffffffffffffffffffffffffffff16908173ffffffffffffffffffffffffffffffffffffffff1681525050506114b9565b81806114b09061229a565b92505050611359565b508080600101915050611331565b506001600b5f6101000a81548160ff0219169083151502179055507f32a1b5731a757f192a06ca973715ca4dbc42c2d15323cabaa74e0a2d5dc088e4816040516115119190612398565b60405180910390a150505050565b611527611781565b73ffffffffffffffffffffffffffffffffffffffff16611545610b7e565b73ffffffffffffffffffffffffffffffffffffffff16146115a457611568611781565b6040517f118cdaa700000000000000000000000000000000000000000000000000000000815260040161159b9190611b0e565b60405180910390fd5b565b5f6115af611788565b90505f815f015f9054906101000a900473ffffffffffffffffffffffffffffffffffffffff16905082825f015f6101000a81548173ffffffffffffffffffffffffffffffffffffffff021916908373ffffffffffffffffffffffffffffffffffffffff1602179055508273ffffffffffffffffffffffffffffffffffffffff168173ffffffffffffffffffffffffffffffffffffffff167f8be0079c531659141344cd1fd0a4f28419497f9722a3daafe3b4186f6b6457e060405160405180910390a3505050565b5f8261168385846117af565b1490509392505050565b5f5f611697611788565b9050805f015f9054906101000a900473ffffffffffffffffffffffffffffffffffffffff1691505090565b60607f92fd13387c7fe7befbc38d303d6468778fb9731bc4583f17d92989c6fcfdeaaa826040516024016116f691906123e1565b604051602081830303815290604052907bffffffffffffffffffffffffffffffffffffffffffffffffffffffff19166020820180517bffffffffffffffffffffffffffffffffffffffffffffffffffffffff83818316178352505050509050919050565b5f5f611764611800565b90508091505090565b611775611829565b61177e81611869565b50565b5f33905090565b5f7f9016d09d72d40fdae2fd8ceac6b6234c7706214fd39c1cd1e609a0528c199300905090565b5f5f8290505f5f90505b84518110156117f5576117e6828683815181106117d9576117d861223d565b5b60200260200101516118ed565b915080806001019150506117b9565b508091505092915050565b5f7ff0c57e16840df040f15088dc2f81fe391c3923bec73e23a9662efc9c229c6a005f1b905090565b611831611917565b611867576040517fd7e6bcf800000000000000000000000000000000000000000000000000000000815260040160405180910390fd5b565b611871611829565b5f73ffffffffffffffffffffffffffffffffffffffff168173ffffffffffffffffffffffffffffffffffffffff16036118e1575f6040517f1e4fbdf70000000000000000000000000000000000000000000000000000000081526004016118d89190611b0e565b60405180910390fd5b6118ea816115a6565b50565b5f818310611904576118ff8284611935565b61190f565b61190e8383611935565b5b905092915050565b5f61192061175a565b5f0160089054906101000a900460ff16905090565b5f825f528160205260405f20905092915050565b5f819050919050565b61195b81611949565b82525050565b5f6020820190506119745f830184611952565b92915050565b5f819050919050565b61198c8161197a565b82525050565b5f6020820190506119a55f830184611983565b92915050565b5f604051905090565b5f5ffd5b5f5ffd5b6119c58161197a565b81146119cf575f5ffd5b50565b5f813590506119e0816119bc565b92915050565b5f5ffd5b5f5ffd5b5f5ffd5b5f5f83601f840112611a0757611a066119e6565b5b8235905067ffffffffffffffff811115611a2457611a236119ea565b5b602083019150836020820283011115611a4057611a3f6119ee565b5b9250929050565b5f5f5f60408486031215611a5e57611a5d6119b4565b5b5f611a6b868287016119d2565b935050602084013567ffffffffffffffff811115611a8c57611a8b6119b8565b5b611a98868287016119f2565b92509250509250925092565b5f60208284031215611ab957611ab86119b4565b5b5f611ac6848285016119d2565b91505092915050565b5f73ffffffffffffffffffffffffffffffffffffffff82169050919050565b5f611af882611acf565b9050919050565b611b0881611aee565b82525050565b5f602082019050611b215f830184611aff565b92915050565b611b3081611aee565b8114611b3a575f5ffd5b50565b5f81359050611b4b81611b27565b92915050565b5f60208284031215611b6657611b656119b4565b5b5f611b7384828501611b3d565b91505092915050565b5f8115159050919050565b611b9081611b7c565b82525050565b5f602082019050611ba95f830184611b87565b92915050565b5f601f19601f8301169050919050565b7f4e487b71000000000000000000000000000000000000000000000000000000005f52604160045260245ffd5b611bf582611baf565b810181811067ffffffffffffffff82111715611c1457611c13611bbf565b5b80604052505050565b5f611c266119ab565b9050611c328282611bec565b919050565b5f67ffffffffffffffff821115611c5157611c50611bbf565b5b602082029050602081019050919050565b611c6b81611949565b8114611c75575f5ffd5b50565b5f81359050611c8681611c62565b92915050565b5f611c9e611c9984611c37565b611c1d565b90508083825260208201905060208402830185811115611cc157611cc06119ee565b5b835b81811015611cea5780611cd68882611c78565b845260208401935050602081019050611cc3565b5050509392505050565b5f82601f830112611d0857611d076119e6565b5b8135611d18848260208601611c8c565b91505092915050565b5f5f60408385031215611d3757611d366119b4565b5b5f611d44858286016119d2565b925050602083013567ffffffffffffffff811115611d6557611d646119b8565b5b611d7185828601611cf4565b9150509250929050565b5f819050919050565b5f611d9e611d99611d9484611acf565b611d7b565b611acf565b9050919050565b5f611daf82611d84565b9050919050565b5f611dc082611da5565b9050919050565b611dd081611db6565b82525050565b5f602082019050611de95f830184611dc7565b92915050565b5f5f5f5f5f60a08688031215611e0857611e076119b4565b5b5f611e1588828901611b3d565b9550506020611e2688828901611b3d565b9450506040611e37888289016119d2565b9350506060611e4888828901611c78565b9250506080611e5988828901611c78565b9150509295509295909350565b5f604082019050611e795f830185611aff565b611e866020830184611aff565b9392505050565b5f81905092915050565b50565b5f611ea55f83611e8d565b9150611eb082611e97565b5f82019050919050565b5f611ec482611e9a565b9150819050919050565b7f4e487b71000000000000000000000000000000000000000000000000000000005f52601160045260245ffd5b5f611f058261197a565b9150611f108361197a565b9250828202611f1e8161197a565b91508282048414831517611f3557611f34611ece565b5b5092915050565b5f819050919050565b611f56611f5182611949565b611f3c565b82525050565b5f611f678284611f45565b60208201915081905092915050565b5f606082019050611f895f830186611aff565b611f966020830185611aff565b611fa36040830184611aff565b949350505050565b611fb481611949565b82525050565b611fc38161197a565b82525050565b5f61ffff82169050919050565b611fdf81611fc9565b82525050565b5f63ffffffff82169050919050565b611ffd81611fe5565b82525050565b5f81519050919050565b5f82825260208201905092915050565b8281835e5f83830152505050565b5f61203582612003565b61203f818561200d565b935061204f81856020860161201d565b61205881611baf565b840191505092915050565b5f60c083015f8301516120785f860182611fab565b50602083015161208b6020860182611fba565b50604083015161209e6040860182611fd6565b5060608301516120b16060860182611ff4565b5060808301516120c46080860182611ff4565b5060a083015184820360a08601526120dc828261202b565b9150508091505092915050565b5f6020820190508181035f8301526121018184612063565b905092915050565b5f81519050612117816119bc565b92915050565b5f60208284031215612132576121316119b4565b5b5f61213f84828501612109565b91505092915050565b7f4e487b71000000000000000000000000000000000000000000000000000000005f52601260045260245ffd5b5f61217f8261197a565b915061218a8361197a565b92508261219a57612199612148565b5b828204905092915050565b5f6121af8261197a565b91506121ba8361197a565b92508282039050818111156121d2576121d1611ece565b5b92915050565b5f819050919050565b5f67ffffffffffffffff82169050919050565b5f61220e612209612204846121d8565b611d7b565b6121e1565b9050919050565b61221e816121f4565b82525050565b5f6020820190506122375f830184612215565b92915050565b7f4e487b71000000000000000000000000000000000000000000000000000000005f52603260045260245ffd5b5f6122748261197a565b915061227f8361197a565b92508261228f5761228e612148565b5b828206905092915050565b5f6122a48261197a565b91507fffffffffffffffffffffffffffffffffffffffffffffffffffffffffffffffff82036122d6576122d5611ece565b5b600182019050919050565b5f81519050919050565b5f82825260208201905092915050565b5f819050602082019050919050565b61231381611aee565b82525050565b5f612324838361230a565b60208301905092915050565b5f602082019050919050565b5f612346826122e1565b61235081856122eb565b935061235b836122fb565b805f5b8381101561238b5781516123728882612319565b975061237d83612330565b92505060018101905061235e565b5085935050505092915050565b5f6020820190508181035f8301526123b0818461233c565b905092915050565b6123c181611b7c565b82525050565b602082015f8201516123db5f8501826123b8565b50505050565b5f6020820190506123f45f8301846123c7565b9291505056fea264697066735822122003187a8cad14cd8955c27ab0dad81cfd5a99637375b8517ef7015784c3cd570064736f6c634300081c0033",
					"opcodes": "PUSH1 0x80 PUSH1 0x40 MSTORE CALLVALUE DUP1 ISZERO PUSH1 0xE JUMPI PUSH0 PUSH0 REVERT JUMPDEST POP PUSH2 0x2430 DUP1 PUSH2 0x1C PUSH0 CODECOPY PUSH0 RETURN INVALID PUSH1 0x80 PUSH1 0x40 MSTORE PUSH1 0x4 CALLDATASIZE LT PUSH2 0x165 JUMPI PUSH0 CALLDATALOAD PUSH1 0xE0 SHR DUP1 PUSH4 0x8DA5CB5B GT PUSH2 0xD0 JUMPI DUP1 PUSH4 0xB9705A03 GT PUSH2 0x89 JUMPI DUP1 PUSH4 0xE17901D8 GT PUSH2 0x63 JUMPI DUP1 PUSH4 0xE17901D8 EQ PUSH2 0x49D JUMPI DUP1 PUSH4 0xED647D21 EQ PUSH2 0x4C7 JUMPI DUP1 PUSH4 0xF2FDE38B EQ PUSH2 0x4F1 JUMPI DUP1 PUSH4 0xF9F23186 EQ PUSH2 0x519 JUMPI PUSH2 0x165 JUMP JUMPDEST DUP1 PUSH4 0xB9705A03 EQ PUSH2 0x41F JUMPI DUP1 PUSH4 0xC7383BE8 EQ PUSH2 0x449 JUMPI DUP1 PUSH4 0xC8AF64F8 EQ PUSH2 0x473 JUMPI PUSH2 0x165 JUMP JUMPDEST DUP1 PUSH4 0x8DA5CB5B EQ PUSH2 0x339 JUMPI DUP1 PUSH4 0x8EA98117 EQ PUSH2 0x363 JUMPI DUP1 PUSH4 0x918F8674 EQ PUSH2 0x38B JUMPI DUP1 PUSH4 0x98AFCA73 EQ PUSH2 0x3B5 JUMPI DUP1 PUSH4 0x9ECCACF6 EQ PUSH2 0x3CB JUMPI DUP1 PUSH4 0xAD8CCB84 EQ PUSH2 0x3F5 JUMPI PUSH2 0x165 JUMP JUMPDEST DUP1 PUSH4 0x70740AC9 GT PUSH2 0x122 JUMPI DUP1 PUSH4 0x70740AC9 EQ PUSH2 0x287 JUMPI DUP1 PUSH4 0x715018A6 EQ PUSH2 0x29D JUMPI DUP1 PUSH4 0x74552552 EQ PUSH2 0x2B3 JUMPI DUP1 PUSH4 0x7B208769 EQ PUSH2 0x2C9 JUMPI DUP1 PUSH4 0x8A89C8C9 EQ PUSH2 0x2F3 JUMPI DUP1 PUSH4 0x8BC53285 EQ PUSH2 0x30F JUMPI PUSH2 0x165 JUMP JUMPDEST DUP1 PUSH4 0x41D443E EQ PUSH2 0x169 JUMPI DUP1 PUSH4 0x1209B1F6 EQ PUSH2 0x193 JUMPI DUP1 PUSH4 0x1FE543E3 EQ PUSH2 0x1BD JUMPI DUP1 PUSH4 0x2EB4A7AB EQ PUSH2 0x1E5 JUMPI DUP1 PUSH4 0x35C1D349 EQ PUSH2 0x20F JUMPI DUP1 PUSH4 0x6BD5450A EQ PUSH2 0x24B JUMPI JUMPDEST PUSH0 PUSH0 REVERT JUMPDEST CALLVALUE DUP1 ISZERO PUSH2 0x174 JUMPI PUSH0 PUSH0 REVERT JUMPDEST POP PUSH2 0x17D PUSH2 0x541 JUMP JUMPDEST PUSH1 0x40 MLOAD PUSH2 0x18A SWAP2 SWAP1 PUSH2 0x1961 JUMP JUMPDEST PUSH1 0x40 MLOAD DUP1 SWAP2 SUB SWAP1 RETURN JUMPDEST CALLVALUE DUP1 ISZERO PUSH2 0x19E JUMPI PUSH0 PUSH0 REVERT JUMPDEST POP PUSH2 0x1A7 PUSH2 0x547 JUMP JUMPDEST PUSH1 0x40 MLOAD PUSH2 0x1B4 SWAP2 SWAP1 PUSH2 0x1992 JUMP JUMPDEST PUSH1 0x40 MLOAD DUP1 SWAP2 SUB SWAP1 RETURN JUMPDEST CALLVALUE DUP1 ISZERO PUSH2 0x1C8 JUMPI PUSH0 PUSH0 REVERT JUMPDEST POP PUSH2 0x1E3 PUSH1 0x4 DUP1 CALLDATASIZE SUB DUP2 ADD SWAP1 PUSH2 0x1DE SWAP2 SWAP1 PUSH2 0x1A47 JUMP JUMPDEST PUSH2 0x54D JUMP JUMPDEST STOP JUMPDEST CALLVALUE DUP1 ISZERO PUSH2 0x1F0 JUMPI PUSH0 PUSH0 REVERT JUMPDEST POP PUSH2 0x1F9 PUSH2 0x60F JUMP JUMPDEST PUSH1 0x40 MLOAD PUSH2 0x206 SWAP2 SWAP1 PUSH2 0x1961 JUMP JUMPDEST PUSH1 0x40 MLOAD DUP1 SWAP2 SUB SWAP1 RETURN JUMPDEST CALLVALUE DUP1 ISZERO PUSH2 0x21A JUMPI PUSH0 PUSH0 REVERT JUMPDEST POP PUSH2 0x235 PUSH1 0x4 DUP1 CALLDATASIZE SUB DUP2 ADD SWAP1 PUSH2 0x230 SWAP2 SWAP1 PUSH2 0x1AA4 JUMP JUMPDEST PUSH2 0x615 JUMP JUMPDEST PUSH1 0x40 MLOAD PUSH2 0x242 SWAP2 SWAP1 PUSH2 0x1B0E JUMP JUMPDEST PUSH1 0x40 MLOAD DUP1 SWAP2 SUB SWAP1 RETURN JUMPDEST CALLVALUE DUP1 ISZERO PUSH2 0x256 JUMPI PUSH0 PUSH0 REVERT JUMPDEST POP PUSH2 0x271 PUSH1 0x4 DUP1 CALLDATASIZE SUB DUP2 ADD SWAP1 PUSH2 0x26C SWAP2 SWAP1 PUSH2 0x1B51 JUMP JUMPDEST PUSH2 0x650 JUMP JUMPDEST PUSH1 0x40 MLOAD PUSH2 0x27E SWAP2 SWAP1 PUSH2 0x1B96 JUMP JUMPDEST PUSH1 0x40 MLOAD DUP1 SWAP2 SUB SWAP1 RETURN JUMPDEST CALLVALUE DUP1 ISZERO PUSH2 0x292 JUMPI PUSH0 PUSH0 REVERT JUMPDEST POP PUSH2 0x29B PUSH2 0x66D JUMP JUMPDEST STOP JUMPDEST CALLVALUE DUP1 ISZERO PUSH2 0x2A8 JUMPI PUSH0 PUSH0 REVERT JUMPDEST POP PUSH2 0x2B1 PUSH2 0x828 JUMP JUMPDEST STOP JUMPDEST CALLVALUE DUP1 ISZERO PUSH2 0x2BE JUMPI PUSH0 PUSH0 REVERT JUMPDEST POP PUSH2 0x2C7 PUSH2 0x83B JUMP JUMPDEST STOP JUMPDEST CALLVALUE DUP1 ISZERO PUSH2 0x2D4 JUMPI PUSH0 PUSH0 REVERT JUMPDEST POP PUSH2 0x2DD PUSH2 0x9A0 JUMP JUMPDEST PUSH1 0x40 MLOAD PUSH2 0x2EA SWAP2 SWAP1 PUSH2 0x1B0E JUMP JUMPDEST PUSH1 0x40 MLOAD DUP1 SWAP2 SUB SWAP1 RETURN JUMPDEST PUSH2 0x30D PUSH1 0x4 DUP1 CALLDATASIZE SUB DUP2 ADD SWAP1 PUSH2 0x308 SWAP2 SWAP1 PUSH2 0x1D21 JUMP JUMPDEST PUSH2 0x9C5 JUMP JUMPDEST STOP JUMPDEST CALLVALUE DUP1 ISZERO PUSH2 0x31A JUMPI PUSH0 PUSH0 REVERT JUMPDEST POP PUSH2 0x323 PUSH2 0xB6C JUMP JUMPDEST PUSH1 0x40 MLOAD PUSH2 0x330 SWAP2 SWAP1 PUSH2 0x1B96 JUMP JUMPDEST PUSH1 0x40 MLOAD DUP1 SWAP2 SUB SWAP1 RETURN JUMPDEST CALLVALUE DUP1 ISZERO PUSH2 0x344 JUMPI PUSH0 PUSH0 REVERT JUMPDEST POP PUSH2 0x34D PUSH2 0xB7E JUMP JUMPDEST PUSH1 0x40 MLOAD PUSH2 0x35A SWAP2 SWAP1 PUSH2 0x1B0E JUMP JUMPDEST PUSH1 0x40 MLOAD DUP1 SWAP2 SUB SWAP1 RETURN JUMPDEST CALLVALUE DUP1 ISZERO PUSH2 0x36E JUMPI PUSH0 PUSH0 REVERT JUMPDEST POP PUSH2 0x389 PUSH1 0x4 DUP1 CALLDATASIZE SUB DUP2 ADD SWAP1 PUSH2 0x384 SWAP2 SWAP1 PUSH2 0x1B51 JUMP JUMPDEST PUSH2 0xB8C JUMP JUMPDEST STOP JUMPDEST CALLVALUE DUP1 ISZERO PUSH2 0x396 JUMPI PUSH0 PUSH0 REVERT JUMPDEST POP PUSH2 0x39F PUSH2 0xD66 JUMP JUMPDEST PUSH1 0x40 MLOAD PUSH2 0x3AC SWAP2 SWAP1 PUSH2 0x1992 JUMP JUMPDEST PUSH1 0x40 MLOAD DUP1 SWAP2 SUB SWAP1 RETURN JUMPDEST CALLVALUE DUP1 ISZERO PUSH2 0x3C0 JUMPI PUSH0 PUSH0 REVERT JUMPDEST POP PUSH2 0x3C9 PUSH2 0xD6C JUMP JUMPDEST STOP JUMPDEST CALLVALUE DUP1 ISZERO PUSH2 0x3D6 JUMPI PUSH0 PUSH0 REVERT JUMPDEST POP PUSH2 0x3DF PUSH2 0xF4E JUMP JUMPDEST PUSH1 0x40 MLOAD PUSH2 0x3EC SWAP2 SWAP1 PUSH2 0x1DD6 JUMP JUMPDEST PUSH1 0x40 MLOAD DUP1 SWAP2 SUB SWAP1 RETURN JUMPDEST CALLVALUE DUP1 ISZERO PUSH2 0x400 JUMPI PUSH0 PUSH0 REVERT JUMPDEST POP PUSH2 0x409 PUSH2 0xF72 JUMP JUMPDEST PUSH1 0x40 MLOAD PUSH2 0x416 SWAP2 SWAP1 PUSH2 0x1992 JUMP JUMPDEST PUSH1 0x40 MLOAD DUP1 SWAP2 SUB SWAP1 RETURN JUMPDEST CALLVALUE DUP1 ISZERO PUSH2 0x42A JUMPI PUSH0 PUSH0 REVERT JUMPDEST POP PUSH2 0x433 PUSH2 0xF78 JUMP JUMPDEST PUSH1 0x40 MLOAD PUSH2 0x440 SWAP2 SWAP1 PUSH2 0x1992 JUMP JUMPDEST PUSH1 0x40 MLOAD DUP1 SWAP2 SUB SWAP1 RETURN JUMPDEST CALLVALUE DUP1 ISZERO PUSH2 0x454 JUMPI PUSH0 PUSH0 REVERT JUMPDEST POP PUSH2 0x45D PUSH2 0xF7E JUMP JUMPDEST PUSH1 0x40 MLOAD PUSH2 0x46A SWAP2 SWAP1 PUSH2 0x1992 JUMP JUMPDEST PUSH1 0x40 MLOAD DUP1 SWAP2 SUB SWAP1 RETURN JUMPDEST CALLVALUE DUP1 ISZERO PUSH2 0x47E JUMPI PUSH0 PUSH0 REVERT JUMPDEST POP PUSH2 0x487 PUSH2 0xF84 JUMP JUMPDEST PUSH1 0x40 MLOAD PUSH2 0x494 SWAP2 SWAP1 PUSH2 0x1992 JUMP JUMPDEST PUSH1 0x40 MLOAD DUP1 SWAP2 SUB SWAP1 RETURN JUMPDEST CALLVALUE DUP1 ISZERO PUSH2 0x4A8 JUMPI PUSH0 PUSH0 REVERT JUMPDEST POP PUSH2 0x4B1 PUSH2 0xF8A JUMP JUMPDEST PUSH1 0x40 MLOAD PUSH2 0x4BE SWAP2 SWAP1 PUSH2 0x1992 JUMP JUMPDEST PUSH1 0x40 MLOAD DUP1 SWAP2 SUB SWAP1 RETURN JUMPDEST CALLVALUE DUP1 ISZERO PUSH2 0x4D2 JUMPI PUSH0 PUSH0 REVERT JUMPDEST POP PUSH2 0x4DB PUSH2 0xF90 JUMP JUMPDEST PUSH1 0x40 MLOAD PUSH2 0x4E8 SWAP2 SWAP1 PUSH2 0x1992 JUMP JUMPDEST PUSH1 0x40 MLOAD DUP1 SWAP2 SUB SWAP1 RETURN JUMPDEST CALLVALUE DUP1 ISZERO PUSH2 0x4FC JUMPI PUSH0 PUSH0 REVERT JUMPDEST POP PUSH2 0x517 PUSH1 0x4 DUP1 CALLDATASIZE SUB DUP2 ADD SWAP1 PUSH2 0x512 SWAP2 SWAP1 PUSH2 0x1B51 JUMP JUMPDEST PUSH2 0xF96 JUMP JUMPDEST STOP JUMPDEST CALLVALUE DUP1 ISZERO PUSH2 0x524 JUMPI PUSH0 PUSH0 REVERT JUMPDEST POP PUSH2 0x53F PUSH1 0x4 DUP1 CALLDATASIZE SUB DUP2 ADD SWAP1 PUSH2 0x53A SWAP2 SWAP1 PUSH2 0x1DEF JUMP JUMPDEST PUSH2 0x101A JUMP JUMPDEST STOP JUMPDEST PUSH1 0x6 SLOAD DUP2 JUMP JUMPDEST PUSH1 0x1 SLOAD DUP2 JUMP JUMPDEST PUSH0 PUSH0 SWAP1 SLOAD SWAP1 PUSH2 0x100 EXP SWAP1 DIV PUSH20 0xFFFFFFFFFFFFFFFFFFFFFFFFFFFFFFFFFFFFFFFF AND PUSH20 0xFFFFFFFFFFFFFFFFFFFFFFFFFFFFFFFFFFFFFFFF AND CALLER PUSH20 0xFFFFFFFFFFFFFFFFFFFFFFFFFFFFFFFFFFFFFFFF AND EQ PUSH2 0x5FF JUMPI CALLER PUSH0 PUSH0 SWAP1 SLOAD SWAP1 PUSH2 0x100 EXP SWAP1 DIV PUSH20 0xFFFFFFFFFFFFFFFFFFFFFFFFFFFFFFFFFFFFFFFF AND PUSH1 0x40 MLOAD PUSH32 0x1CF993F400000000000000000000000000000000000000000000000000000000 DUP2 MSTORE PUSH1 0x4 ADD PUSH2 0x5F6 SWAP3 SWAP2 SWAP1 PUSH2 0x1E66 JUMP JUMPDEST PUSH1 0x40 MLOAD DUP1 SWAP2 SUB SWAP1 REVERT JUMPDEST PUSH2 0x60A DUP4 DUP4 DUP4 PUSH2 0x1265 JUMP JUMPDEST POP POP POP JUMP JUMPDEST PUSH1 0x8 SLOAD DUP2 JUMP JUMPDEST PUSH1 0xC DUP2 DUP2 SLOAD DUP2 LT PUSH2 0x624 JUMPI PUSH0 DUP1 REVERT JUMPDEST SWAP1 PUSH0 MSTORE PUSH1 0x20 PUSH0 KECCAK256 ADD PUSH0 SWAP2 POP SLOAD SWAP1 PUSH2 0x100 EXP SWAP1 DIV PUSH20 0xFFFFFFFFFFFFFFFFFFFFFFFFFFFFFFFFFFFFFFFF AND DUP2 JUMP JUMPDEST PUSH1 0xD PUSH1 0x20 MSTORE DUP1 PUSH0 MSTORE PUSH1 0x40 PUSH0 KECCAK256 PUSH0 SWAP2 POP SLOAD SWAP1 PUSH2 0x100 EXP SWAP1 DIV PUSH1 0xFF AND DUP2 JUMP JUMPDEST PUSH1 0xD PUSH0 CALLER PUSH20 0xFFFFFFFFFFFFFFFFFFFFFFFFFFFFFFFFFFFFFFFF AND PUSH20 0xFFFFFFFFFFFFFFFFFFFFFFFFFFFFFFFFFFFFFFFF AND DUP2 MSTORE PUSH1 0x20 ADD SWAP1 DUP2 MSTORE PUSH1 0x20 ADD PUSH0 KECCAK256 PUSH0 SWAP1 SLOAD SWAP1 PUSH2 0x100 EXP SWAP1 DIV PUSH1 0xFF AND PUSH2 0x6ED JUMPI PUSH1 0x40 MLOAD PUSH32 0xB19A9F8200000000000000000000000000000000000000000000000000000000 DUP2 MSTORE PUSH1 0x4 ADD PUSH1 0x40 MLOAD DUP1 SWAP2 SUB SWAP1 REVERT JUMPDEST PUSH0 PUSH1 0xD PUSH0 CALLER PUSH20 0xFFFFFFFFFFFFFFFFFFFFFFFFFFFFFFFFFFFFFFFF AND PUSH20 0xFFFFFFFFFFFFFFFFFFFFFFFFFFFFFFFFFFFFFFFF AND DUP2 MSTORE PUSH1 0x20 ADD SWAP1 DUP2 MSTORE PUSH1 0x20 ADD PUSH0 KECCAK256 PUSH0 PUSH2 0x100 EXP DUP2 SLOAD DUP2 PUSH1 0xFF MUL NOT AND SWAP1 DUP4 ISZERO ISZERO MUL OR SWAP1 SSTORE POP PUSH0 CALLER PUSH20 0xFFFFFFFFFFFFFFFFFFFFFFFFFFFFFFFFFFFFFFFF AND PUSH1 0x9 SLOAD PUSH1 0x40 MLOAD PUSH2 0x768 SWAP1 PUSH2 0x1EBA JUMP JUMPDEST PUSH0 PUSH1 0x40 MLOAD DUP1 DUP4 SUB DUP2 DUP6 DUP8 GAS CALL SWAP3 POP POP POP RETURNDATASIZE DUP1 PUSH0 DUP2 EQ PUSH2 0x7A2 JUMPI PUSH1 0x40 MLOAD SWAP2 POP PUSH1 0x1F NOT PUSH1 0x3F RETURNDATASIZE ADD AND DUP3 ADD PUSH1 0x40 MSTORE RETURNDATASIZE DUP3 MSTORE RETURNDATASIZE PUSH0 PUSH1 0x20 DUP5 ADD RETURNDATACOPY PUSH2 0x7A7 JUMP JUMPDEST PUSH1 0x60 SWAP2 POP JUMPDEST POP POP SWAP1 POP DUP1 PUSH2 0x7E2 JUMPI PUSH1 0x40 MLOAD PUSH32 0x90B8EC1800000000000000000000000000000000000000000000000000000000 DUP2 MSTORE PUSH1 0x4 ADD PUSH1 0x40 MLOAD DUP1 SWAP2 SUB SWAP1 REVERT JUMPDEST CALLER PUSH20 0xFFFFFFFFFFFFFFFFFFFFFFFFFFFFFFFFFFFFFFFF AND PUSH32 0x9F058359C5A4D11027CE8027F5F0F4DF210CB3EBAC92F2C584170ED78624DD8 PUSH1 0x40 MLOAD PUSH1 0x40 MLOAD DUP1 SWAP2 SUB SWAP1 LOG2 POP JUMP JUMPDEST PUSH2 0x830 PUSH2 0x151F JUMP JUMPDEST PUSH2 0x839 PUSH0 PUSH2 0x15A6 JUMP JUMPDEST JUMP JUMPDEST PUSH2 0x843 PUSH2 0x151F JUMP JUMPDEST PUSH0 PUSH1 0xA SLOAD GT PUSH2 0x87E JUMPI PUSH1 0x40 MLOAD PUSH32 0x356680B700000000000000000000000000000000000000000000000000000000 DUP2 MSTORE PUSH1 0x4 ADD PUSH1 0x40 MLOAD DUP1 SWAP2 SUB SWAP1 REVERT JUMPDEST PUSH1 0xB PUSH0 SWAP1 SLOAD SWAP1 PUSH2 0x100 EXP SWAP1 DIV PUSH1 0xFF AND PUSH2 0x8C3 JUMPI PUSH1 0x40 MLOAD PUSH32 0xC35D1FE400000000000000000000000000000000000000000000000000000000 DUP2 MSTORE PUSH1 0x4 ADD PUSH1 0x40 MLOAD DUP1 SWAP2 SUB SWAP1 REVERT JUMPDEST PUSH0 CALLER PUSH20 0xFFFFFFFFFFFFFFFFFFFFFFFFFFFFFFFFFFFFFFFF AND PUSH1 0xA SLOAD PUSH1 0x40 MLOAD PUSH2 0x8EA SWAP1 PUSH2 0x1EBA JUMP JUMPDEST PUSH0 PUSH1 0x40 MLOAD DUP1 DUP4 SUB DUP2 DUP6 DUP8 GAS CALL SWAP3 POP POP POP RETURNDATASIZE DUP1 PUSH0 DUP2 EQ PUSH2 0x924 JUMPI PUSH1 0x40 MLOAD SWAP2 POP PUSH1 0x1F NOT PUSH1 0x3F RETURNDATASIZE ADD AND DUP3 ADD PUSH1 0x40 MSTORE RETURNDATASIZE DUP3 MSTORE RETURNDATASIZE PUSH0 PUSH1 0x20 DUP5 ADD RETURNDATACOPY PUSH2 0x929 JUMP JUMPDEST PUSH1 0x60 SWAP2 POP JUMPDEST POP POP SWAP1 POP DUP1 PUSH2 0x964 JUMPI PUSH1 0x40 MLOAD PUSH32 0x90B8EC1800000000000000000000000000000000000000000000000000000000 DUP2 MSTORE PUSH1 0x4 ADD PUSH1 0x40 MLOAD DUP1 SWAP2 SUB SWAP1 REVERT JUMPDEST PUSH32 0x5689F9EF5BE164071958E27DCA7A9DF000791288FB23C621501D67B6A808848B PUSH1 0xA SLOAD PUSH1 0x40 MLOAD PUSH2 0x995 SWAP2 SWAP1 PUSH2 0x1992 JUMP JUMPDEST PUSH1 0x40 MLOAD DUP1 SWAP2 SUB SWAP1 LOG1 POP JUMP JUMPDEST PUSH1 0x4 PUSH0 SWAP1 SLOAD SWAP1 PUSH2 0x100 EXP SWAP1 DIV PUSH20 0xFFFFFFFFFFFFFFFFFFFFFFFFFFFFFFFFFFFFFFFF AND DUP2 JUMP JUMPDEST DUP2 PUSH1 0x1 SLOAD PUSH2 0x9D3 SWAP2 SWAP1 PUSH2 0x1EFB JUMP JUMPDEST CALLVALUE EQ PUSH2 0xA0B JUMPI PUSH1 0x40 MLOAD PUSH32 0x1101129400000000000000000000000000000000000000000000000000000000 DUP2 MSTORE PUSH1 0x4 ADD PUSH1 0x40 MLOAD DUP1 SWAP2 SUB SWAP1 REVERT JUMPDEST PUSH0 CALLER PUSH1 0x40 MLOAD PUSH1 0x20 ADD PUSH2 0xA1D SWAP2 SWAP1 PUSH2 0x1B0E JUMP JUMPDEST PUSH1 0x40 MLOAD PUSH1 0x20 DUP2 DUP4 SUB SUB DUP2 MSTORE SWAP1 PUSH1 0x40 MSTORE DUP1 MLOAD SWAP1 PUSH1 0x20 ADD KECCAK256 SWAP1 POP PUSH2 0xA68 DUP3 PUSH1 0x8 SLOAD DUP4 PUSH1 0x40 MLOAD PUSH1 0x20 ADD PUSH2 0xA4D SWAP2 SWAP1 PUSH2 0x1F5C JUMP JUMPDEST PUSH1 0x40 MLOAD PUSH1 0x20 DUP2 DUP4 SUB SUB DUP2 MSTORE SWAP1 PUSH1 0x40 MSTORE DUP1 MLOAD SWAP1 PUSH1 0x20 ADD KECCAK256 PUSH2 0x1677 JUMP JUMPDEST PUSH2 0xA9E JUMPI PUSH1 0x40 MLOAD PUSH32 0x9BDE33900000000000000000000000000000000000000000000000000000000 DUP2 MSTORE PUSH1 0x4 ADD PUSH1 0x40 MLOAD DUP1 SWAP2 SUB SWAP1 REVERT JUMPDEST PUSH0 PUSH0 SWAP1 POP JUMPDEST DUP4 DUP2 LT ISZERO PUSH2 0xB18 JUMPI PUSH1 0xC CALLER SWAP1 DUP1 PUSH1 0x1 DUP2 SLOAD ADD DUP1 DUP3 SSTORE DUP1 SWAP2 POP POP PUSH1 0x1 SWAP1 SUB SWAP1 PUSH0 MSTORE PUSH1 0x20 PUSH0 KECCAK256 ADD PUSH0 SWAP1 SWAP2 SWAP1 SWAP2 SWAP1 SWAP2 PUSH2 0x100 EXP DUP2 SLOAD DUP2 PUSH20 0xFFFFFFFFFFFFFFFFFFFFFFFFFFFFFFFFFFFFFFFF MUL NOT AND SWAP1 DUP4 PUSH20 0xFFFFFFFFFFFFFFFFFFFFFFFFFFFFFFFFFFFFFFFF AND MUL OR SWAP1 SSTORE POP DUP1 DUP1 PUSH1 0x1 ADD SWAP2 POP POP PUSH2 0xAA3 JUMP JUMPDEST POP CALLER PUSH20 0xFFFFFFFFFFFFFFFFFFFFFFFFFFFFFFFFFFFFFFFF AND PUSH32 0x668F5B446EB814FE35B3206F43F14BD8567BA04DDAF7A3EE56516929AB22CCB DUP5 PUSH1 0x40 MLOAD PUSH2 0xB5F SWAP2 SWAP1 PUSH2 0x1992 JUMP JUMPDEST PUSH1 0x40 MLOAD DUP1 SWAP2 SUB SWAP1 LOG2 POP POP POP JUMP JUMPDEST PUSH1 0xB PUSH0 SWAP1 SLOAD SWAP1 PUSH2 0x100 EXP SWAP1 DIV PUSH1 0xFF AND DUP2 JUMP JUMPDEST PUSH0 PUSH2 0xB87 PUSH2 0x168D JUMP JUMPDEST SWAP1 POP SWAP1 JUMP JUMPDEST PUSH2 0xB94 PUSH2 0xB7E JUMP JUMPDEST PUSH20 0xFFFFFFFFFFFFFFFFFFFFFFFFFFFFFFFFFFFFFFFF AND CALLER PUSH20 0xFFFFFFFFFFFFFFFFFFFFFFFFFFFFFFFFFFFFFFFF AND EQ ISZERO DUP1 ISZERO PUSH2 0xC1B JUMPI POP PUSH0 PUSH0 SWAP1 SLOAD SWAP1 PUSH2 0x100 EXP SWAP1 DIV PUSH20 0xFFFFFFFFFFFFFFFFFFFFFFFFFFFFFFFFFFFFFFFF AND PUSH20 0xFFFFFFFFFFFFFFFFFFFFFFFFFFFFFFFFFFFFFFFF AND CALLER PUSH20 0xFFFFFFFFFFFFFFFFFFFFFFFFFFFFFFFFFFFFFFFF AND EQ ISZERO JUMPDEST ISZERO PUSH2 0xC88 JUMPI CALLER PUSH2 0xC29 PUSH2 0xB7E JUMP JUMPDEST PUSH0 PUSH0 SWAP1 SLOAD SWAP1 PUSH2 0x100 EXP SWAP1 DIV PUSH20 0xFFFFFFFFFFFFFFFFFFFFFFFFFFFFFFFFFFFFFFFF AND PUSH1 0x40 MLOAD PUSH32 0x61DB9C100000000000000000000000000000000000000000000000000000000 DUP2 MSTORE PUSH1 0x4 ADD PUSH2 0xC7F SWAP4 SWAP3 SWAP2 SWAP1 PUSH2 0x1F76 JUMP JUMPDEST PUSH1 0x40 MLOAD DUP1 SWAP2 SUB SWAP1 REVERT JUMPDEST PUSH0 PUSH20 0xFFFFFFFFFFFFFFFFFFFFFFFFFFFFFFFFFFFFFFFF AND DUP2 PUSH20 0xFFFFFFFFFFFFFFFFFFFFFFFFFFFFFFFFFFFFFFFF AND SUB PUSH2 0xCED JUMPI PUSH1 0x40 MLOAD PUSH32 0xD92E233D00000000000000000000000000000000000000000000000000000000 DUP2 MSTORE PUSH1 0x4 ADD PUSH1 0x40 MLOAD DUP1 SWAP2 SUB SWAP1 REVERT JUMPDEST DUP1 PUSH0 PUSH0 PUSH2 0x100 EXP DUP2 SLOAD DUP2 PUSH20 0xFFFFFFFFFFFFFFFFFFFFFFFFFFFFFFFFFFFFFFFF MUL NOT AND SWAP1 DUP4 PUSH20 0xFFFFFFFFFFFFFFFFFFFFFFFFFFFFFFFFFFFFFFFF AND MUL OR SWAP1 SSTORE POP PUSH32 0xD1A6A14209A385A964D036E404CB5CFB71F4000CDB03C9366292430787261BE6 DUP2 PUSH1 0x40 MLOAD PUSH2 0xD5B SWAP2 SWAP1 PUSH2 0x1B0E JUMP JUMPDEST PUSH1 0x40 MLOAD DUP1 SWAP2 SUB SWAP1 LOG1 POP JUMP JUMPDEST PUSH2 0x2710 DUP2 JUMP JUMPDEST PUSH2 0xD74 PUSH2 0x151F JUMP JUMPDEST PUSH0 PUSH1 0x7 SLOAD EQ PUSH2 0xDAF JUMPI PUSH1 0x40 MLOAD PUSH32 0xD5BAE9500000000000000000000000000000000000000000000000000000000 DUP2 MSTORE PUSH1 0x4 ADD PUSH1 0x40 MLOAD DUP1 SWAP2 SUB SWAP1 REVERT JUMPDEST PUSH0 PUSH0 SWAP1 SLOAD SWAP1 PUSH2 0x100 EXP SWAP1 DIV PUSH20 0xFFFFFFFFFFFFFFFFFFFFFFFFFFFFFFFFFFFFFFFF AND PUSH20 0xFFFFFFFFFFFFFFFFFFFFFFFFFFFFFFFFFFFFFFFF AND PUSH4 0x9B1C385E PUSH1 0x40 MLOAD DUP1 PUSH1 0xC0 ADD PUSH1 0x40 MSTORE DUP1 PUSH1 0x6 SLOAD DUP2 MSTORE PUSH1 0x20 ADD PUSH1 0x5 SLOAD DUP2 MSTORE PUSH1 0x20 ADD PUSH1 0x3 PUSH2 0xFFFF AND DUP2 MSTORE PUSH1 0x20 ADD PUSH3 0xF4240 PUSH4 0xFFFFFFFF AND DUP2 MSTORE PUSH1 0x20 ADD PUSH1 0x2 SLOAD PUSH4 0xFFFFFFFF AND DUP2 MSTORE PUSH1 0x20 ADD PUSH2 0xE48 PUSH1 0x40 MLOAD DUP1 PUSH1 0x20 ADD PUSH1 0x40 MSTORE DUP1 PUSH1 0x1 ISZERO ISZERO DUP2 MSTORE POP PUSH2 0x16C2 JUMP JUMPDEST DUP2 MSTORE POP PUSH1 0x40 MLOAD DUP3 PUSH4 0xFFFFFFFF AND PUSH1 0xE0 SHL DUP2 MSTORE PUSH1 0x4 ADD PUSH2 0xE67 SWAP2 SWAP1 PUSH2 0x20E9 JUMP JUMPDEST PUSH1 0x20 PUSH1 0x40 MLOAD DUP1 DUP4 SUB DUP2 PUSH0 DUP8 GAS CALL ISZERO DUP1 ISZERO PUSH2 0xE83 JUMPI RETURNDATASIZE PUSH0 PUSH0 RETURNDATACOPY RETURNDATASIZE PUSH0 REVERT JUMPDEST POP POP POP POP PUSH1 0x40 MLOAD RETURNDATASIZE PUSH1 0x1F NOT PUSH1 0x1F DUP3 ADD AND DUP3 ADD DUP1 PUSH1 0x40 MSTORE POP DUP2 ADD SWAP1 PUSH2 0xEA7 SWAP2 SWAP1 PUSH2 0x211D JUMP JUMPDEST PUSH1 0x7 DUP2 SWAP1 SSTORE POP PUSH0 PUSH1 0x1 SLOAD PUSH1 0xC DUP1 SLOAD SWAP1 POP PUSH2 0xEC1 SWAP2 SWAP1 PUSH2 0x1EFB JUMP JUMPDEST SWAP1 POP PUSH1 0x2 SLOAD PUSH2 0x2710 PUSH1 0x3 SLOAD DUP4 PUSH2 0xED7 SWAP2 SWAP1 PUSH2 0x1EFB JUMP JUMPDEST PUSH2 0xEE1 SWAP2 SWAP1 PUSH2 0x2175 JUMP JUMPDEST PUSH2 0xEEB SWAP2 SWAP1 PUSH2 0x2175 JUMP JUMPDEST PUSH1 0x9 DUP2 SWAP1 SSTORE POP PUSH1 0x2 SLOAD PUSH1 0x9 SLOAD PUSH2 0xF01 SWAP2 SWAP1 PUSH2 0x1EFB JUMP JUMPDEST DUP2 PUSH2 0xF0C SWAP2 SWAP1 PUSH2 0x21A5 JUMP JUMPDEST PUSH1 0xA DUP2 SWAP1 SSTORE POP PUSH32 0x9AC10FB18C93D33AD7B0A941897AEF048D0F8D30756684E82B4552BA12764D45 PUSH1 0x7 SLOAD PUSH1 0x40 MLOAD PUSH2 0xF43 SWAP2 SWAP1 PUSH2 0x1992 JUMP JUMPDEST PUSH1 0x40 MLOAD DUP1 SWAP2 SUB SWAP1 LOG1 POP JUMP JUMPDEST PUSH0 PUSH0 SWAP1 SLOAD SWAP1 PUSH2 0x100 EXP SWAP1 DIV PUSH20 0xFFFFFFFFFFFFFFFFFFFFFFFFFFFFFFFFFFFFFFFF AND DUP2 JUMP JUMPDEST PUSH1 0x7 SLOAD DUP2 JUMP JUMPDEST PUSH1 0x9 SLOAD DUP2 JUMP JUMPDEST PUSH1 0x2 SLOAD DUP2 JUMP JUMPDEST PUSH1 0x3 SLOAD DUP2 JUMP JUMPDEST PUSH1 0xA SLOAD DUP2 JUMP JUMPDEST PUSH1 0x5 SLOAD DUP2 JUMP JUMPDEST PUSH2 0xF9E PUSH2 0x151F JUMP JUMPDEST PUSH0 PUSH20 0xFFFFFFFFFFFFFFFFFFFFFFFFFFFFFFFFFFFFFFFF AND DUP2 PUSH20 0xFFFFFFFFFFFFFFFFFFFFFFFFFFFFFFFFFFFFFFFF AND SUB PUSH2 0x100E JUMPI PUSH0 PUSH1 0x40 MLOAD PUSH32 0x1E4FBDF700000000000000000000000000000000000000000000000000000000 DUP2 MSTORE PUSH1 0x4 ADD PUSH2 0x1005 SWAP2 SWAP1 PUSH2 0x1B0E JUMP JUMPDEST PUSH1 0x40 MLOAD DUP1 SWAP2 SUB SWAP1 REVERT JUMPDEST PUSH2 0x1017 DUP2 PUSH2 0x15A6 JUMP JUMPDEST POP JUMP JUMPDEST PUSH0 PUSH2 0x1023 PUSH2 0x175A JUMP JUMPDEST SWAP1 POP PUSH0 DUP2 PUSH0 ADD PUSH1 0x8 SWAP1 SLOAD SWAP1 PUSH2 0x100 EXP SWAP1 DIV PUSH1 0xFF AND ISZERO SWAP1 POP PUSH0 DUP3 PUSH0 ADD PUSH0 SWAP1 SLOAD SWAP1 PUSH2 0x100 EXP SWAP1 DIV PUSH8 0xFFFFFFFFFFFFFFFF AND SWAP1 POP PUSH0 PUSH0 DUP3 PUSH8 0xFFFFFFFFFFFFFFFF AND EQ DUP1 ISZERO PUSH2 0x106B JUMPI POP DUP3 JUMPDEST SWAP1 POP PUSH0 PUSH1 0x1 DUP4 PUSH8 0xFFFFFFFFFFFFFFFF AND EQ DUP1 ISZERO PUSH2 0x109E JUMPI POP PUSH0 ADDRESS PUSH20 0xFFFFFFFFFFFFFFFFFFFFFFFFFFFFFFFFFFFFFFFF AND EXTCODESIZE EQ JUMPDEST SWAP1 POP DUP2 ISZERO DUP1 ISZERO PUSH2 0x10AC JUMPI POP DUP1 ISZERO JUMPDEST ISZERO PUSH2 0x10E3 JUMPI PUSH1 0x40 MLOAD PUSH32 0xF92EE8A900000000000000000000000000000000000000000000000000000000 DUP2 MSTORE PUSH1 0x4 ADD PUSH1 0x40 MLOAD DUP1 SWAP2 SUB SWAP1 REVERT JUMPDEST PUSH1 0x1 DUP6 PUSH0 ADD PUSH0 PUSH2 0x100 EXP DUP2 SLOAD DUP2 PUSH8 0xFFFFFFFFFFFFFFFF MUL NOT AND SWAP1 DUP4 PUSH8 0xFFFFFFFFFFFFFFFF AND MUL OR SWAP1 SSTORE POP DUP4 ISZERO PUSH2 0x1130 JUMPI PUSH1 0x1 DUP6 PUSH0 ADD PUSH1 0x8 PUSH2 0x100 EXP DUP2 SLOAD DUP2 PUSH1 0xFF MUL NOT AND SWAP1 DUP4 ISZERO ISZERO MUL OR SWAP1 SSTORE POP JUMPDEST PUSH2 0x1139 DUP11 PUSH2 0x176D JUMP JUMPDEST PUSH20 0x9DDFACA8183C41AD55329BDEED9F6A8D53168B1B PUSH0 PUSH0 PUSH2 0x100 EXP DUP2 SLOAD DUP2 PUSH20 0xFFFFFFFFFFFFFFFFFFFFFFFFFFFFFFFFFFFFFFFF MUL NOT AND SWAP1 DUP4 PUSH20 0xFFFFFFFFFFFFFFFFFFFFFFFFFFFFFFFFFFFFFFFF AND MUL OR SWAP1 SSTORE POP PUSH7 0x38D7EA4C68000 PUSH1 0x1 DUP2 SWAP1 SSTORE POP PUSH1 0x2 DUP1 DUP2 SWAP1 SSTORE POP PUSH2 0xBB8 PUSH1 0x3 DUP2 SWAP1 SSTORE POP DUP9 PUSH1 0x4 PUSH0 PUSH2 0x100 EXP DUP2 SLOAD DUP2 PUSH20 0xFFFFFFFFFFFFFFFFFFFFFFFFFFFFFFFFFFFFFFFF MUL NOT AND SWAP1 DUP4 PUSH20 0xFFFFFFFFFFFFFFFFFFFFFFFFFFFFFFFFFFFFFFFF AND MUL OR SWAP1 SSTORE POP DUP8 PUSH1 0x5 DUP2 SWAP1 SSTORE POP DUP7 PUSH1 0x6 DUP2 SWAP1 SSTORE POP DUP6 PUSH1 0x8 DUP2 SWAP1 SSTORE POP DUP4 ISZERO PUSH2 0x1259 JUMPI PUSH0 DUP6 PUSH0 ADD PUSH1 0x8 PUSH2 0x100 EXP DUP2 SLOAD DUP2 PUSH1 0xFF MUL NOT AND SWAP1 DUP4 ISZERO ISZERO MUL OR SWAP1 SSTORE POP PUSH32 0xC7F505B2F371AE2175EE4913F4499E1F2633A7B5936321EED1CDAEB6115181D2 PUSH1 0x1 PUSH1 0x40 MLOAD PUSH2 0x1250 SWAP2 SWAP1 PUSH2 0x2224 JUMP JUMPDEST PUSH1 0x40 MLOAD DUP1 SWAP2 SUB SWAP1 LOG1 JUMPDEST POP POP POP POP POP POP POP POP POP POP JUMP JUMPDEST PUSH1 0x7 SLOAD DUP4 EQ PUSH2 0x12A0 JUMPI PUSH1 0x40 MLOAD PUSH32 0x41ABC80100000000000000000000000000000000000000000000000000000000 DUP2 MSTORE PUSH1 0x4 ADD PUSH1 0x40 MLOAD DUP1 SWAP2 SUB SWAP1 REVERT JUMPDEST PUSH1 0x2 SLOAD DUP3 DUP3 SWAP1 POP EQ PUSH2 0x12DE JUMPI PUSH1 0x40 MLOAD PUSH32 0x3F3DF5B600000000000000000000000000000000000000000000000000000000 DUP2 MSTORE PUSH1 0x4 ADD PUSH1 0x40 MLOAD DUP1 SWAP2 SUB SWAP1 REVERT JUMPDEST PUSH0 PUSH1 0x2 SLOAD PUSH8 0xFFFFFFFFFFFFFFFF DUP2 GT ISZERO PUSH2 0x12FB JUMPI PUSH2 0x12FA PUSH2 0x1BBF JUMP JUMPDEST JUMPDEST PUSH1 0x40 MLOAD SWAP1 DUP1 DUP3 MSTORE DUP1 PUSH1 0x20 MUL PUSH1 0x20 ADD DUP3 ADD PUSH1 0x40 MSTORE DUP1 ISZERO PUSH2 0x1329 JUMPI DUP2 PUSH1 0x20 ADD PUSH1 0x20 DUP3 MUL DUP1 CALLDATASIZE DUP4 CALLDATACOPY DUP1 DUP3 ADD SWAP2 POP POP SWAP1 POP JUMPDEST POP SWAP1 POP PUSH0 PUSH0 SWAP1 POP JUMPDEST PUSH1 0x2 SLOAD DUP2 LT ISZERO PUSH2 0x14C7 JUMPI PUSH0 DUP5 DUP5 DUP4 DUP2 DUP2 LT PUSH2 0x134F JUMPI PUSH2 0x134E PUSH2 0x223D JUMP JUMPDEST JUMPDEST SWAP1 POP PUSH1 0x20 MUL ADD CALLDATALOAD SWAP1 POP JUMPDEST PUSH1 0x1 ISZERO PUSH2 0x14B9 JUMPI PUSH0 PUSH1 0xC DUP1 DUP1 SLOAD SWAP1 POP DUP4 PUSH2 0x1373 SWAP2 SWAP1 PUSH2 0x226A JUMP JUMPDEST DUP2 SLOAD DUP2 LT PUSH2 0x1384 JUMPI PUSH2 0x1383 PUSH2 0x223D JUMP JUMPDEST JUMPDEST SWAP1 PUSH0 MSTORE PUSH1 0x20 PUSH0 KECCAK256 ADD PUSH0 SWAP1 SLOAD SWAP1 PUSH2 0x100 EXP SWAP1 DIV PUSH20 0xFFFFFFFFFFFFFFFFFFFFFFFFFFFFFFFFFFFFFFFF AND SWAP1 POP PUSH1 0xD PUSH0 DUP3 PUSH20 0xFFFFFFFFFFFFFFFFFFFFFFFFFFFFFFFFFFFFFFFF AND PUSH20 0xFFFFFFFFFFFFFFFFFFFFFFFFFFFFFFFFFFFFFFFF AND DUP2 MSTORE PUSH1 0x20 ADD SWAP1 DUP2 MSTORE PUSH1 0x20 ADD PUSH0 KECCAK256 PUSH0 SWAP1 SLOAD SWAP1 PUSH2 0x100 EXP SWAP1 DIV PUSH1 0xFF AND PUSH2 0x14A5 JUMPI PUSH1 0x1 PUSH1 0xD PUSH0 DUP4 PUSH20 0xFFFFFFFFFFFFFFFFFFFFFFFFFFFFFFFFFFFFFFFF AND PUSH20 0xFFFFFFFFFFFFFFFFFFFFFFFFFFFFFFFFFFFFFFFF AND DUP2 MSTORE PUSH1 0x20 ADD SWAP1 DUP2 MSTORE PUSH1 0x20 ADD PUSH0 KECCAK256 PUSH0 PUSH2 0x100 EXP DUP2 SLOAD DUP2 PUSH1 0xFF MUL NOT AND SWAP1 DUP4 ISZERO ISZERO MUL OR SWAP1 SSTORE POP DUP1 DUP5 DUP5 DUP2 MLOAD DUP2 LT PUSH2 0x1465 JUMPI PUSH2 0x1464 PUSH2 0x223D JUMP JUMPDEST JUMPDEST PUSH1 0x20 MUL PUSH1 0x20 ADD ADD SWAP1 PUSH20 0xFFFFFFFFFFFFFFFFFFFFFFFFFFFFFFFFFFFFFFFF AND SWAP1 DUP2 PUSH20 0xFFFFFFFFFFFFFFFFFFFFFFFFFFFFFFFFFFFFFFFF AND DUP2 MSTORE POP POP POP PUSH2 0x14B9 JUMP JUMPDEST DUP2 DUP1 PUSH2 0x14B0 SWAP1 PUSH2 0x229A JUMP JUMPDEST SWAP3 POP POP POP PUSH2 0x1359 JUMP JUMPDEST POP DUP1 DUP1 PUSH1 0x1 ADD SWAP2 POP POP PUSH2 0x1331 JUMP JUMPDEST POP PUSH1 0x1 PUSH1 0xB PUSH0 PUSH2 0x100 EXP DUP2 SLOAD DUP2 PUSH1 0xFF MUL NOT AND SWAP1 DUP4 ISZERO ISZERO MUL OR SWAP1 SSTORE POP PUSH32 0x32A1B5731A757F192A06CA973715CA4DBC42C2D15323CABAA74E0A2D5DC088E4 DUP2 PUSH1 0x40 MLOAD PUSH2 0x1511 SWAP2 SWAP1 PUSH2 0x2398 JUMP JUMPDEST PUSH1 0x40 MLOAD DUP1 SWAP2 SUB SWAP1 LOG1 POP POP POP POP JUMP JUMPDEST PUSH2 0x1527 PUSH2 0x1781 JUMP JUMPDEST PUSH20 0xFFFFFFFFFFFFFFFFFFFFFFFFFFFFFFFFFFFFFFFF AND PUSH2 0x1545 PUSH2 0xB7E JUMP JUMPDEST PUSH20 0xFFFFFFFFFFFFFFFFFFFFFFFFFFFFFFFFFFFFFFFF AND EQ PUSH2 0x15A4 JUMPI PUSH2 0x1568 PUSH2 0x1781 JUMP JUMPDEST PUSH1 0x40 MLOAD PUSH32 0x118CDAA700000000000000000000000000000000000000000000000000000000 DUP2 MSTORE PUSH1 0x4 ADD PUSH2 0x159B SWAP2 SWAP1 PUSH2 0x1B0E JUMP JUMPDEST PUSH1 0x40 MLOAD DUP1 SWAP2 SUB SWAP1 REVERT JUMPDEST JUMP JUMPDEST PUSH0 PUSH2 0x15AF PUSH2 0x1788 JUMP JUMPDEST SWAP1 POP PUSH0 DUP2 PUSH0 ADD PUSH0 SWAP1 SLOAD SWAP1 PUSH2 0x100 EXP SWAP1 DIV PUSH20 0xFFFFFFFFFFFFFFFFFFFFFFFFFFFFFFFFFFFFFFFF AND SWAP1 POP DUP3 DUP3 PUSH0 ADD PUSH0 PUSH2 0x100 EXP DUP2 SLOAD DUP2 PUSH20 0xFFFFFFFFFFFFFFFFFFFFFFFFFFFFFFFFFFFFFFFF MUL NOT AND SWAP1 DUP4 PUSH20 0xFFFFFFFFFFFFFFFFFFFFFFFFFFFFFFFFFFFFFFFF AND MUL OR SWAP1 SSTORE POP DUP3 PUSH20 0xFFFFFFFFFFFFFFFFFFFFFFFFFFFFFFFFFFFFFFFF AND DUP2 PUSH20 0xFFFFFFFFFFFFFFFFFFFFFFFFFFFFFFFFFFFFFFFF AND PUSH32 0x8BE0079C531659141344CD1FD0A4F28419497F9722A3DAAFE3B4186F6B6457E0 PUSH1 0x40 MLOAD PUSH1 0x40 MLOAD DUP1 SWAP2 SUB SWAP1 LOG3 POP POP POP JUMP JUMPDEST PUSH0 DUP3 PUSH2 0x1683 DUP6 DUP5 PUSH2 0x17AF JUMP JUMPDEST EQ SWAP1 POP SWAP4 SWAP3 POP POP POP JUMP JUMPDEST PUSH0 PUSH0 PUSH2 0x1697 PUSH2 0x1788 JUMP JUMPDEST SWAP1 POP DUP1 PUSH0 ADD PUSH0 SWAP1 SLOAD SWAP1 PUSH2 0x100 EXP SWAP1 DIV PUSH20 0xFFFFFFFFFFFFFFFFFFFFFFFFFFFFFFFFFFFFFFFF AND SWAP2 POP POP SWAP1 JUMP JUMPDEST PUSH1 0x60 PUSH32 0x92FD13387C7FE7BEFBC38D303D6468778FB9731BC4583F17D92989C6FCFDEAAA DUP3 PUSH1 0x40 MLOAD PUSH1 0x24 ADD PUSH2 0x16F6 SWAP2 SWAP1 PUSH2 0x23E1 JUMP JUMPDEST PUSH1 0x40 MLOAD PUSH1 0x20 DUP2 DUP4 SUB SUB DUP2 MSTORE SWAP1 PUSH1 0x40 MSTORE SWAP1 PUSH28 0xFFFFFFFFFFFFFFFFFFFFFFFFFFFFFFFFFFFFFFFFFFFFFFFFFFFFFFFF NOT AND PUSH1 0x20 DUP3 ADD DUP1 MLOAD PUSH28 0xFFFFFFFFFFFFFFFFFFFFFFFFFFFFFFFFFFFFFFFFFFFFFFFFFFFFFFFF DUP4 DUP2 DUP4 AND OR DUP4 MSTORE POP POP POP POP SWAP1 POP SWAP2 SWAP1 POP JUMP JUMPDEST PUSH0 PUSH0 PUSH2 0x1764 PUSH2 0x1800 JUMP JUMPDEST SWAP1 POP DUP1 SWAP2 POP POP SWAP1 JUMP JUMPDEST PUSH2 0x1775 PUSH2 0x1829 JUMP JUMPDEST PUSH2 0x177E DUP2 PUSH2 0x1869 JUMP JUMPDEST POP JUMP JUMPDEST PUSH0 CALLER SWAP1 POP SWAP1 JUMP JUMPDEST PUSH0 PUSH32 0x9016D09D72D40FDAE2FD8CEAC6B6234C7706214FD39C1CD1E609A0528C199300 SWAP1 POP SWAP1 JUMP JUMPDEST PUSH0 PUSH0 DUP3 SWAP1 POP PUSH0 PUSH0 SWAP1 POP JUMPDEST DUP5 MLOAD DUP2 LT ISZERO PUSH2 0x17F5 JUMPI PUSH2 0x17E6 DUP3 DUP7 DUP4 DUP2 MLOAD DUP2 LT PUSH2 0x17D9 JUMPI PUSH2 0x17D8 PUSH2 0x223D JUMP JUMPDEST JUMPDEST PUSH1 0x20 MUL PUSH1 0x20 ADD ADD MLOAD PUSH2 0x18ED JUMP JUMPDEST SWAP2 POP DUP1 DUP1 PUSH1 0x1 ADD SWAP2 POP POP PUSH2 0x17B9 JUMP JUMPDEST POP DUP1 SWAP2 POP POP SWAP3 SWAP2 POP POP JUMP JUMPDEST PUSH0 PUSH32 0xF0C57E16840DF040F15088DC2F81FE391C3923BEC73E23A9662EFC9C229C6A00 PUSH0 SHL SWAP1 POP SWAP1 JUMP JUMPDEST PUSH2 0x1831 PUSH2 0x1917 JUMP JUMPDEST PUSH2 0x1867 JUMPI PUSH1 0x40 MLOAD PUSH32 0xD7E6BCF800000000000000000000000000000000000000000000000000000000 DUP2 MSTORE PUSH1 0x4 ADD PUSH1 0x40 MLOAD DUP1 SWAP2 SUB SWAP1 REVERT JUMPDEST JUMP JUMPDEST PUSH2 0x1871 PUSH2 0x1829 JUMP JUMPDEST PUSH0 PUSH20 0xFFFFFFFFFFFFFFFFFFFFFFFFFFFFFFFFFFFFFFFF AND DUP2 PUSH20 0xFFFFFFFFFFFFFFFFFFFFFFFFFFFFFFFFFFFFFFFF AND SUB PUSH2 0x18E1 JUMPI PUSH0 PUSH1 0x40 MLOAD PUSH32 0x1E4FBDF700000000000000000000000000000000000000000000000000000000 DUP2 MSTORE PUSH1 0x4 ADD PUSH2 0x18D8 SWAP2 SWAP1 PUSH2 0x1B0E JUMP JUMPDEST PUSH1 0x40 MLOAD DUP1 SWAP2 SUB SWAP1 REVERT JUMPDEST PUSH2 0x18EA DUP2 PUSH2 0x15A6 JUMP JUMPDEST POP JUMP JUMPDEST PUSH0 DUP2 DUP4 LT PUSH2 0x1904 JUMPI PUSH2 0x18FF DUP3 DUP5 PUSH2 0x1935 JUMP JUMPDEST PUSH2 0x190F JUMP JUMPDEST PUSH2 0x190E DUP4 DUP4 PUSH2 0x1935 JUMP JUMPDEST JUMPDEST SWAP1 POP SWAP3 SWAP2 POP POP JUMP JUMPDEST PUSH0 PUSH2 0x1920 PUSH2 0x175A JUMP JUMPDEST PUSH0 ADD PUSH1 0x8 SWAP1 SLOAD SWAP1 PUSH2 0x100 EXP SWAP1 DIV PUSH1 0xFF AND SWAP1 POP SWAP1 JUMP JUMPDEST PUSH0 DUP3 PUSH0 MSTORE DUP2 PUSH1 0x20 MSTORE PUSH1 0x40 PUSH0 KECCAK256 SWAP1 POP SWAP3 SWAP2 POP POP JUMP JUMPDEST PUSH0 DUP2 SWAP1 POP SWAP2 SWAP1 POP JUMP JUMPDEST PUSH2 0x195B DUP2 PUSH2 0x1949 JUMP JUMPDEST DUP3 MSTORE POP POP JUMP JUMPDEST PUSH0 PUSH1 0x20 DUP3 ADD SWAP1 POP PUSH2 0x1974 PUSH0 DUP4 ADD DUP5 PUSH2 0x1952 JUMP JUMPDEST SWAP3 SWAP2 POP POP JUMP JUMPDEST PUSH0 DUP2 SWAP1 POP SWAP2 SWAP1 POP JUMP JUMPDEST PUSH2 0x198C DUP2 PUSH2 0x197A JUMP JUMPDEST DUP3 MSTORE POP POP JUMP JUMPDEST PUSH0 PUSH1 0x20 DUP3 ADD SWAP1 POP PUSH2 0x19A5 PUSH0 DUP4 ADD DUP5 PUSH2 0x1983 JUMP JUMPDEST SWAP3 SWAP2 POP POP JUMP JUMPDEST PUSH0 PUSH1 0x40 MLOAD SWAP1 POP SWAP1 JUMP JUMPDEST PUSH0 PUSH0 REVERT JUMPDEST PUSH0 PUSH0 REVERT JUMPDEST PUSH2 0x19C5 DUP2 PUSH2 0x197A JUMP JUMPDEST DUP2 EQ PUSH2 0x19CF JUMPI PUSH0 PUSH0 REVERT JUMPDEST POP JUMP JUMPDEST PUSH0 DUP2 CALLDATALOAD SWAP1 POP PUSH2 0x19E0 DUP2 PUSH2 0x19BC JUMP JUMPDEST SWAP3 SWAP2 POP POP JUMP JUMPDEST PUSH0 PUSH0 REVERT JUMPDEST PUSH0 PUSH0 REVERT JUMPDEST PUSH0 PUSH0 REVERT JUMPDEST PUSH0 PUSH0 DUP4 PUSH1 0x1F DUP5 ADD SLT PUSH2 0x1A07 JUMPI PUSH2 0x1A06 PUSH2 0x19E6 JUMP JUMPDEST JUMPDEST DUP3 CALLDATALOAD SWAP1 POP PUSH8 0xFFFFFFFFFFFFFFFF DUP2 GT ISZERO PUSH2 0x1A24 JUMPI PUSH2 0x1A23 PUSH2 0x19EA JUMP JUMPDEST JUMPDEST PUSH1 0x20 DUP4 ADD SWAP2 POP DUP4 PUSH1 0x20 DUP3 MUL DUP4 ADD GT ISZERO PUSH2 0x1A40 JUMPI PUSH2 0x1A3F PUSH2 0x19EE JUMP JUMPDEST JUMPDEST SWAP3 POP SWAP3 SWAP1 POP JUMP JUMPDEST PUSH0 PUSH0 PUSH0 PUSH1 0x40 DUP5 DUP7 SUB SLT ISZERO PUSH2 0x1A5E JUMPI PUSH2 0x1A5D PUSH2 0x19B4 JUMP JUMPDEST JUMPDEST PUSH0 PUSH2 0x1A6B DUP7 DUP3 DUP8 ADD PUSH2 0x19D2 JUMP JUMPDEST SWAP4 POP POP PUSH1 0x20 DUP5 ADD CALLDATALOAD PUSH8 0xFFFFFFFFFFFFFFFF DUP2 GT ISZERO PUSH2 0x1A8C JUMPI PUSH2 0x1A8B PUSH2 0x19B8 JUMP JUMPDEST JUMPDEST PUSH2 0x1A98 DUP7 DUP3 DUP8 ADD PUSH2 0x19F2 JUMP JUMPDEST SWAP3 POP SWAP3 POP POP SWAP3 POP SWAP3 POP SWAP3 JUMP JUMPDEST PUSH0 PUSH1 0x20 DUP3 DUP5 SUB SLT ISZERO PUSH2 0x1AB9 JUMPI PUSH2 0x1AB8 PUSH2 0x19B4 JUMP JUMPDEST JUMPDEST PUSH0 PUSH2 0x1AC6 DUP5 DUP3 DUP6 ADD PUSH2 0x19D2 JUMP JUMPDEST SWAP2 POP POP SWAP3 SWAP2 POP POP JUMP JUMPDEST PUSH0 PUSH20 0xFFFFFFFFFFFFFFFFFFFFFFFFFFFFFFFFFFFFFFFF DUP3 AND SWAP1 POP SWAP2 SWAP1 POP JUMP JUMPDEST PUSH0 PUSH2 0x1AF8 DUP3 PUSH2 0x1ACF JUMP JUMPDEST SWAP1 POP SWAP2 SWAP1 POP JUMP JUMPDEST PUSH2 0x1B08 DUP2 PUSH2 0x1AEE JUMP JUMPDEST DUP3 MSTORE POP POP JUMP JUMPDEST PUSH0 PUSH1 0x20 DUP3 ADD SWAP1 POP PUSH2 0x1B21 PUSH0 DUP4 ADD DUP5 PUSH2 0x1AFF JUMP JUMPDEST SWAP3 SWAP2 POP POP JUMP JUMPDEST PUSH2 0x1B30 DUP2 PUSH2 0x1AEE JUMP JUMPDEST DUP2 EQ PUSH2 0x1B3A JUMPI PUSH0 PUSH0 REVERT JUMPDEST POP JUMP JUMPDEST PUSH0 DUP2 CALLDATALOAD SWAP1 POP PUSH2 0x1B4B DUP2 PUSH2 0x1B27 JUMP JUMPDEST SWAP3 SWAP2 POP POP JUMP JUMPDEST PUSH0 PUSH1 0x20 DUP3 DUP5 SUB SLT ISZERO PUSH2 0x1B66 JUMPI PUSH2 0x1B65 PUSH2 0x19B4 JUMP JUMPDEST JUMPDEST PUSH0 PUSH2 0x1B73 DUP5 DUP3 DUP6 ADD PUSH2 0x1B3D JUMP JUMPDEST SWAP2 POP POP SWAP3 SWAP2 POP POP JUMP JUMPDEST PUSH0 DUP2 ISZERO ISZERO SWAP1 POP SWAP2 SWAP1 POP JUMP JUMPDEST PUSH2 0x1B90 DUP2 PUSH2 0x1B7C JUMP JUMPDEST DUP3 MSTORE POP POP JUMP JUMPDEST PUSH0 PUSH1 0x20 DUP3 ADD SWAP1 POP PUSH2 0x1BA9 PUSH0 DUP4 ADD DUP5 PUSH2 0x1B87 JUMP JUMPDEST SWAP3 SWAP2 POP POP JUMP JUMPDEST PUSH0 PUSH1 0x1F NOT PUSH1 0x1F DUP4 ADD AND SWAP1 POP SWAP2 SWAP1 POP JUMP JUMPDEST PUSH32 0x4E487B7100000000000000000000000000000000000000000000000000000000 PUSH0 MSTORE PUSH1 0x41 PUSH1 0x4 MSTORE PUSH1 0x24 PUSH0 REVERT JUMPDEST PUSH2 0x1BF5 DUP3 PUSH2 0x1BAF JUMP JUMPDEST DUP2 ADD DUP2 DUP2 LT PUSH8 0xFFFFFFFFFFFFFFFF DUP3 GT OR ISZERO PUSH2 0x1C14 JUMPI PUSH2 0x1C13 PUSH2 0x1BBF JUMP JUMPDEST JUMPDEST DUP1 PUSH1 0x40 MSTORE POP POP POP JUMP JUMPDEST PUSH0 PUSH2 0x1C26 PUSH2 0x19AB JUMP JUMPDEST SWAP1 POP PUSH2 0x1C32 DUP3 DUP3 PUSH2 0x1BEC JUMP JUMPDEST SWAP2 SWAP1 POP JUMP JUMPDEST PUSH0 PUSH8 0xFFFFFFFFFFFFFFFF DUP3 GT ISZERO PUSH2 0x1C51 JUMPI PUSH2 0x1C50 PUSH2 0x1BBF JUMP JUMPDEST JUMPDEST PUSH1 0x20 DUP3 MUL SWAP1 POP PUSH1 0x20 DUP2 ADD SWAP1 POP SWAP2 SWAP1 POP JUMP JUMPDEST PUSH2 0x1C6B DUP2 PUSH2 0x1949 JUMP JUMPDEST DUP2 EQ PUSH2 0x1C75 JUMPI PUSH0 PUSH0 REVERT JUMPDEST POP JUMP JUMPDEST PUSH0 DUP2 CALLDATALOAD SWAP1 POP PUSH2 0x1C86 DUP2 PUSH2 0x1C62 JUMP JUMPDEST SWAP3 SWAP2 POP POP JUMP JUMPDEST PUSH0 PUSH2 0x1C9E PUSH2 0x1C99 DUP5 PUSH2 0x1C37 JUMP JUMPDEST PUSH2 0x1C1D JUMP JUMPDEST SWAP1 POP DUP1 DUP4 DUP3 MSTORE PUSH1 0x20 DUP3 ADD SWAP1 POP PUSH1 0x20 DUP5 MUL DUP4 ADD DUP6 DUP2 GT ISZERO PUSH2 0x1CC1 JUMPI PUSH2 0x1CC0 PUSH2 0x19EE JUMP JUMPDEST JUMPDEST DUP4 JUMPDEST DUP2 DUP2 LT ISZERO PUSH2 0x1CEA JUMPI DUP1 PUSH2 0x1CD6 DUP9 DUP3 PUSH2 0x1C78 JUMP JUMPDEST DUP5 MSTORE PUSH1 0x20 DUP5 ADD SWAP4 POP POP PUSH1 0x20 DUP2 ADD SWAP1 POP PUSH2 0x1CC3 JUMP JUMPDEST POP POP POP SWAP4 SWAP3 POP POP POP JUMP JUMPDEST PUSH0 DUP3 PUSH1 0x1F DUP4 ADD SLT PUSH2 0x1D08 JUMPI PUSH2 0x1D07 PUSH2 0x19E6 JUMP JUMPDEST JUMPDEST DUP2 CALLDATALOAD PUSH2 0x1D18 DUP5 DUP3 PUSH1 0x20 DUP7 ADD PUSH2 0x1C8C JUMP JUMPDEST SWAP2 POP POP SWAP3 SWAP2 POP POP JUMP JUMPDEST PUSH0 PUSH0 PUSH1 0x40 DUP4 DUP6 SUB SLT ISZERO PUSH2 0x1D37 JUMPI PUSH2 0x1D36 PUSH2 0x19B4 JUMP JUMPDEST JUMPDEST PUSH0 PUSH2 0x1D44 DUP6 DUP3 DUP7 ADD PUSH2 0x19D2 JUMP JUMPDEST SWAP3 POP POP PUSH1 0x20 DUP4 ADD CALLDATALOAD PUSH8 0xFFFFFFFFFFFFFFFF DUP2 GT ISZERO PUSH2 0x1D65 JUMPI PUSH2 0x1D64 PUSH2 0x19B8 JUMP JUMPDEST JUMPDEST PUSH2 0x1D71 DUP6 DUP3 DUP7 ADD PUSH2 0x1CF4 JUMP JUMPDEST SWAP2 POP POP SWAP3 POP SWAP3 SWAP1 POP JUMP JUMPDEST PUSH0 DUP2 SWAP1 POP SWAP2 SWAP1 POP JUMP JUMPDEST PUSH0 PUSH2 0x1D9E PUSH2 0x1D99 PUSH2 0x1D94 DUP5 PUSH2 0x1ACF JUMP JUMPDEST PUSH2 0x1D7B JUMP JUMPDEST PUSH2 0x1ACF JUMP JUMPDEST SWAP1 POP SWAP2 SWAP1 POP JUMP JUMPDEST PUSH0 PUSH2 0x1DAF DUP3 PUSH2 0x1D84 JUMP JUMPDEST SWAP1 POP SWAP2 SWAP1 POP JUMP JUMPDEST PUSH0 PUSH2 0x1DC0 DUP3 PUSH2 0x1DA5 JUMP JUMPDEST SWAP1 POP SWAP2 SWAP1 POP JUMP JUMPDEST PUSH2 0x1DD0 DUP2 PUSH2 0x1DB6 JUMP JUMPDEST DUP3 MSTORE POP POP JUMP JUMPDEST PUSH0 PUSH1 0x20 DUP3 ADD SWAP1 POP PUSH2 0x1DE9 PUSH0 DUP4 ADD DUP5 PUSH2 0x1DC7 JUMP JUMPDEST SWAP3 SWAP2 POP POP JUMP JUMPDEST PUSH0 PUSH0 PUSH0 PUSH0 PUSH0 PUSH1 0xA0 DUP7 DUP9 SUB SLT ISZERO PUSH2 0x1E08 JUMPI PUSH2 0x1E07 PUSH2 0x19B4 JUMP JUMPDEST JUMPDEST PUSH0 PUSH2 0x1E15 DUP9 DUP3 DUP10 ADD PUSH2 0x1B3D JUMP JUMPDEST SWAP6 POP POP PUSH1 0x20 PUSH2 0x1E26 DUP9 DUP3 DUP10 ADD PUSH2 0x1B3D JUMP JUMPDEST SWAP5 POP POP PUSH1 0x40 PUSH2 0x1E37 DUP9 DUP3 DUP10 ADD PUSH2 0x19D2 JUMP JUMPDEST SWAP4 POP POP PUSH1 0x60 PUSH2 0x1E48 DUP9 DUP3 DUP10 ADD PUSH2 0x1C78 JUMP JUMPDEST SWAP3 POP POP PUSH1 0x80 PUSH2 0x1E59 DUP9 DUP3 DUP10 ADD PUSH2 0x1C78 JUMP JUMPDEST SWAP2 POP POP SWAP3 SWAP6 POP SWAP3 SWAP6 SWAP1 SWAP4 POP JUMP JUMPDEST PUSH0 PUSH1 0x40 DUP3 ADD SWAP1 POP PUSH2 0x1E79 PUSH0 DUP4 ADD DUP6 PUSH2 0x1AFF JUMP JUMPDEST PUSH2 0x1E86 PUSH1 0x20 DUP4 ADD DUP5 PUSH2 0x1AFF JUMP JUMPDEST SWAP4 SWAP3 POP POP POP JUMP JUMPDEST PUSH0 DUP2 SWAP1 POP SWAP3 SWAP2 POP POP JUMP JUMPDEST POP JUMP JUMPDEST PUSH0 PUSH2 0x1EA5 PUSH0 DUP4 PUSH2 0x1E8D JUMP JUMPDEST SWAP2 POP PUSH2 0x1EB0 DUP3 PUSH2 0x1E97 JUMP JUMPDEST PUSH0 DUP3 ADD SWAP1 POP SWAP2 SWAP1 POP JUMP JUMPDEST PUSH0 PUSH2 0x1EC4 DUP3 PUSH2 0x1E9A JUMP JUMPDEST SWAP2 POP DUP2 SWAP1 POP SWAP2 SWAP1 POP JUMP JUMPDEST PUSH32 0x4E487B7100000000000000000000000000000000000000000000000000000000 PUSH0 MSTORE PUSH1 0x11 PUSH1 0x4 MSTORE PUSH1 0x24 PUSH0 REVERT JUMPDEST PUSH0 PUSH2 0x1F05 DUP3 PUSH2 0x197A JUMP JUMPDEST SWAP2 POP PUSH2 0x1F10 DUP4 PUSH2 0x197A JUMP JUMPDEST SWAP3 POP DUP3 DUP3 MUL PUSH2 0x1F1E DUP2 PUSH2 0x197A JUMP JUMPDEST SWAP2 POP DUP3 DUP3 DIV DUP5 EQ DUP4 ISZERO OR PUSH2 0x1F35 JUMPI PUSH2 0x1F34 PUSH2 0x1ECE JUMP JUMPDEST JUMPDEST POP SWAP3 SWAP2 POP POP JUMP JUMPDEST PUSH0 DUP2 SWAP1 POP SWAP2 SWAP1 POP JUMP JUMPDEST PUSH2 0x1F56 PUSH2 0x1F51 DUP3 PUSH2 0x1949 JUMP JUMPDEST PUSH2 0x1F3C JUMP JUMPDEST DUP3 MSTORE POP POP JUMP JUMPDEST PUSH0 PUSH2 0x1F67 DUP3 DUP5 PUSH2 0x1F45 JUMP JUMPDEST PUSH1 0x20 DUP3 ADD SWAP2 POP DUP2 SWAP1 POP SWAP3 SWAP2 POP POP JUMP JUMPDEST PUSH0 PUSH1 0x60 DUP3 ADD SWAP1 POP PUSH2 0x1F89 PUSH0 DUP4 ADD DUP7 PUSH2 0x1AFF JUMP JUMPDEST PUSH2 0x1F96 PUSH1 0x20 DUP4 ADD DUP6 PUSH2 0x1AFF JUMP JUMPDEST PUSH2 0x1FA3 PUSH1 0x40 DUP4 ADD DUP5 PUSH2 0x1AFF JUMP JUMPDEST SWAP5 SWAP4 POP POP POP POP JUMP JUMPDEST PUSH2 0x1FB4 DUP2 PUSH2 0x1949 JUMP JUMPDEST DUP3 MSTORE POP POP JUMP JUMPDEST PUSH2 0x1FC3 DUP2 PUSH2 0x197A JUMP JUMPDEST DUP3 MSTORE POP POP JUMP JUMPDEST PUSH0 PUSH2 0xFFFF DUP3 AND SWAP1 POP SWAP2 SWAP1 POP JUMP JUMPDEST PUSH2 0x1FDF DUP2 PUSH2 0x1FC9 JUMP JUMPDEST DUP3 MSTORE POP POP JUMP JUMPDEST PUSH0 PUSH4 0xFFFFFFFF DUP3 AND SWAP1 POP SWAP2 SWAP1 POP JUMP JUMPDEST PUSH2 0x1FFD DUP2 PUSH2 0x1FE5 JUMP JUMPDEST DUP3 MSTORE POP POP JUMP JUMPDEST PUSH0 DUP2 MLOAD SWAP1 POP SWAP2 SWAP1 POP JUMP JUMPDEST PUSH0 DUP3 DUP3 MSTORE PUSH1 0x20 DUP3 ADD SWAP1 POP SWAP3 SWAP2 POP POP JUMP JUMPDEST DUP3 DUP2 DUP4 MCOPY PUSH0 DUP4 DUP4 ADD MSTORE POP POP POP JUMP JUMPDEST PUSH0 PUSH2 0x2035 DUP3 PUSH2 0x2003 JUMP JUMPDEST PUSH2 0x203F DUP2 DUP6 PUSH2 0x200D JUMP JUMPDEST SWAP4 POP PUSH2 0x204F DUP2 DUP6 PUSH1 0x20 DUP7 ADD PUSH2 0x201D JUMP JUMPDEST PUSH2 0x2058 DUP2 PUSH2 0x1BAF JUMP JUMPDEST DUP5 ADD SWAP2 POP POP SWAP3 SWAP2 POP POP JUMP JUMPDEST PUSH0 PUSH1 0xC0 DUP4 ADD PUSH0 DUP4 ADD MLOAD PUSH2 0x2078 PUSH0 DUP7 ADD DUP3 PUSH2 0x1FAB JUMP JUMPDEST POP PUSH1 0x20 DUP4 ADD MLOAD PUSH2 0x208B PUSH1 0x20 DUP7 ADD DUP3 PUSH2 0x1FBA JUMP JUMPDEST POP PUSH1 0x40 DUP4 ADD MLOAD PUSH2 0x209E PUSH1 0x40 DUP7 ADD DUP3 PUSH2 0x1FD6 JUMP JUMPDEST POP PUSH1 0x60 DUP4 ADD MLOAD PUSH2 0x20B1 PUSH1 0x60 DUP7 ADD DUP3 PUSH2 0x1FF4 JUMP JUMPDEST POP PUSH1 0x80 DUP4 ADD MLOAD PUSH2 0x20C4 PUSH1 0x80 DUP7 ADD DUP3 PUSH2 0x1FF4 JUMP JUMPDEST POP PUSH1 0xA0 DUP4 ADD MLOAD DUP5 DUP3 SUB PUSH1 0xA0 DUP7 ADD MSTORE PUSH2 0x20DC DUP3 DUP3 PUSH2 0x202B JUMP JUMPDEST SWAP2 POP POP DUP1 SWAP2 POP POP SWAP3 SWAP2 POP POP JUMP JUMPDEST PUSH0 PUSH1 0x20 DUP3 ADD SWAP1 POP DUP2 DUP2 SUB PUSH0 DUP4 ADD MSTORE PUSH2 0x2101 DUP2 DUP5 PUSH2 0x2063 JUMP JUMPDEST SWAP1 POP SWAP3 SWAP2 POP POP JUMP JUMPDEST PUSH0 DUP2 MLOAD SWAP1 POP PUSH2 0x2117 DUP2 PUSH2 0x19BC JUMP JUMPDEST SWAP3 SWAP2 POP POP JUMP JUMPDEST PUSH0 PUSH1 0x20 DUP3 DUP5 SUB SLT ISZERO PUSH2 0x2132 JUMPI PUSH2 0x2131 PUSH2 0x19B4 JUMP JUMPDEST JUMPDEST PUSH0 PUSH2 0x213F DUP5 DUP3 DUP6 ADD PUSH2 0x2109 JUMP JUMPDEST SWAP2 POP POP SWAP3 SWAP2 POP POP JUMP JUMPDEST PUSH32 0x4E487B7100000000000000000000000000000000000000000000000000000000 PUSH0 MSTORE PUSH1 0x12 PUSH1 0x4 MSTORE PUSH1 0x24 PUSH0 REVERT JUMPDEST PUSH0 PUSH2 0x217F DUP3 PUSH2 0x197A JUMP JUMPDEST SWAP2 POP PUSH2 0x218A DUP4 PUSH2 0x197A JUMP JUMPDEST SWAP3 POP DUP3 PUSH2 0x219A JUMPI PUSH2 0x2199 PUSH2 0x2148 JUMP JUMPDEST JUMPDEST DUP3 DUP3 DIV SWAP1 POP SWAP3 SWAP2 POP POP JUMP JUMPDEST PUSH0 PUSH2 0x21AF DUP3 PUSH2 0x197A JUMP JUMPDEST SWAP2 POP PUSH2 0x21BA DUP4 PUSH2 0x197A JUMP JUMPDEST SWAP3 POP DUP3 DUP3 SUB SWAP1 POP DUP2 DUP2 GT ISZERO PUSH2 0x21D2 JUMPI PUSH2 0x21D1 PUSH2 0x1ECE JUMP JUMPDEST JUMPDEST SWAP3 SWAP2 POP POP JUMP JUMPDEST PUSH0 DUP2 SWAP1 POP SWAP2 SWAP1 POP JUMP JUMPDEST PUSH0 PUSH8 0xFFFFFFFFFFFFFFFF DUP3 AND SWAP1 POP SWAP2 SWAP1 POP JUMP JUMPDEST PUSH0 PUSH2 0x220E PUSH2 0x2209 PUSH2 0x2204 DUP5 PUSH2 0x21D8 JUMP JUMPDEST PUSH2 0x1D7B JUMP JUMPDEST PUSH2 0x21E1 JUMP JUMPDEST SWAP1 POP SWAP2 SWAP1 POP JUMP JUMPDEST PUSH2 0x221E DUP2 PUSH2 0x21F4 JUMP JUMPDEST DUP3 MSTORE POP POP JUMP JUMPDEST PUSH0 PUSH1 0x20 DUP3 ADD SWAP1 POP PUSH2 0x2237 PUSH0 DUP4 ADD DUP5 PUSH2 0x2215 JUMP JUMPDEST SWAP3 SWAP2 POP POP JUMP JUMPDEST PUSH32 0x4E487B7100000000000000000000000000000000000000000000000000000000 PUSH0 MSTORE PUSH1 0x32 PUSH1 0x4 MSTORE PUSH1 0x24 PUSH0 REVERT JUMPDEST PUSH0 PUSH2 0x2274 DUP3 PUSH2 0x197A JUMP JUMPDEST SWAP2 POP PUSH2 0x227F DUP4 PUSH2 0x197A JUMP JUMPDEST SWAP3 POP DUP3 PUSH2 0x228F JUMPI PUSH2 0x228E PUSH2 0x2148 JUMP JUMPDEST JUMPDEST DUP3 DUP3 MOD SWAP1 POP SWAP3 SWAP2 POP POP JUMP JUMPDEST PUSH0 PUSH2 0x22A4 DUP3 PUSH2 0x197A JUMP JUMPDEST SWAP2 POP PUSH32 0xFFFFFFFFFFFFFFFFFFFFFFFFFFFFFFFFFFFFFFFFFFFFFFFFFFFFFFFFFFFFFFFF DUP3 SUB PUSH2 0x22D6 JUMPI PUSH2 0x22D5 PUSH2 0x1ECE JUMP JUMPDEST JUMPDEST PUSH1 0x1 DUP3 ADD SWAP1 POP SWAP2 SWAP1 POP JUMP JUMPDEST PUSH0 DUP2 MLOAD SWAP1 POP SWAP2 SWAP1 POP JUMP JUMPDEST PUSH0 DUP3 DUP3 MSTORE PUSH1 0x20 DUP3 ADD SWAP1 POP SWAP3 SWAP2 POP POP JUMP JUMPDEST PUSH0 DUP2 SWAP1 POP PUSH1 0x20 DUP3 ADD SWAP1 POP SWAP2 SWAP1 POP JUMP JUMPDEST PUSH2 0x2313 DUP2 PUSH2 0x1AEE JUMP JUMPDEST DUP3 MSTORE POP POP JUMP JUMPDEST PUSH0 PUSH2 0x2324 DUP4 DUP4 PUSH2 0x230A JUMP JUMPDEST PUSH1 0x20 DUP4 ADD SWAP1 POP SWAP3 SWAP2 POP POP JUMP JUMPDEST PUSH0 PUSH1 0x20 DUP3 ADD SWAP1 POP SWAP2 SWAP1 POP JUMP JUMPDEST PUSH0 PUSH2 0x2346 DUP3 PUSH2 0x22E1 JUMP JUMPDEST PUSH2 0x2350 DUP2 DUP6 PUSH2 0x22EB JUMP JUMPDEST SWAP4 POP PUSH2 0x235B DUP4 PUSH2 0x22FB JUMP JUMPDEST DUP1 PUSH0 JUMPDEST DUP4 DUP2 LT ISZERO PUSH2 0x238B JUMPI DUP2 MLOAD PUSH2 0x2372 DUP9 DUP3 PUSH2 0x2319 JUMP JUMPDEST SWAP8 POP PUSH2 0x237D DUP4 PUSH2 0x2330 JUMP JUMPDEST SWAP3 POP POP PUSH1 0x1 DUP2 ADD SWAP1 POP PUSH2 0x235E JUMP JUMPDEST POP DUP6 SWAP4 POP POP POP POP SWAP3 SWAP2 POP POP JUMP JUMPDEST PUSH0 PUSH1 0x20 DUP3 ADD SWAP1 POP DUP2 DUP2 SUB PUSH0 DUP4 ADD MSTORE PUSH2 0x23B0 DUP2 DUP5 PUSH2 0x233C JUMP JUMPDEST SWAP1 POP SWAP3 SWAP2 POP POP JUMP JUMPDEST PUSH2 0x23C1 DUP2 PUSH2 0x1B7C JUMP JUMPDEST DUP3 MSTORE POP POP JUMP JUMPDEST PUSH1 0x20 DUP3 ADD PUSH0 DUP3 ADD MLOAD PUSH2 0x23DB PUSH0 DUP6 ADD DUP3 PUSH2 0x23B8 JUMP JUMPDEST POP POP POP POP JUMP JUMPDEST PUSH0 PUSH1 0x20 DUP3 ADD SWAP1 POP PUSH2 0x23F4 PUSH0 DUP4 ADD DUP5 PUSH2 0x23C7 JUMP JUMPDEST SWAP3 SWAP2 POP POP JUMP INVALID LOG2 PUSH5 0x6970667358 0x22 SLT KECCAK256 SUB XOR PUSH27 0x8CAD14CD8955C27AB0DAD81CFD5A99637375B8517EF7015784C3CD JUMPI STOP PUSH5 0x736F6C6343 STOP ADDMOD SHR STOP CALLER "
				},
				"gasEstimates": {
					"creation": {
						"codeDepositCost": "1852800",
						"executionCost": "1953",
						"totalCost": "1854753"
					},
					"external": {
						"DENOMINATOR()": "392",
						"buyTicket(uint256,bytes32[])": "infinite",
						"charityFunds()": "2469",
						"charityWallet()": "2597",
						"claimCharityFunds()": "infinite",
						"claimPrize()": "infinite",
						"initialize(address,address,uint256,bytes32,bytes32)": "infinite",
						"merkleRoot()": "2515",
						"numOfWinners()": "2492",
						"owner()": "2623",
						"participants(uint256)": "5056",
						"prizePercentageBPS()": "2514",
						"rawFulfillRandomWords(uint256,uint256[])": "infinite",
						"renounceOwnership()": "infinite",
						"requestRandomWinners()": "infinite",
						"s_vrfCoordinator()": "infinite",
						"setCoordinator(address)": "infinite",
						"ticketPrice()": "2471",
						"transferOwnership(address)": "infinite",
						"vrfKeyHash()": "2449",
						"vrfRequestID()": "2558",
						"vrfSubscriptionId()": "2491",
						"winnerReward()": "2470",
						"winners(address)": "2967",
						"winnersSelected()": "2599"
					},
					"internal": {
						"fulfillRandomWords(uint256,uint256[] calldata)": "infinite"
					}
				},
				"methodIdentifiers": {
					"DENOMINATOR()": "918f8674",
					"buyTicket(uint256,bytes32[])": "8a89c8c9",
					"charityFunds()": "e17901d8",
					"charityWallet()": "7b208769",
					"claimCharityFunds()": "74552552",
					"claimPrize()": "70740ac9",
					"initialize(address,address,uint256,bytes32,bytes32)": "f9f23186",
					"merkleRoot()": "2eb4a7ab",
					"numOfWinners()": "c7383be8",
					"owner()": "8da5cb5b",
					"participants(uint256)": "35c1d349",
					"prizePercentageBPS()": "c8af64f8",
					"rawFulfillRandomWords(uint256,uint256[])": "1fe543e3",
					"renounceOwnership()": "715018a6",
					"requestRandomWinners()": "98afca73",
					"s_vrfCoordinator()": "9eccacf6",
					"setCoordinator(address)": "8ea98117",
					"ticketPrice()": "1209b1f6",
					"transferOwnership(address)": "f2fde38b",
					"vrfKeyHash()": "041d443e",
					"vrfRequestID()": "ad8ccb84",
					"vrfSubscriptionId()": "ed647d21",
					"winnerReward()": "b9705a03",
					"winners(address)": "6bd5450a",
					"winnersSelected()": "8bc53285"
				}
			},
			"storageLayout": {
				"storage": [
					{
						"astId": 2294,
						"contract": "src/CharityRaffle.sol:CharityRaffle",
						"label": "s_vrfCoordinator",
						"offset": 0,
						"slot": "0",
						"type": "t_contract(IVRFCoordinatorV2Plus)17"
					},
					{
						"astId": 1823,
						"contract": "src/CharityRaffle.sol:CharityRaffle",
						"label": "ticketPrice",
						"offset": 0,
						"slot": "1",
						"type": "t_uint256"
					},
					{
						"astId": 1825,
						"contract": "src/CharityRaffle.sol:CharityRaffle",
						"label": "numOfWinners",
						"offset": 0,
						"slot": "2",
						"type": "t_uint256"
					},
					{
						"astId": 1827,
						"contract": "src/CharityRaffle.sol:CharityRaffle",
						"label": "prizePercentageBPS",
						"offset": 0,
						"slot": "3",
						"type": "t_uint256"
					},
					{
						"astId": 1829,
						"contract": "src/CharityRaffle.sol:CharityRaffle",
						"label": "charityWallet",
						"offset": 0,
						"slot": "4",
						"type": "t_address"
					},
					{
						"astId": 1831,
						"contract": "src/CharityRaffle.sol:CharityRaffle",
						"label": "vrfSubscriptionId",
						"offset": 0,
						"slot": "5",
						"type": "t_uint256"
					},
					{
						"astId": 1833,
						"contract": "src/CharityRaffle.sol:CharityRaffle",
						"label": "vrfKeyHash",
						"offset": 0,
						"slot": "6",
						"type": "t_bytes32"
					},
					{
						"astId": 1835,
						"contract": "src/CharityRaffle.sol:CharityRaffle",
						"label": "vrfRequestID",
						"offset": 0,
						"slot": "7",
						"type": "t_uint256"
					},
					{
						"astId": 1837,
						"contract": "src/CharityRaffle.sol:CharityRaffle",
						"label": "merkleRoot",
						"offset": 0,
						"slot": "8",
						"type": "t_bytes32"
					},
					{
						"astId": 1839,
						"contract": "src/CharityRaffle.sol:CharityRaffle",
						"label": "winnerReward",
						"offset": 0,
						"slot": "9",
						"type": "t_uint256"
					},
					{
						"astId": 1841,
						"contract": "src/CharityRaffle.sol:CharityRaffle",
						"label": "charityFunds",
						"offset": 0,
						"slot": "10",
						"type": "t_uint256"
					},
					{
						"astId": 1843,
						"contract": "src/CharityRaffle.sol:CharityRaffle",
						"label": "winnersSelected",
						"offset": 0,
						"slot": "11",
						"type": "t_bool"
					},
					{
						"astId": 1846,
						"contract": "src/CharityRaffle.sol:CharityRaffle",
						"label": "participants",
						"offset": 0,
						"slot": "12",
						"type": "t_array(t_address)dyn_storage"
					},
					{
						"astId": 1850,
						"contract": "src/CharityRaffle.sol:CharityRaffle",
						"label": "winners",
						"offset": 0,
						"slot": "13",
						"type": "t_mapping(t_address,t_bool)"
					}
				],
				"types": {
					"t_address": {
						"encoding": "inplace",
						"label": "address",
						"numberOfBytes": "20"
					},
					"t_array(t_address)dyn_storage": {
						"base": "t_address",
						"encoding": "dynamic_array",
						"label": "address[]",
						"numberOfBytes": "32"
					},
					"t_bool": {
						"encoding": "inplace",
						"label": "bool",
						"numberOfBytes": "1"
					},
					"t_bytes32": {
						"encoding": "inplace",
						"label": "bytes32",
						"numberOfBytes": "32"
					},
					"t_contract(IVRFCoordinatorV2Plus)17": {
						"encoding": "inplace",
						"label": "contract IVRFCoordinatorV2Plus",
						"numberOfBytes": "20"
					},
					"t_mapping(t_address,t_bool)": {
						"encoding": "mapping",
						"key": "t_address",
						"label": "mapping(address => bool)",
						"numberOfBytes": "32",
						"value": "t_bool"
					},
					"t_uint256": {
						"encoding": "inplace",
						"label": "uint256",
						"numberOfBytes": "32"
					}
				}
			},
			"userdoc": {
				"kind": "user",
				"methods": {
					"setCoordinator(address)": {
						"notice": "Sets the VRF Coordinator addressThis method should only be callable by the coordinator or contract owner"
					}
				},
				"version": 1
			}
		}
	}
}